{
  "address": "0x4d7928e993125A9Cefe7ffa9aB637653654222E2",
  "abi": [
    {
      "anonymous": false,
      "inputs": [
        {
          "indexed": false,
          "internalType": "uint256",
          "name": "amount",
          "type": "uint256"
        }
      ],
      "name": "Contraction",
      "type": "event"
    },
    {
      "anonymous": false,
      "inputs": [
        {
          "indexed": false,
          "internalType": "uint256",
          "name": "amount",
          "type": "uint256"
        }
      ],
      "name": "Expansion",
      "type": "event"
    },
    {
      "inputs": [],
      "name": "DST_DOLA",
      "outputs": [
        {
          "internalType": "contract ERC20",
          "name": "",
          "type": "address"
        }
      ],
      "stateMutability": "view",
      "type": "function"
    },
    {
      "inputs": [],
      "name": "DST_MARKET",
      "outputs": [
        {
          "internalType": "contract CErc20",
          "name": "",
          "type": "address"
        }
      ],
      "stateMutability": "view",
      "type": "function"
    },
    {
      "inputs": [],
      "name": "GOV",
      "outputs": [
        {
          "internalType": "address",
          "name": "",
          "type": "address"
        }
      ],
      "stateMutability": "view",
      "type": "function"
    },
    {
      "inputs": [],
      "name": "SRC_BRIDGE",
      "outputs": [
        {
          "internalType": "address",
          "name": "",
          "type": "address"
        }
      ],
      "stateMutability": "view",
      "type": "function"
    },
    {
      "inputs": [],
      "name": "SRC_DOLA",
      "outputs": [
        {
          "internalType": "contract ERC20",
          "name": "",
          "type": "address"
        }
      ],
      "stateMutability": "view",
      "type": "function"
    },
    {
      "inputs": [],
      "name": "chair",
      "outputs": [
        {
          "internalType": "address",
          "name": "",
          "type": "address"
        }
      ],
      "stateMutability": "view",
      "type": "function"
    },
    {
      "inputs": [
        {
          "internalType": "address",
          "name": "newChair_",
          "type": "address"
        }
      ],
      "name": "changeChair",
      "outputs": [],
      "stateMutability": "nonpayable",
      "type": "function"
    },
    {
      "inputs": [],
      "name": "dstBoard",
      "outputs": [
        {
          "internalType": "address",
          "name": "",
          "type": "address"
        }
      ],
      "stateMutability": "view",
      "type": "function"
    },
    {
      "inputs": [
        {
          "internalType": "uint256",
          "name": "amount",
          "type": "uint256"
        }
      ],
      "name": "dstContraction",
      "outputs": [],
      "stateMutability": "nonpayable",
      "type": "function"
    },
    {
      "inputs": [
        {
          "internalType": "uint256",
          "name": "amount",
          "type": "uint256"
        }
      ],
      "name": "dstExpansion",
      "outputs": [],
      "stateMutability": "nonpayable",
      "type": "function"
    },
    {
      "inputs": [],
      "name": "dstIsChairSuspended",
      "outputs": [
        {
          "internalType": "bool",
          "name": "",
          "type": "bool"
        }
      ],
      "stateMutability": "view",
      "type": "function"
    },
    {
      "inputs": [],
      "name": "dstLastSuspendTimestamp",
      "outputs": [
        {
          "internalType": "uint256",
          "name": "",
          "type": "uint256"
        }
      ],
      "stateMutability": "view",
      "type": "function"
    },
    {
      "inputs": [],
      "name": "dstSendProfitToGov",
      "outputs": [],
      "stateMutability": "nonpayable",
      "type": "function"
    },
    {
      "inputs": [
        {
          "internalType": "address",
          "name": "newBoard",
          "type": "address"
        }
      ],
      "name": "dstSetBoard",
      "outputs": [],
      "stateMutability": "nonpayable",
      "type": "function"
    },
    {
      "inputs": [],
      "name": "dstSupply",
      "outputs": [
        {
          "internalType": "uint256",
          "name": "",
          "type": "uint256"
        }
      ],
      "stateMutability": "view",
      "type": "function"
    },
    {
      "inputs": [],
      "name": "dstSuspendChair",
      "outputs": [],
      "stateMutability": "nonpayable",
      "type": "function"
    },
    {
      "inputs": [
        {
          "internalType": "uint256",
          "name": "amount",
          "type": "uint256"
        }
      ],
      "name": "dstTransferReservesToSrc",
      "outputs": [],
      "stateMutability": "nonpayable",
      "type": "function"
    },
    {
      "inputs": [],
      "name": "dstUnsuspendChair",
      "outputs": [],
      "stateMutability": "nonpayable",
      "type": "function"
    },
    {
      "inputs": [
        {
          "internalType": "uint256",
          "name": "amount",
          "type": "uint256"
        }
      ],
      "name": "srcBurnReserves",
      "outputs": [],
      "stateMutability": "nonpayable",
      "type": "function"
    },
    {
      "inputs": [
        {
          "internalType": "uint256",
          "name": "amount",
          "type": "uint256"
        }
      ],
      "name": "srcMintReserves",
      "outputs": [],
      "stateMutability": "nonpayable",
      "type": "function"
    },
    {
      "inputs": [
        {
          "internalType": "uint256",
          "name": "amount",
          "type": "uint256"
        }
      ],
      "name": "srcTransferReservesToDst",
      "outputs": [],
      "stateMutability": "nonpayable",
      "type": "function"
    },
    {
      "inputs": [
        {
          "internalType": "contract ERC20",
          "name": "token",
          "type": "address"
        },
        {
          "internalType": "address",
          "name": "to",
          "type": "address"
        }
      ],
      "name": "sweep",
      "outputs": [],
      "stateMutability": "nonpayable",
      "type": "function"
    }
  ],
  "transactionHash": "0xce406d9bf46744ebc6b9b2c3cc276bbb8fc8fbc53d58b9a83b96f047c59d8e39",
  "args": [],
  "solcInputHash": "7344392510aa9560a6f59a74bb76e921",
  "bytecode": "0x6080604052600080546001600160a01b031916733fcb35a1cbfb6007f9bc638d388958bc4550cb2817905534801561003657600080fd5b506114b2806100466000396000f3fe608060405234801561001057600080fd5b50600436106101415760003560e01c80638e2313d5116100b8578063c002e56e1161007c578063c002e56e14610296578063e589bccc146102a9578063e68e42d4146102c4578063ed83ba1b146102df578063eee15c35146102e7578063fdf893f5146102fa57600080fd5b80638e2313d514610239578063aa22b69c14610242578063ac4fd07d1461025d578063b158203f14610270578063b8dc491b1461028357600080fd5b806354e4c7a21161010a57806354e4c7a2146101c55780635628ad1c146101e0578063592fdad3146101f35780635dc045351461020b578063632f43c51461021357806364011df21461022657600080fd5b80628e6dcf14610146578063074f41d514610176578063180cb47f1461018b578063200c6e50146101a6578063372673bb146101ae575b600080fd5b600154610159906001600160a01b031681565b6040516001600160a01b0390911681526020015b60405180910390f35b610189610184366004611321565b61030d565b005b61015973926df14a23be491164dcf93f4c468a50ef659d5b81565b610189610470565b6101b760025481565b60405190815260200161016d565b61015973865377367054516e17014ccded1e7d814edc9ce481565b6101896101ee366004611321565b610546565b6101fb610734565b604051901515815260200161016d565b61018961076f565b610189610221366004611321565b61083b565b61018961023436600461134f565b610946565b6101b760035481565b610159733129662808bec728a27ab6a6b9afd3cbaca8a43c81565b61018961026b366004611321565b610a74565b61018961027e366004611321565b610b4b565b610189610291366004611373565b610beb565b6101896102a436600461134f565b610dea565b61015973c564ee9f21ed8a2d8e7e76c085740d5e4c5fafbe81565b610159735a3b9dcdd462f264ec1bd56d618bf4552c2eaf8a81565b610189610e54565b6101896102f5366004611321565b6110c8565b600054610159906001600160a01b031681565b46600114156103375760405162461bcd60e51b815260040161032e906113ac565b60405180910390fd5b6000546001600160a01b031633148061035a57506001546001600160a01b031633145b6103c25760405162461bcd60e51b815260206004820152603360248201527f4f6e6c79206368616972206f7220626f6172642063616e207472616e7366657260448201527220726573657276657320746f20736f7572636560681b606482015260840161032e565b69010f0cf064dd592000008110156103d957600080fd5b604051633146b65d60e11b815260048101829052306024820152733129662808bec728a27ab6a6b9afd3cbaca8a43c9063628d6cba90604401602060405180830381600087803b15801561042c57600080fd5b505af1158015610440573d6000803e3d6000fd5b505050506040513d601f19601f8201168201806040525081019061046491906113d1565b61046d57600080fd5b50565b46600114156104915760405162461bcd60e51b815260040161032e906113ac565b6001546001600160a01b031633146104eb5760405162461bcd60e51b815260206004820152601c60248201527f4f4e4c5920424f4152442043414e2053555350454e4420434841495200000000604482015260640161032e565b6104f3610734565b156105405760405162461bcd60e51b815260206004820152601760248201527f434841495220414c52454144592053555350454e444544000000000000000000604482015260640161032e565b42600355565b46600114156105675760405162461bcd60e51b815260040161032e906113ac565b6000546001600160a01b031633148061058a57506001546001600160a01b031633145b6105e75760405162461bcd60e51b815260206004820152602860248201527f4f6e6c79206368616972206f7220626f6172642063616e2063616c6c20636f6e6044820152673a3930b1ba34b7b760c11b606482015260840161032e565b60025481111561062a5760405162461bcd60e51b815260206004820152600e60248201526d414d4f554e5420544f4f2042494760901b604482015260640161032e565b60405163852a12e360e01b815260048101829052735a3b9dcdd462f264ec1bd56d618bf4552c2eaf8a9063852a12e390602401602060405180830381600087803b15801561067757600080fd5b505af115801561068b573d6000803e3d6000fd5b505050506040513d601f19601f820116820180604052508101906106af91906113f3565b156106ec5760405162461bcd60e51b815260206004820152600d60248201526c14995919595b4819985a5b1959609a1b604482015260640161032e565b806002546106fa9190611422565b6002556040518181527f32d275175c36fa468b3e61c6763f9488ff3c9be127e35e011cf4e04d602224ba906020015b60405180910390a150565b600046600114156107575760405162461bcd60e51b815260040161032e906113ac565b42621275006003546107699190611439565b11905090565b46600114156107905760405162461bcd60e51b815260040161032e906113ac565b6001546001600160a01b031633146107ea5760405162461bcd60e51b815260206004820152601e60248201527f4f4e4c5920424f4152442043414e20554e53555350454e442043484149520000604482015260640161032e565b6107f2610734565b6108345760405162461bcd60e51b815260206004820152601360248201527210d2105254881393d50814d554d41153911151606a1b604482015260640161032e565b6000600355565b6000546001600160a01b031633148061086757503373926df14a23be491164dcf93f4c468a50ef659d5b145b6108835760405162461bcd60e51b815260040161032e90611451565b466001146108a35760405162461bcd60e51b815260040161032e906113ac565b60405163a9059cbb60e01b815273c564ee9f21ed8a2d8e7e76c085740d5e4c5fafbe60048201526024810182905273865377367054516e17014ccded1e7d814edc9ce49063a9059cbb90604401602060405180830381600087803b15801561090a57600080fd5b505af115801561091e573d6000803e3d6000fd5b505050506040513d601f19601f8201168201806040525081019061094291906113d1565b5050565b46600114156109675760405162461bcd60e51b815260040161032e906113ac565b6001546001600160a01b03166109ea576000546001600160a01b031633146109e55760405162461bcd60e51b815260206004820152602b60248201527f4f4e4c592043484149522043414e2053455420424f41524420464f522054484560448201526a2046495253542054494d4560a81b606482015260840161032e565b610a52565b6001546001600160a01b03163314610a525760405162461bcd60e51b815260206004820152602560248201527f4f4e4c5920424f4152442043414e204348414e474520495453204f574e204144604482015264445245535360d81b606482015260840161032e565b600180546001600160a01b0319166001600160a01b0392909216919091179055565b6000546001600160a01b0316331480610aa057503373926df14a23be491164dcf93f4c468a50ef659d5b145b610abc5760405162461bcd60e51b815260040161032e90611451565b46600114610adc5760405162461bcd60e51b815260040161032e906113ac565b6040516340c10f1960e01b81523060048201526024810182905273865377367054516e17014ccded1e7d814edc9ce4906340c10f19906044015b600060405180830381600087803b158015610b3057600080fd5b505af1158015610b44573d6000803e3d6000fd5b5050505050565b6000546001600160a01b0316331480610b7757503373926df14a23be491164dcf93f4c468a50ef659d5b145b610b935760405162461bcd60e51b815260040161032e90611451565b46600114610bb35760405162461bcd60e51b815260040161032e906113ac565b604051630852cd8d60e31b81526004810182905273865377367054516e17014ccded1e7d814edc9ce4906342966c6890602401610b16565b6000546001600160a01b0316331480610c1757503373926df14a23be491164dcf93f4c468a50ef659d5b145b610c335760405162461bcd60e51b815260040161032e90611451565b6001600160a01b03821673865377367054516e17014ccded1e7d814edc9ce414801590610c7d57506001600160a01b038216733129662808bec728a27ab6a6b9afd3cbaca8a43c14155b8015610ca657506001600160a01b038216735a3b9dcdd462f264ec1bd56d618bf4552c2eaf8a14155b610ce65760405162461bcd60e51b815260206004820152601160248201527063616e6e6f7420737465616c20444f4c4160781b604482015260640161032e565b6040516370a0823160e01b81523060048201526001600160a01b0383169063a9059cbb90839083906370a082319060240160206040518083038186803b158015610d2f57600080fd5b505afa158015610d43573d6000803e3d6000fd5b505050506040513d601f19601f82011682018060405250810190610d6791906113f3565b6040516001600160e01b031960e085901b1681526001600160a01b0390921660048301526024820152604401602060405180830381600087803b158015610dad57600080fd5b505af1158015610dc1573d6000803e3d6000fd5b505050506040513d601f19601f82011682018060405250810190610de591906113d1565b505050565b6000546001600160a01b0316331480610e1657503373926df14a23be491164dcf93f4c468a50ef659d5b145b610e325760405162461bcd60e51b815260040161032e90611451565b600080546001600160a01b0319166001600160a01b0392909216919091179055565b4660011415610e755760405162461bcd60e51b815260040161032e906113ac565b604051633af9e66960e01b8152306004820152600090735a3b9dcdd462f264ec1bd56d618bf4552c2eaf8a90633af9e66990602401602060405180830381600087803b158015610ec457600080fd5b505af1158015610ed8573d6000803e3d6000fd5b505050506040513d601f19601f82011682018060405250810190610efc91906113f3565b9050600060025482610f0e9190611422565b905069010f0cf064dd59200000811015610f5e5760405162461bcd60e51b8152602060048201526011602482015270139bdd08195b9bdd59da081c1c9bd99a5d607a1b604482015260640161032e565b60405163852a12e360e01b815260048101829052735a3b9dcdd462f264ec1bd56d618bf4552c2eaf8a9063852a12e390602401602060405180830381600087803b158015610fab57600080fd5b505af1158015610fbf573d6000803e3d6000fd5b505050506040513d601f19601f82011682018060405250810190610fe391906113f3565b156110205760405162461bcd60e51b815260206004820152600d60248201526c14995919595b4819985a5b1959609a1b604482015260640161032e565b604051633146b65d60e11b81526004810182905273926df14a23be491164dcf93f4c468a50ef659d5b6024820152733129662808bec728a27ab6a6b9afd3cbaca8a43c9063628d6cba90604401602060405180830381600087803b15801561108757600080fd5b505af115801561109b573d6000803e3d6000fd5b505050506040513d601f19601f820116820180604052508101906110bf91906113d1565b61094257600080fd5b6000546001600160a01b03163314806110f457503373926df14a23be491164dcf93f4c468a50ef659d5b145b6111105760405162461bcd60e51b815260040161032e90611451565b46600114156111315760405162461bcd60e51b815260040161032e906113ac565b611139610734565b1561117b5760405162461bcd60e51b815260206004820152601260248201527110da185a5c881a5cc81cdd5cdc195b99195960721b604482015260640161032e565b60405163095ea7b360e01b8152735a3b9dcdd462f264ec1bd56d618bf4552c2eaf8a600482015260248101829052733129662808bec728a27ab6a6b9afd3cbaca8a43c9063095ea7b390604401602060405180830381600087803b1580156111e257600080fd5b505af11580156111f6573d6000803e3d6000fd5b505050506040513d601f19601f8201168201806040525081019061121a91906113d1565b5060405163140e25ad60e31b815260048101829052735a3b9dcdd462f264ec1bd56d618bf4552c2eaf8a9063a0712d6890602401602060405180830381600087803b15801561126857600080fd5b505af115801561127c573d6000803e3d6000fd5b505050506040513d601f19601f820116820180604052508101906112a091906113f3565b156112e05760405162461bcd60e51b815260206004820152601060248201526f14dd5c1c1b1e5a5b99c819985a5b195960821b604482015260640161032e565b806002546112ee9190611439565b6002556040518181527fdcc16fd18a808d877bcd9a09b544844b36ae8f0a4b222e317d7b777b2c18b03290602001610729565b60006020828403121561133357600080fd5b5035919050565b6001600160a01b038116811461046d57600080fd5b60006020828403121561136157600080fd5b813561136c8161133a565b9392505050565b6000806040838503121561138657600080fd5b82356113918161133a565b915060208301356113a18161133a565b809150509250929050565b6020808252600b908201526a2ba927a7239021a420a4a760a91b604082015260600190565b6000602082840312156113e357600080fd5b8151801515811461136c57600080fd5b60006020828403121561140557600080fd5b5051919050565b634e487b7160e01b600052601160045260246000fd5b6000828210156114345761143461140c565b500390565b6000821982111561144c5761144c61140c565b500190565b60208082526011908201527027a7262c9021a420a4a71027a91023a7ab60791b60408201526060019056fea2646970667358221220412a7795c50caf1b1195fe78c3837747106f3f7f32721466446da081ef42949164736f6c63430008090033",
  "devdoc": {
    "kind": "dev",
    "methods": {},
    "version": 1
  },
  "userdoc": {
    "kind": "user",
    "methods": {},
    "version": 1
  },
  "storageLayout": {
    "storage": [
      {
        "astId": 76,
        "contract": "contracts/xChainFed.sol:xChainFed",
        "label": "chair",
        "offset": 0,
        "slot": "0",
        "type": "t_address"
      },
      {
        "astId": 237,
        "contract": "contracts/xChainFed.sol:xChainFed",
        "label": "dstBoard",
        "offset": 0,
        "slot": "1",
        "type": "t_address"
      },
      {
        "astId": 239,
        "contract": "contracts/xChainFed.sol:xChainFed",
        "label": "dstSupply",
        "offset": 0,
        "slot": "2",
        "type": "t_uint256"
      },
      {
        "astId": 241,
        "contract": "contracts/xChainFed.sol:xChainFed",
        "label": "dstLastSuspendTimestamp",
        "offset": 0,
        "slot": "3",
        "type": "t_uint256"
      }
    ],
    "types": {
      "t_address": {
        "encoding": "inplace",
        "label": "address",
        "numberOfBytes": "20"
      },
      "t_uint256": {
        "encoding": "inplace",
        "label": "uint256",
        "numberOfBytes": "32"
      }
    }
  }
}