{
  "address": "0x856AF224DAA02C3C8DD49A97eC3C016a7D048f72",
  "abi": [
    {
      "inputs": [
        {
          "internalType": "address",
          "name": "underlying_",
          "type": "address"
        },
        {
          "internalType": "contract ComptrollerInterface",
          "name": "comptroller_",
          "type": "address"
        },
        {
          "internalType": "string",
          "name": "name_",
          "type": "string"
        },
        {
          "internalType": "string",
          "name": "symbol_",
          "type": "string"
        },
        {
          "internalType": "uint8",
          "name": "decimals_",
          "type": "uint8"
        },
        {
          "internalType": "address payable",
          "name": "admin_",
          "type": "address"
        }
      ],
      "payable": false,
      "stateMutability": "nonpayable",
      "type": "constructor"
    },
    {
      "anonymous": false,
      "inputs": [
        {
          "indexed": true,
          "internalType": "address",
          "name": "delegator",
          "type": "address"
        },
        {
          "indexed": true,
          "internalType": "address",
          "name": "fromDelegate",
          "type": "address"
        },
        {
          "indexed": true,
          "internalType": "address",
          "name": "toDelegate",
          "type": "address"
        }
      ],
      "name": "DelegateChanged",
      "type": "event"
    },
    {
      "anonymous": false,
      "inputs": [
        {
          "indexed": true,
          "internalType": "address",
          "name": "delegate",
          "type": "address"
        },
        {
          "indexed": false,
          "internalType": "uint256",
          "name": "previousBalance",
          "type": "uint256"
        },
        {
          "indexed": false,
          "internalType": "uint256",
          "name": "newBalance",
          "type": "uint256"
        }
      ],
      "name": "DelegateVotesChanged",
      "type": "event"
    },
    {
      "anonymous": false,
      "inputs": [
        {
          "indexed": false,
          "internalType": "uint256",
          "name": "error",
          "type": "uint256"
        },
        {
          "indexed": false,
          "internalType": "uint256",
          "name": "info",
          "type": "uint256"
        },
        {
          "indexed": false,
          "internalType": "uint256",
          "name": "detail",
          "type": "uint256"
        }
      ],
      "name": "Failure",
      "type": "event"
    },
    {
      "anonymous": false,
      "inputs": [
        {
          "indexed": false,
          "internalType": "address",
          "name": "minter",
          "type": "address"
        },
        {
          "indexed": false,
          "internalType": "uint256",
          "name": "mintAmount",
          "type": "uint256"
        },
        {
          "indexed": false,
          "internalType": "uint256",
          "name": "mintTokens",
          "type": "uint256"
        }
      ],
      "name": "Mint",
      "type": "event"
    },
    {
      "anonymous": false,
      "inputs": [
        {
          "indexed": false,
          "internalType": "address",
          "name": "oldAdmin",
          "type": "address"
        },
        {
          "indexed": false,
          "internalType": "address",
          "name": "newAdmin",
          "type": "address"
        }
      ],
      "name": "NewAdmin",
      "type": "event"
    },
    {
      "anonymous": false,
      "inputs": [
        {
          "indexed": false,
          "internalType": "contract ComptrollerInterface",
          "name": "oldComptroller",
          "type": "address"
        },
        {
          "indexed": false,
          "internalType": "contract ComptrollerInterface",
          "name": "newComptroller",
          "type": "address"
        }
      ],
      "name": "NewComptroller",
      "type": "event"
    },
    {
      "anonymous": false,
      "inputs": [
        {
          "indexed": false,
          "internalType": "address",
          "name": "oldPendingAdmin",
          "type": "address"
        },
        {
          "indexed": false,
          "internalType": "address",
          "name": "newPendingAdmin",
          "type": "address"
        }
      ],
      "name": "NewPendingAdmin",
      "type": "event"
    },
    {
      "anonymous": false,
      "inputs": [
        {
          "indexed": false,
          "internalType": "address",
          "name": "redeemer",
          "type": "address"
        },
        {
          "indexed": false,
          "internalType": "uint256",
          "name": "redeemAmount",
          "type": "uint256"
        },
        {
          "indexed": false,
          "internalType": "uint256",
          "name": "redeemTokens",
          "type": "uint256"
        }
      ],
      "name": "Redeem",
      "type": "event"
    },
    {
      "anonymous": false,
      "inputs": [
        {
          "indexed": true,
          "internalType": "address",
          "name": "from",
          "type": "address"
        },
        {
          "indexed": true,
          "internalType": "address",
          "name": "to",
          "type": "address"
        },
        {
          "indexed": false,
          "internalType": "uint256",
          "name": "amount",
          "type": "uint256"
        }
      ],
      "name": "Transfer",
      "type": "event"
    },
    {
      "constant": true,
      "inputs": [],
      "name": "DELEGATION_TYPEHASH",
      "outputs": [
        {
          "internalType": "bytes32",
          "name": "",
          "type": "bytes32"
        }
      ],
      "payable": false,
      "stateMutability": "view",
      "type": "function"
    },
    {
      "constant": true,
      "inputs": [],
      "name": "DOMAIN_TYPEHASH",
      "outputs": [
        {
          "internalType": "bytes32",
          "name": "",
          "type": "bytes32"
        }
      ],
      "payable": false,
      "stateMutability": "view",
      "type": "function"
    },
    {
      "constant": false,
      "inputs": [],
      "name": "_acceptAdmin",
      "outputs": [
        {
          "internalType": "uint256",
          "name": "",
          "type": "uint256"
        }
      ],
      "payable": false,
      "stateMutability": "nonpayable",
      "type": "function"
    },
    {
      "constant": false,
      "inputs": [
        {
          "internalType": "contract ComptrollerInterface",
          "name": "newComptroller",
          "type": "address"
        }
      ],
      "name": "_setComptroller",
      "outputs": [
        {
          "internalType": "uint256",
          "name": "",
          "type": "uint256"
        }
      ],
      "payable": false,
      "stateMutability": "nonpayable",
      "type": "function"
    },
    {
      "constant": false,
      "inputs": [
        {
          "internalType": "address payable",
          "name": "newPendingAdmin",
          "type": "address"
        }
      ],
      "name": "_setPendingAdmin",
      "outputs": [
        {
          "internalType": "uint256",
          "name": "",
          "type": "uint256"
        }
      ],
      "payable": false,
      "stateMutability": "nonpayable",
      "type": "function"
    },
    {
      "constant": true,
      "inputs": [],
      "name": "accrualBlockNumber",
      "outputs": [
        {
          "internalType": "uint256",
          "name": "",
          "type": "uint256"
        }
      ],
      "payable": false,
      "stateMutability": "view",
      "type": "function"
    },
    {
      "constant": false,
      "inputs": [],
      "name": "accrueInterest",
      "outputs": [
        {
          "internalType": "uint256",
          "name": "",
          "type": "uint256"
        }
      ],
      "payable": false,
      "stateMutability": "nonpayable",
      "type": "function"
    },
    {
      "constant": true,
      "inputs": [],
      "name": "admin",
      "outputs": [
        {
          "internalType": "address payable",
          "name": "",
          "type": "address"
        }
      ],
      "payable": false,
      "stateMutability": "view",
      "type": "function"
    },
    {
      "constant": true,
      "inputs": [
        {
          "internalType": "address",
          "name": "owner",
          "type": "address"
        }
      ],
      "name": "balanceOf",
      "outputs": [
        {
          "internalType": "uint256",
          "name": "",
          "type": "uint256"
        }
      ],
      "payable": false,
      "stateMutability": "view",
      "type": "function"
    },
    {
      "constant": false,
      "inputs": [
        {
          "internalType": "address",
          "name": "owner",
          "type": "address"
        }
      ],
      "name": "balanceOfUnderlying",
      "outputs": [
        {
          "internalType": "uint256",
          "name": "",
          "type": "uint256"
        }
      ],
      "payable": false,
      "stateMutability": "nonpayable",
      "type": "function"
    },
    {
      "constant": true,
      "inputs": [
        {
          "internalType": "address",
          "name": "",
          "type": "address"
        },
        {
          "internalType": "uint32",
          "name": "",
          "type": "uint32"
        }
      ],
      "name": "checkpoints",
      "outputs": [
        {
          "internalType": "uint32",
          "name": "fromBlock",
          "type": "uint32"
        },
        {
          "internalType": "uint96",
          "name": "votes",
          "type": "uint96"
        }
      ],
      "payable": false,
      "stateMutability": "view",
      "type": "function"
    },
    {
      "constant": true,
      "inputs": [],
      "name": "comptroller",
      "outputs": [
        {
          "internalType": "contract ComptrollerInterface",
          "name": "",
          "type": "address"
        }
      ],
      "payable": false,
      "stateMutability": "view",
      "type": "function"
    },
    {
      "constant": true,
      "inputs": [],
      "name": "decimals",
      "outputs": [
        {
          "internalType": "uint8",
          "name": "",
          "type": "uint8"
        }
      ],
      "payable": false,
      "stateMutability": "view",
      "type": "function"
    },
    {
      "constant": false,
      "inputs": [
        {
          "internalType": "address",
          "name": "delegatee",
          "type": "address"
        }
      ],
      "name": "delegate",
      "outputs": [],
      "payable": false,
      "stateMutability": "nonpayable",
      "type": "function"
    },
    {
      "constant": false,
      "inputs": [
        {
          "internalType": "address",
          "name": "delegatee",
          "type": "address"
        },
        {
          "internalType": "uint256",
          "name": "nonce",
          "type": "uint256"
        },
        {
          "internalType": "uint256",
          "name": "expiry",
          "type": "uint256"
        },
        {
          "internalType": "uint8",
          "name": "v",
          "type": "uint8"
        },
        {
          "internalType": "bytes32",
          "name": "r",
          "type": "bytes32"
        },
        {
          "internalType": "bytes32",
          "name": "s",
          "type": "bytes32"
        }
      ],
      "name": "delegateBySig",
      "outputs": [],
      "payable": false,
      "stateMutability": "nonpayable",
      "type": "function"
    },
    {
      "constant": true,
      "inputs": [
        {
          "internalType": "address",
          "name": "",
          "type": "address"
        }
      ],
      "name": "delegates",
      "outputs": [
        {
          "internalType": "address",
          "name": "",
          "type": "address"
        }
      ],
      "payable": false,
      "stateMutability": "view",
      "type": "function"
    },
    {
      "constant": true,
      "inputs": [],
      "name": "escrow",
      "outputs": [
        {
          "internalType": "contract TimelockEscrow",
          "name": "",
          "type": "address"
        }
      ],
      "payable": false,
      "stateMutability": "view",
      "type": "function"
    },
    {
      "constant": false,
      "inputs": [],
      "name": "exchangeRateCurrent",
      "outputs": [
        {
          "internalType": "uint256",
          "name": "",
          "type": "uint256"
        }
      ],
      "payable": false,
      "stateMutability": "nonpayable",
      "type": "function"
    },
    {
      "constant": true,
      "inputs": [],
      "name": "exchangeRateStored",
      "outputs": [
        {
          "internalType": "uint256",
          "name": "",
          "type": "uint256"
        }
      ],
      "payable": false,
      "stateMutability": "view",
      "type": "function"
    },
    {
      "constant": true,
      "inputs": [
        {
          "internalType": "address",
          "name": "account",
          "type": "address"
        }
      ],
      "name": "getAccountSnapshot",
      "outputs": [
        {
          "internalType": "uint256",
          "name": "",
          "type": "uint256"
        },
        {
          "internalType": "uint256",
          "name": "",
          "type": "uint256"
        },
        {
          "internalType": "uint256",
          "name": "",
          "type": "uint256"
        },
        {
          "internalType": "uint256",
          "name": "",
          "type": "uint256"
        }
      ],
      "payable": false,
      "stateMutability": "view",
      "type": "function"
    },
    {
      "constant": true,
      "inputs": [],
      "name": "getCash",
      "outputs": [
        {
          "internalType": "uint256",
          "name": "",
          "type": "uint256"
        }
      ],
      "payable": false,
      "stateMutability": "view",
      "type": "function"
    },
    {
      "constant": true,
      "inputs": [
        {
          "internalType": "address",
          "name": "account",
          "type": "address"
        }
      ],
      "name": "getCurrentVotes",
      "outputs": [
        {
          "internalType": "uint96",
          "name": "",
          "type": "uint96"
        }
      ],
      "payable": false,
      "stateMutability": "view",
      "type": "function"
    },
    {
      "constant": true,
      "inputs": [
        {
          "internalType": "address",
          "name": "account",
          "type": "address"
        },
        {
          "internalType": "uint256",
          "name": "blockNumber",
          "type": "uint256"
        }
      ],
      "name": "getPriorVotes",
      "outputs": [
        {
          "internalType": "uint96",
          "name": "",
          "type": "uint96"
        }
      ],
      "payable": false,
      "stateMutability": "view",
      "type": "function"
    },
    {
      "constant": true,
      "inputs": [],
      "name": "isCToken",
      "outputs": [
        {
          "internalType": "bool",
          "name": "",
          "type": "bool"
        }
      ],
      "payable": false,
      "stateMutability": "view",
      "type": "function"
    },
    {
      "constant": false,
      "inputs": [
        {
          "internalType": "uint256",
          "name": "mintAmount",
          "type": "uint256"
        }
      ],
      "name": "mint",
      "outputs": [
        {
          "internalType": "uint256",
          "name": "",
          "type": "uint256"
        }
      ],
      "payable": false,
      "stateMutability": "nonpayable",
      "type": "function"
    },
    {
      "constant": true,
      "inputs": [],
      "name": "name",
      "outputs": [
        {
          "internalType": "string",
          "name": "",
          "type": "string"
        }
      ],
      "payable": false,
      "stateMutability": "view",
      "type": "function"
    },
    {
      "constant": true,
      "inputs": [
        {
          "internalType": "address",
          "name": "",
          "type": "address"
        }
      ],
      "name": "nonces",
      "outputs": [
        {
          "internalType": "uint256",
          "name": "",
          "type": "uint256"
        }
      ],
      "payable": false,
      "stateMutability": "view",
      "type": "function"
    },
    {
      "constant": true,
      "inputs": [
        {
          "internalType": "address",
          "name": "",
          "type": "address"
        }
      ],
      "name": "numCheckpoints",
      "outputs": [
        {
          "internalType": "uint32",
          "name": "",
          "type": "uint32"
        }
      ],
      "payable": false,
      "stateMutability": "view",
      "type": "function"
    },
    {
      "constant": true,
      "inputs": [],
      "name": "pendingAdmin",
      "outputs": [
        {
          "internalType": "address payable",
          "name": "",
          "type": "address"
        }
      ],
      "payable": false,
      "stateMutability": "view",
      "type": "function"
    },
    {
      "constant": false,
      "inputs": [
        {
          "internalType": "uint256",
          "name": "redeemTokens",
          "type": "uint256"
        }
      ],
      "name": "redeem",
      "outputs": [
        {
          "internalType": "uint256",
          "name": "",
          "type": "uint256"
        }
      ],
      "payable": false,
      "stateMutability": "nonpayable",
      "type": "function"
    },
    {
      "constant": false,
      "inputs": [
        {
          "internalType": "uint256",
          "name": "redeemAmount",
          "type": "uint256"
        }
      ],
      "name": "redeemUnderlying",
      "outputs": [
        {
          "internalType": "uint256",
          "name": "",
          "type": "uint256"
        }
      ],
      "payable": false,
      "stateMutability": "nonpayable",
      "type": "function"
    },
    {
      "constant": false,
      "inputs": [
        {
          "internalType": "address",
          "name": "liquidator",
          "type": "address"
        },
        {
          "internalType": "address",
          "name": "borrower",
          "type": "address"
        },
        {
          "internalType": "uint256",
          "name": "seizeTokens",
          "type": "uint256"
        }
      ],
      "name": "seize",
      "outputs": [
        {
          "internalType": "uint256",
          "name": "",
          "type": "uint256"
        }
      ],
      "payable": false,
      "stateMutability": "nonpayable",
      "type": "function"
    },
    {
      "constant": true,
      "inputs": [],
      "name": "symbol",
      "outputs": [
        {
          "internalType": "string",
          "name": "",
          "type": "string"
        }
      ],
      "payable": false,
      "stateMutability": "view",
      "type": "function"
    },
    {
      "constant": true,
      "inputs": [],
      "name": "totalSupply",
      "outputs": [
        {
          "internalType": "uint256",
          "name": "",
          "type": "uint256"
        }
      ],
      "payable": false,
      "stateMutability": "view",
      "type": "function"
    },
    {
      "constant": true,
      "inputs": [],
      "name": "underlying",
      "outputs": [
        {
          "internalType": "address",
          "name": "",
          "type": "address"
        }
      ],
      "payable": false,
      "stateMutability": "view",
      "type": "function"
    }
  ],
  "transactionHash": "0x747fb076d3f9cec5618c205ef919dd48cc4304e44a57483c544b879c6e1b6a4f",
  "args": [
    "0xA11f04EFa86C3b32680dC9C2b9D43889E2B8136c",
    "0xa92C7168D0304d8463CA1805E614E4Cd8c476505",
    "XINV",
    "XINV",
    18,
    "0x5656ab2fAe8522b8148478528DDa4ff89075f6E7"
  ],
  "solcInputHash": "a3437f6b2972eb967df9ae585e1f7a28",
  "bytecode": "0x60806040523480156200001157600080fd5b506040516200441538038062004415833981810160405260c08110156200003757600080fd5b815160208301516040808501805191519395929483019291846401000000008211156200006357600080fd5b9083019060208201858111156200007957600080fd5b82516401000000008111828201881017156200009457600080fd5b82525081516020918201929091019080838360005b83811015620000c3578181015183820152602001620000a9565b50505050905090810190601f168015620000f15780820380516001836020036101000a031916815260200191505b50604052602001805160405193929190846401000000008211156200011557600080fd5b9083019060208201858111156200012b57600080fd5b82516401000000008111828201881017156200014657600080fd5b82525081516020918201929091019080838360005b83811015620001755781810151838201526020016200015b565b50505050905090810190601f168015620001a35780820380516001836020036101000a031916815260200191505b506040908152602082810151929091015160038054610100600160a81b0319163361010002179055919350909150620001f7908690670de0b6b3a76400009087908790879062000316811b6200302117901c565b600e80546001600160a01b0319166001600160a01b038881169190911791829055604080516318160ddd60e01b8152905192909116916318160ddd91600480820192602092909190829003018186803b1580156200025457600080fd5b505afa15801562000269573d6000803e3d6000fd5b505050506040513d60208110156200028057600080fd5b505060038054610100600160a81b0319166101006001600160a01b0384160217905560405186908290620002b4906200063d565b6001600160a01b03928316815291166020820152604080519182900301906000f080158015620002e8573d6000803e3d6000fd5b50600f80546001600160a01b0319166001600160a01b039290921691909117905550620006f0945050505050565b60035461010090046001600160a01b03163314620003665760405162461bcd60e51b8152600401808060200182810382526024815260200180620043c16024913960400191505060405180910390fd5b600684905583620003a95760405162461bcd60e51b8152600401808060200182810382526030815260200180620043e56030913960400191505060405180910390fd5b6000620003bf866001600160e01b036200046616565b9050801562000415576040805162461bcd60e51b815260206004820152601a60248201527f73657474696e6720636f6d7074726f6c6c6572206661696c6564000000000000604482015290519081900360640190fd5b83516200042a9060019060208701906200064b565b508251620004409060029060208601906200064b565b50506003805460ff90921660ff1992831617905560008054909116600117905550505050565b60035460009061010090046001600160a01b03163314620004a057620004986001603f6001600160e01b03620005cd16565b9050620005c8565b60055460408051623f1ee960e11b815290516001600160a01b0392831692851691627e3dd2916004808301926020929190829003018186803b158015620004e657600080fd5b505afa158015620004fb573d6000803e3d6000fd5b505050506040513d60208110156200051257600080fd5b505162000566576040805162461bcd60e51b815260206004820152601c60248201527f6d61726b6572206d6574686f642072657475726e65642066616c736500000000604482015290519081900360640190fd5b600580546001600160a01b0319166001600160a01b03858116918217909255604080519284168352602083019190915280517f7ac369dbd14fa5ea3f473ed67cc9d598964a77501540ba6751eb0b3decf5870d9281900390910190a160009150505b919050565b60007f45b96fe442630264581b197e84bbada861235052c5a1aadfff9ea4e40a969aa0836010811115620005fd57fe5b8360508111156200060a57fe5b604080519283526020830191909152600082820152519081900360600190a18260108111156200063657fe5b9392505050565b6107d68062003beb83390190565b828054600181600116156101000203166002900490600052602060002090601f016020900481019282601f106200068e57805160ff1916838001178555620006be565b82800160010185558215620006be579182015b82811115620006be578251825591602001919060010190620006a1565b50620006cc929150620006d0565b5090565b620006ed91905b80821115620006cc5760008155600101620006d7565b90565b6134eb80620007006000396000f3fe608060405234801561001057600080fd5b50600436106102115760003560e01c80637ecebe0011610125578063c37f68e2116100ad578063e7a324dc1161007c578063e7a324dc14610618578063e9c714f214610620578063f1127ed814610628578063f851a44014610682578063fe9c44ae1461068a57610211565b8063c37f68e214610560578063c3cda520146105ac578063db006a75146105f3578063e2fdcc171461061057610211565b8063a6afed95116100f4578063a6afed95146104ce578063b2a02ff1146104d6578063b4b5ea571461050c578063b71d1a0c14610532578063bd6d894d1461055857610211565b80637ecebe0014610466578063852a12e31461048c57806395d89b41146104a9578063a0712d68146104b157610211565b80634576b5db116101a85780636c540baf116101775780636c540baf146103a95780636f307dc3146103b15780636fcfff45146103b957806370a08231146103f8578063782d6fe11461041e57610211565b80634576b5db1461032d578063587cde1e146103535780635c19a95c146103795780635fe3b567146103a157610211565b806326782247116101e457806326782247146102bd578063313ce567146102e15780633af9e669146102ff5780633b1d21a21461032557610211565b806306fdde031461021657806318160ddd14610293578063182df0f5146102ad57806320606b70146102b5575b600080fd5b61021e6106a6565b6040805160208082528351818301528351919283929083019185019080838360005b83811015610258578181015183820152602001610240565b50505050905090810190601f1680156102855780820380516001836020036101000a031916815260200191505b509250505060405180910390f35b61029b610733565b60408051918252519081900360200190f35b61029b610739565b61029b61079c565b6102c56107b7565b604080516001600160a01b039092168252519081900360200190f35b6102e96107c6565b6040805160ff9092168252519081900360200190f35b61029b6004803603602081101561031557600080fd5b50356001600160a01b03166107cf565b61029b610887565b61029b6004803603602081101561034357600080fd5b50356001600160a01b0316610896565b6102c56004803603602081101561036957600080fd5b50356001600160a01b03166109eb565b61039f6004803603602081101561038f57600080fd5b50356001600160a01b0316610a06565b005b6102c5610a13565b61029b610a22565b6102c5610a28565b6103df600480360360208110156103cf57600080fd5b50356001600160a01b0316610a37565b6040805163ffffffff9092168252519081900360200190f35b61029b6004803603602081101561040e57600080fd5b50356001600160a01b0316610a4f565b61044a6004803603604081101561043457600080fd5b506001600160a01b038135169060200135610a6a565b604080516001600160601b039092168252519081900360200190f35b61029b6004803603602081101561047c57600080fd5b50356001600160a01b0316610c98565b61029b600480360360208110156104a257600080fd5b5035610caa565b61021e610cb7565b61029b600480360360208110156104c757600080fd5b5035610d0f565b61029b610dd5565b61029b600480360360608110156104ec57600080fd5b506001600160a01b03813581169160208101359091169060400135610dde565b61044a6004803603602081101561052257600080fd5b50356001600160a01b0316610e4f565b61029b6004803603602081101561054857600080fd5b50356001600160a01b0316610ec1565b61029b610f4d565b6105866004803603602081101561057657600080fd5b50356001600160a01b0316610fb6565b604080519485526020850193909352838301919091526060830152519081900360800190f35b61039f600480360360c08110156105c257600080fd5b506001600160a01b038135169060208101359060408101359060ff6060820135169060808101359060a00135611023565b61029b6004803603602081101561060957600080fd5b50356112f4565b6102c5611301565b61029b611310565b61029b61132b565b61065a6004803603604081101561063e57600080fd5b5080356001600160a01b0316906020013563ffffffff1661142e565b6040805163ffffffff90931683526001600160601b0390911660208301528051918290030190f35b6102c5611463565b610692611477565b604080519115158252519081900360200190f35b60018054604080516020600284861615610100026000190190941693909304601f8101849004840282018401909252818152929183018282801561072b5780601f106107005761010080835404028352916020019161072b565b820191906000526020600020905b81548152906001019060200180831161070e57829003601f168201915b505050505081565b60085481565b600080600061074661147c565b9092509050600082600381111561075957fe5b146107955760405162461bcd60e51b815260040180806020018281038252603581526020018061337d6035913960400191505060405180910390fd5b9150505b90565b6040518060436132c182396043019050604051809103902081565b6004546001600160a01b031681565b60035460ff1681565b60006107d9612fb9565b60405180602001604052806107ec610f4d565b90526001600160a01b0384166000908152600960205260408120549192509081906108189084906114f1565b9092509050600082600381111561082b57fe5b1461087d576040805162461bcd60e51b815260206004820152601f60248201527f62616c616e636520636f756c64206e6f742062652063616c63756c6174656400604482015290519081900360640190fd5b925050505b919050565b6000610891611545565b905090565b60035460009061010090046001600160a01b031633146108c3576108bc6001603f6115c5565b9050610882565b60055460408051623f1ee960e11b815290516001600160a01b0392831692851691627e3dd2916004808301926020929190829003018186803b15801561090857600080fd5b505afa15801561091c573d6000803e3d6000fd5b505050506040513d602081101561093257600080fd5b5051610985576040805162461bcd60e51b815260206004820152601c60248201527f6d61726b6572206d6574686f642072657475726e65642066616c736500000000604482015290519081900360640190fd5b600580546001600160a01b0319166001600160a01b03858116918217909255604080519284168352602083019190915280517f7ac369dbd14fa5ea3f473ed67cc9d598964a77501540ba6751eb0b3decf5870d9281900390910190a160005b9392505050565b600a602052600090815260409020546001600160a01b031681565b610a10338261162b565b50565b6005546001600160a01b031681565b60075481565b600e546001600160a01b031681565b600c6020526000908152604090205463ffffffff1681565b6001600160a01b031660009081526009602052604090205490565b6000438210610aaa5760405162461bcd60e51b815260040180806020018281038252602681526020018061321a6026913960400191505060405180910390fd5b6001600160a01b0383166000908152600c602052604090205463ffffffff1680610ad8576000915050610c92565b6001600160a01b0384166000908152600b6020908152604080832063ffffffff600019860181168552925290912054168310610b54576001600160a01b0384166000908152600b602090815260408083206000199490940163ffffffff1683529290522054600160201b90046001600160601b03169050610c92565b6001600160a01b0384166000908152600b6020908152604080832083805290915290205463ffffffff16831015610b8f576000915050610c92565b600060001982015b8163ffffffff168163ffffffff161115610c5257600282820363ffffffff16048103610bc1612fcc565b506001600160a01b0387166000908152600b6020908152604080832063ffffffff858116855290835292819020815180830190925254928316808252600160201b9093046001600160601b03169181019190915290871415610c2d57602001519450610c929350505050565b805163ffffffff16871115610c4457819350610c4b565b6001820392505b5050610b97565b506001600160a01b0385166000908152600b6020908152604080832063ffffffff909416835292905220546001600160601b03600160201b909104169150505b92915050565b600d6020526000908152604090205481565b6000610c928260016116ab565b6002805460408051602060018416156101000260001901909316849004601f8101849004840282018401909252818152929183018282801561072b5780601f106107005761010080835404028352916020019161072b565b600080610d1b8361171c565b50336000908152600a60205260409020549091506001600160a01b0316610c9257600e5460408051632c3e6f0f60e11b815233600482015290516000926001600160a01b03169163587cde1e916024808301926020929190829003018186803b158015610d8757600080fd5b505afa158015610d9b573d6000803e3d6000fd5b505050506040513d6020811015610db157600080fd5b505190506001600160a01b03811615610dce57610dce338261162b565b5092915050565b43600755600090565b6000805460ff16610e23576040805162461bcd60e51b815260206004820152600a6024820152691c994b595b9d195c995960b21b604482015290519081900360640190fd5b6000805460ff19169055610e393385858561178f565b90506000805460ff191660011790559392505050565b6001600160a01b0381166000908152600c602052604081205463ffffffff1680610e7a5760006109e4565b6001600160a01b0383166000908152600b6020908152604080832063ffffffff60001986011684529091529020546001600160601b03600160201b90910416915050919050565b60035460009061010090046001600160a01b03163314610ee7576108bc600160456115c5565b600480546001600160a01b038481166001600160a01b0319831681179093556040805191909216808252602082019390935281517fca4f2f25d0898edd99413412fb94012f9e54ec8142f9b093e7720646a95b16a9929181900390910190a160006109e4565b6000805460ff16610f92576040805162461bcd60e51b815260206004820152600a6024820152691c994b595b9d195c995960b21b604482015290519081900360640190fd5b6000805460ff19169055610fa4610739565b90506000805460ff1916600117905590565b6001600160a01b0381166000908152600960205260408120548190819081908180610fdf61147c565b925090506000816003811115610ff157fe5b1461100d57600996506000955085945084935061101c92505050565b60009650919450600093509150505b9193509193565b600060405180806132c160439139604301905060405180910390206001604051808280546001816001161561010002031660029004801561109b5780601f1061107957610100808354040283529182019161109b565b820191906000526020600020905b815481529060010190602001808311611087575b505091505060405180910390206110b0611a28565b3060405160200180858152602001848152602001838152602001826001600160a01b03166001600160a01b03168152602001945050505050604051602081830303815290604052805190602001209050600060405180806133da603a91396040805191829003603a0182206020808401919091526001600160a01b038c1683830152606083018b905260808084018b90528251808503909101815260a08401835280519082012061190160f01b60c085015260c2840187905260e2808501829052835180860390910181526101028501808552815191840191909120600091829052610122860180865281905260ff8c1661014287015261016286018b905261018286018a9052935191965092945091926001926101a28083019392601f198301929081900390910190855afa1580156111ee573d6000803e3d6000fd5b5050604051601f1901519150506001600160a01b0381166112405760405162461bcd60e51b81526004018080602001828103825260258152602001806133586025913960400191505060405180910390fd5b6001600160a01b0381166000908152600d60205260409020805460018101909155891461129e5760405162461bcd60e51b81526004018080602001828103825260218152602001806133046021913960400191505060405180910390fd5b874211156112dd5760405162461bcd60e51b81526004018080602001828103825260258152602001806134486025913960400191505060405180910390fd5b6112e7818b61162b565b505050505b505050505050565b6000610c92826001611a2c565b600f546001600160a01b031681565b60405180603a6133da8239603a019050604051809103902081565b6004546000906001600160a01b031633141580611346575033155b1561135e57611357600160006115c5565b9050610799565b60038054600480546001600160a01b03818116610100818102610100600160a81b0319871617968790556001600160a01b031990931690935560408051948390048216808652929095041660208401528351909391927ff9ffabca9c8276e99321725bcb43fb076a6c66a54b7f21c4e8146d8519b417dc92908290030190a1600454604080516001600160a01b038085168252909216602083015280517fca4f2f25d0898edd99413412fb94012f9e54ec8142f9b093e7720646a95b16a99281900390910190a160009250505090565b600b60209081526000928352604080842090915290825290205463ffffffff811690600160201b90046001600160601b031682565b60035461010090046001600160a01b031681565b600181565b600854600090819080611497575050600654600091506114ed565b60006114a1611545565b90506114ab612fb9565b60006114b78385611a89565b9250905060008160038111156114c957fe5b146114dd579450600093506114ed92505050565b50516000945092506114ed915050565b9091565b60008060006114fe612fb9565b6115088686611b39565b9092509050600082600381111561151b57fe5b1461152c575091506000905061153e565b600061153782611ba1565b9350935050505b9250929050565b600e54604080516370a0823160e01b815230600482015290516000926001600160a01b03169182916370a0823191602480820192602092909190829003018186803b15801561159357600080fd5b505afa1580156115a7573d6000803e3d6000fd5b505050506040513d60208110156115bd57600080fd5b505191505090565b60007f45b96fe442630264581b197e84bbada861235052c5a1aadfff9ea4e40a969aa08360108111156115f457fe5b83605081111561160057fe5b604080519283526020830191909152600082820152519081900360600190a18260108111156109e457fe5b6001600160a01b038083166000818152600a6020818152604080842080546009845282862054949093528787166001600160a01b03198416811790915590519190951694919391928592917f3134e8a2e6d97e929a7e54011ea5485d7d196dd5f0ba4d4ef95803e8e3fc257f9190a46116a5828483611bb0565b50505050565b6000805460ff166116f0576040805162461bcd60e51b815260206004820152600a6024820152691c994b595b9d195c995960b21b604482015290519081900360640190fd5b6000805460ff191681556117079033908585611d47565b90506000805460ff1916600117905592915050565b60008054819060ff16611763576040805162461bcd60e51b815260206004820152600a6024820152691c994b595b9d195c995960b21b604482015290519081900360640190fd5b6000805460ff19169055611777338461220e565b915091506000805460ff191660011790559092909150565b6005546040805163d02f735160e01b81523060048201526001600160a01b038781166024830152868116604483015285811660648301526084820185905291516000938493169163d02f73519160a480830192602092919082900301818787803b1580156117fc57600080fd5b505af1158015611810573d6000803e3d6000fd5b505050506040513d602081101561182657600080fd5b5051905080156118455761183d6003601b836126b9565b915050611a20565b846001600160a01b0316846001600160a01b0316141561186b5761183d6006601c6115c5565b6001600160a01b03841660009081526009602052604081205481908190611892908761271f565b909350915060008360038111156118a557fe5b146118cd576118c26009601a8560038111156118bd57fe5b6126b9565b945050505050611a20565b6001600160a01b0388166000908152600960205260409020546118f09087612742565b9093509050600083600381111561190357fe5b1461191b576118c2600960198560038111156118bd57fe5b6001600160a01b038088166000818152600960209081526040808320879055938c168083529184902085905583518a8152935191937fddf252ad1be2c89b69c2b068fc378daa952ba7f163c4a11628f55a4df523b3ef929081900390910190a3611986878988611bb0565b60055460408051636d35bf9160e01b81523060048201526001600160a01b038c811660248301528b811660448301528a81166064830152608482018a905291519190921691636d35bf919160a480830192600092919082900301818387803b1580156119f157600080fd5b505af1158015611a05573d6000803e3d6000fd5b50505050611a168887600080611d47565b5060009450505050505b949350505050565b4690565b6000805460ff16611a71576040805162461bcd60e51b815260206004820152600a6024820152691c994b595b9d195c995960b21b604482015290519081900360640190fd5b6000805460ff19168155611707903390859085611d47565b6000611a93612fb9565b600080611aa886670de0b6b3a7640000612768565b90925090506000826003811115611abb57fe5b14611ada5750604080516020810190915260008152909250905061153e565b600080611ae783886127a7565b90925090506000826003811115611afa57fe5b14611b1c5750604080516020810190915260008152909450925061153e915050565b604080516020810190915290815260009890975095505050505050565b6000611b43612fb9565b600080611b54866000015186612768565b90925090506000826003811115611b6757fe5b14611b865750604080516020810190915260008152909250905061153e565b60408051602081019091529081526000969095509350505050565b51670de0b6b3a7640000900490565b816001600160a01b0316836001600160a01b031614158015611bdb57506000816001600160601b0316115b15611d42576001600160a01b03831615611c93576001600160a01b0383166000908152600c602052604081205463ffffffff169081611c1b576000611c5a565b6001600160a01b0385166000908152600b60209081526040808320600019860163ffffffff168452909152902054600160201b90046001600160601b03165b90506000611c818285604051806060016040528060278152602001613490602791396127d2565b9050611c8f8684848461287c565b5050505b6001600160a01b03821615611d42576001600160a01b0382166000908152600c602052604081205463ffffffff169081611cce576000611d0d565b6001600160a01b0384166000908152600b60209081526040808320600019860163ffffffff168452909152902054600160201b90046001600160601b03165b90506000611d34828560405180606001604052806026815260200161324060269139612a3b565b90506112ec8584848461287c565b505050565b6000831580611d54575082155b611d8f5760405162461bcd60e51b81526004018080602001828103825260348152602001806134146034913960400191505060405180910390fd5b611d97612fe3565b611d9f61147c565b6040830181905260208301826003811115611db657fe5b6003811115611dc157fe5b9052506000905081602001516003811115611dd857fe5b14611df45761183d6009602b836020015160038111156118bd57fe5b8415611e75576060810185905260408051602081018252908201518152611e1b90866114f1565b6080830181905260208301826003811115611e3257fe5b6003811115611e3d57fe5b9052506000905081602001516003811115611e5457fe5b14611e705761183d60096029836020015160038111156118bd57fe5b611eee565b611e918460405180602001604052808460400151815250612aa5565b6060830181905260208301826003811115611ea857fe5b6003811115611eb357fe5b9052506000905081602001516003811115611eca57fe5b14611ee65761183d6009602a836020015160038111156118bd57fe5b608081018490525b60055460608201516040805163eabe7d9160e01b81523060048201526001600160a01b038a8116602483015260448201939093529051600093929092169163eabe7d919160648082019260209290919082900301818787803b158015611f5357600080fd5b505af1158015611f67573d6000803e3d6000fd5b505050506040513d6020811015611f7d57600080fd5b505190508015611f9d57611f9460036028836126b9565b92505050611a20565b611fad600854836060015161271f565b60a0840181905260208401826003811115611fc457fe5b6003811115611fcf57fe5b9052506000905082602001516003811115611fe657fe5b1461200257611f946009602e846020015160038111156118bd57fe5b6001600160a01b038716600090815260096020526040902054606083015161202a919061271f565b60c084018190526020840182600381111561204157fe5b600381111561204c57fe5b905250600090508260200151600381111561206357fe5b1461207f57611f946009602d846020015160038111156118bd57fe5b816080015161208c611545565b101561209e57611f94600e602f6115c5565b6120ad87836080015186612abc565b60a082015160085560c08201516001600160a01b0388166000818152600960209081526040918290209390935560608501518151908152905130937fddf252ad1be2c89b69c2b068fc378daa952ba7f163c4a11628f55a4df523b3ef928290030190a36080820151606080840151604080516001600160a01b038c168152602081019490945283810191909152517fe5b754fb1abb7f01b499791d0b820ae3b6af3424ac1c59768edb53f4ec31a9299281900390910190a16121758760008460600151611bb0565b60055460808301516060840151604080516351dff98960e01b81523060048201526001600160a01b038c81166024830152604482019490945260648101929092525191909216916351dff98991608480830192600092919082900301818387803b1580156121e257600080fd5b505af11580156121f6573d6000803e3d6000fd5b5060009250612203915050565b979650505050505050565b60055460408051634ef4c3e160e01b81523060048201526001600160a01b03858116602483015260448201859052915160009384938493911691634ef4c3e19160648082019260209290919082900301818787803b15801561226f57600080fd5b505af1158015612283573d6000803e3d6000fd5b505050506040513d602081101561229957600080fd5b5051905080156122bd576122b06003601f836126b9565b92506000915061153e9050565b6122c5612fe3565b6122cd61147c565b60408301819052602083018260038111156122e457fe5b60038111156122ef57fe5b905250600090508160200151600381111561230657fe5b146123305761232260096021836020015160038111156118bd57fe5b93506000925061153e915050565b61233a8686612cb3565b60c082018190526040805160208101825290830151815261235b9190612aa5565b606083018190526020830182600381111561237257fe5b600381111561237d57fe5b905250600090508160200151600381111561239457fe5b146123e6576040805162461bcd60e51b815260206004820181905260248201527f4d494e545f45584348414e47455f43414c43554c4154494f4e5f4641494c4544604482015290519081900360640190fd5b6123f66008548260600151612742565b608083018190526020830182600381111561240d57fe5b600381111561241857fe5b905250600090508160200151600381111561242f57fe5b1461246b5760405162461bcd60e51b81526004018080602001828103825260288152602001806133b26028913960400191505060405180910390fd5b600160601b8160800151106124b15760405162461bcd60e51b815260040180806020018281038252602381526020018061346d6023913960400191505060405180910390fd5b6001600160a01b03861660009081526009602052604090205460608201516124d99190612742565b60a08301819052602083018260038111156124f057fe5b60038111156124fb57fe5b905250600090508160200151600381111561251257fe5b1461254e5760405162461bcd60e51b815260040180806020018281038252602b815260200180613296602b913960400191505060405180910390fd5b608081015160085560a08101516001600160a01b0387166000818152600960209081526040918290209390935560c084015160608086015183519485529484019190915282820193909352517f4c209b5fc8ad50758f13e2e1088ba56a560dff690a1c6fef26394f4c03821c4f929181900390910190a1606081015160408051918252516001600160a01b0388169130917fddf252ad1be2c89b69c2b068fc378daa952ba7f163c4a11628f55a4df523b3ef9181900360200190a36126196000878360600151611bb0565b60055460c08201516060830151604080516341c728b960e01b81523060048201526001600160a01b038b81166024830152604482019490945260648101929092525191909216916341c728b991608480830192600092919082900301818387803b15801561268657600080fd5b505af115801561269a573d6000803e3d6000fd5b50600092506126a7915050565b8160c001519350935050509250929050565b60007f45b96fe442630264581b197e84bbada861235052c5a1aadfff9ea4e40a969aa08460108111156126e857fe5b8460508111156126f457fe5b604080519283526020830191909152818101859052519081900360600190a1836010811115611a2057fe5b60008083831161273657506000905081830361153e565b5060039050600061153e565b60008083830184811061275a5760009250905061153e565b50600291506000905061153e565b6000808361277b5750600090508061153e565b8383028385828161278857fe5b041461279c5750600291506000905061153e565b60009250905061153e565b600080826127bb575060019050600061153e565b60008385816127c657fe5b04915091509250929050565b6000836001600160601b0316836001600160601b0316111582906128745760405162461bcd60e51b81526004018080602001828103825283818151815260200191508051906020019080838360005b83811015612839578181015183820152602001612821565b50505050905090810190601f1680156128665780820380516001836020036101000a031916815260200191505b509250505060405180910390fd5b505050900390565b60006128a04360405180606001604052806033815260200161332560339139612efd565b905060008463ffffffff161180156128e957506001600160a01b0385166000908152600b6020908152604080832063ffffffff6000198901811685529252909120548282169116145b15612948576001600160a01b0385166000908152600b60209081526040808320600019880163ffffffff168452909152902080546fffffffffffffffffffffffff000000001916600160201b6001600160601b038516021790556129e7565b60408051808201825263ffffffff80841682526001600160601b0380861660208085019182526001600160a01b038b166000818152600b83528781208c871682528352878120965187549451909516600160201b026fffffffffffffffffffffffff000000001995871663ffffffff19958616179590951694909417909555938252600c90935292909220805460018801909316929091169190911790555b604080516001600160601b0380861682528416602082015281516001600160a01b038816927fdec2bacdd2f05b59de34da9b523dff8be42e5e38e818c82fdb0bae774387a724928290030190a25050505050565b6000838301826001600160601b038087169083161015612a9c5760405162461bcd60e51b8152602060048201818152835160248401528351909283926044909101919085019080838360008315612839578181015183820152602001612821565b50949350505050565b6000806000612ab2612fb9565b6115088686612f5a565b600e546001600160a01b03168115612b4057600f546040805163a9059cbb60e01b81526001600160a01b0392831660048201526024810186905290519183169163a9059cbb9160448082019260009290919082900301818387803b158015612b2357600080fd5b505af1158015612b37573d6000803e3d6000fd5b50505050612bb9565b806001600160a01b031663a9059cbb85856040518363ffffffff1660e01b815260040180836001600160a01b03166001600160a01b0316815260200182815260200192505050600060405180830381600087803b158015612ba057600080fd5b505af1158015612bb4573d6000803e3d6000fd5b505050505b60003d8015612bcf5760208114612bd957600080fd5b6000199150612be5565b60206000803e60005191505b5080612c38576040805162461bcd60e51b815260206004820152601960248201527f544f4b454e5f5452414e534645525f4f55545f4641494c454400000000000000604482015290519081900360640190fd5b8215612cac57600f546040805163177ead8360e11b81526001600160a01b0388811660048301526024820188905291519190921691632efd5b0691604480830192600092919082900301818387803b158015612c9357600080fd5b505af1158015612ca7573d6000803e3d6000fd5b505050505b5050505050565b600e54604080516370a0823160e01b815230600482015290516000926001600160a01b031691839183916370a08231916024808301926020929190829003018186803b158015612d0257600080fd5b505afa158015612d16573d6000803e3d6000fd5b505050506040513d6020811015612d2c57600080fd5b5051604080516323b872dd60e01b81526001600160a01b038881166004830152306024830152604482018890529151929350908416916323b872dd9160648082019260009290919082900301818387803b158015612d8957600080fd5b505af1158015612d9d573d6000803e3d6000fd5b5050505060003d60008114612db95760208114612dc357600080fd5b6000199150612dcf565b60206000803e60005191505b5080612e22576040805162461bcd60e51b815260206004820152601860248201527f544f4b454e5f5452414e534645525f494e5f4641494c45440000000000000000604482015290519081900360640190fd5b600e54604080516370a0823160e01b815230600482015290516000926001600160a01b0316916370a08231916024808301926020929190829003018186803b158015612e6d57600080fd5b505afa158015612e81573d6000803e3d6000fd5b505050506040513d6020811015612e9757600080fd5b5051905082811015612ef0576040805162461bcd60e51b815260206004820152601a60248201527f544f4b454e5f5452414e534645525f494e5f4f564552464c4f57000000000000604482015290519081900360640190fd5b9190910395945050505050565b600081600160201b8410612f525760405162461bcd60e51b8152602060048201818152835160248401528351909283926044909101919085019080838360008315612839578181015183820152602001612821565b509192915050565b6000612f64612fb9565b600080612f79670de0b6b3a764000087612768565b90925090506000826003811115612f8c57fe5b14612fab5750604080516020810190915260008152909250905061153e565b611537818660000151611a89565b6040518060200160405280600081525090565b604080518082019091526000808252602082015290565b6040805160e0810190915280600081526020016000815260200160008152602001600081526020016000815260200160008152602001600081525090565b60035461010090046001600160a01b0316331461306f5760405162461bcd60e51b81526004018080602001828103825260248152602001806131f66024913960400191505060405180910390fd5b6006849055836130b05760405162461bcd60e51b81526004018080602001828103825260308152602001806132666030913960400191505060405180910390fd5b60006130bb86610896565b90508015613110576040805162461bcd60e51b815260206004820152601a60248201527f73657474696e6720636f6d7074726f6c6c6572206661696c6564000000000000604482015290519081900360640190fd5b835161312390600190602087019061315d565b50825161313790600290602086019061315d565b50506003805460ff90921660ff1992831617905560008054909116600117905550505050565b828054600181600116156101000203166002900490600052602060002090601f016020900481019282601f1061319e57805160ff19168380011785556131cb565b828001600101855582156131cb579182015b828111156131cb5782518255916020019190600101906131b0565b506131d79291506131db565b5090565b61079991905b808211156131d757600081556001016131e156fe6f6e6c792061646d696e206d617920696e697469616c697a6520746865206d61726b6574494e563a3a6765745072696f72566f7465733a206e6f74207965742064657465726d696e6564494e563a3a5f6d6f7665566f7465733a20766f746520616d6f756e74206f766572666c6f7773696e697469616c2065786368616e67652072617465206d7573742062652067726561746572207468616e207a65726f2e4d494e545f4e45575f4143434f554e545f42414c414e43455f43414c43554c4154494f4e5f4641494c4544454950373132446f6d61696e28737472696e67206e616d652c75696e7432353620636861696e49642c6164647265737320766572696679696e67436f6e747261637429494e563a3a64656c656761746542795369673a20696e76616c6964206e6f6e6365494e563a3a5f7772697465436865636b706f696e743a20626c6f636b206e756d62657220657863656564732033322062697473494e563a3a64656c656761746542795369673a20696e76616c6964207369676e617475726565786368616e67655261746553746f7265643a2065786368616e67655261746553746f726564496e7465726e616c206661696c65644d494e545f4e45575f544f54414c5f535550504c595f43414c43554c4154494f4e5f4641494c454444656c65676174696f6e28616464726573732064656c6567617465652c75696e74323536206e6f6e63652c75696e7432353620657870697279296f6e65206f662072656465656d546f6b656e73496e206f722072656465656d416d6f756e74496e206d757374206265207a65726f494e563a3a64656c656761746542795369673a207369676e617475726520657870697265644d494e545f4e45575f544f54414c5f535550504c595f4f5645525f4341504143495459494e563a3a5f6d6f7665566f7465733a20766f746520616d6f756e7420756e646572666c6f7773a265627a7a72315820cd242fddf1351b0e8ef4138d768a85472be0b03e16794251c7e9a8c60d9f908464736f6c6343000510003260806040526212750060035534801561001757600080fd5b506040516107d63803806107d68339818101604052604081101561003a57600080fd5b508051602090910151600080546001600160a01b039384166001600160a01b031991821617909155600180549390921692811692909217905560028054909116331790556107498061008d6000396000f3fe608060405234801561001057600080fd5b506004361061009e5760003560e01c80636f307dc3116100665780636f307dc31461013457806380f556051461013c578063ce513b6f14610144578063d215f3181461016a578063f3f43703146101905761009e565b80630fb5a6b4146100a35780631c411df3146100bd5780632efd5b06146100dc5780633ccfd60b146101085780635aa6e67514610110575b600080fd5b6100ab6101cf565b60408051918252519081900360200190f35b6100da600480360360208110156100d357600080fd5b50356101d5565b005b6100da600480360360408110156100f257600080fd5b506001600160a01b038135169060200135610223565b6100da6103e8565b610118610545565b604080516001600160a01b039092168252519081900360200190f35b610118610554565b610118610563565b6100ab6004803603602081101561015a57600080fd5b50356001600160a01b0316610572565b6100da6004803603602081101561018057600080fd5b50356001600160a01b03166105c7565b6101b6600480360360208110156101a657600080fd5b50356001600160a01b0316610632565b6040805192835260208301919091528051918290030190f35b60035481565b6001546001600160a01b0316331461021e5760405162461bcd60e51b81526004018080602001828103825260278152602001806106ee6027913960400191505060405180910390fd5b600355565b6002546001600160a01b0316331461027b576040805162461bcd60e51b81526020600482015260166024820152756f6e6c79206d61726b65742063616e20657363726f7760501b604482015290519081900360640190fd5b6003541561035d5761028b6106ac565b506001600160a01b0382166000908152600460209081526040918290208251808401845281548152600190910154818301908152835180850190945260035442018452519092918201906102e5908563ffffffff61064b16565b90526001600160a01b0384166000818152600460209081526040918290208451815593810151600190940193909355600354815192835242019282019290925280820184905290517fdbe3ea2036231446c1c0e4706a5d2a242036540e5708cb7972a396fad591606d9181900360600190a1506103e4565b600080546040805163a9059cbb60e01b81526001600160a01b0386811660048301526024820186905291519190921692839263a9059cbb9260448083019360209383900390910190829087803b1580156103b657600080fd5b505af11580156103ca573d6000803e3d6000fd5b505050506040513d60208110156103e057600080fd5b5050505b5050565b60006103f333610572565b90506103fd6106ac565b503360009081526004602090815260409182902082518084019093528054835260010154908201528161046d576040805162461bcd60e51b81526020600482015260136024820152724e6f7468696e6720746f20776974686472617760681b604482015290519081900360640190fd5b6000805433808352600460208181526040808620868155600101869055805163a9059cbb60e01b8152928301939093526024820187905291516001600160a01b0390931693849363a9059cbb936044808501949193918390030190829087803b1580156104d957600080fd5b505af11580156104ed573d6000803e3d6000fd5b505050506040513d602081101561050357600080fd5b5050604080513381526020810185905281517f884edad9ce6fa2440d8a54cc123490eb96d2768479d49ff9c7366125a9424364929181900390910190a1505050565b6001546001600160a01b031681565b6000546001600160a01b031681565b6002546001600160a01b031681565b600061057c6106ac565b506001600160a01b038216600090815260046020908152604091829020825180840190935280548084526001909101549183019190915242106105c157806020015191505b50919050565b6001546001600160a01b031633146106105760405162461bcd60e51b81526004018080602001828103825260278152602001806106c76027913960400191505060405180910390fd5b600180546001600160a01b0319166001600160a01b0392909216919091179055565b6004602052600090815260409020805460019091015482565b6000828201838110156106a5576040805162461bcd60e51b815260206004820152601b60248201527f536166654d6174683a206164646974696f6e206f766572666c6f770000000000604482015290519081900360640190fd5b9392505050565b60405180604001604052806000815260200160008152509056fe6f6e6c7920676f7665726e616e63652063616e2073657420697473206e657720616464726573736f6e6c7920676f7665726e616e63652063616e2073657420657363726f77206475726174696f6ea265627a7a72315820f57481f96a4a2fc7c1bae6129d5d524f28c4613ac7c4c075d6f6251060a6fc1f64736f6c634300051000326f6e6c792061646d696e206d617920696e697469616c697a6520746865206d61726b6574696e697469616c2065786368616e67652072617465206d7573742062652067726561746572207468616e207a65726f2e",
  "devdoc": {
    "author": "Inverse Finance",
    "methods": {
      "_acceptAdmin()": {
        "details": "Admin function for pending admin to accept role and update admin",
        "return": "uint 0=success, otherwise a failure (see ErrorReporter.sol for details)"
      },
      "_setComptroller(address)": {
        "details": "Admin function to set a new comptroller",
        "return": "uint 0=success, otherwise a failure (see ErrorReporter.sol for details)"
      },
      "_setPendingAdmin(address)": {
        "details": "Admin function to begin change of admin. The newPendingAdmin must call `_acceptAdmin` to finalize the transfer.",
        "params": {
          "newPendingAdmin": "New pending admin."
        },
        "return": "uint 0=success, otherwise a failure (see ErrorReporter.sol for details)"
      },
      "balanceOf(address)": {
        "params": {
          "owner": "The address of the account to query"
        },
        "return": "The number of tokens owned by `owner`"
      },
      "balanceOfUnderlying(address)": {
        "params": {
          "owner": "The address of the account to query"
        },
        "return": "The amount of underlying owned by `owner`"
      },
      "constructor": {
        "params": {
          "admin_": "Address of the administrator of this token",
          "comptroller_": "The address of the Comptroller",
          "decimals_": "ERC-20 decimal precision of this token",
          "name_": "ERC-20 name of this token",
          "symbol_": "ERC-20 symbol of this token",
          "underlying_": "The address of the underlying asset"
        }
      },
      "delegate(address)": {
        "params": {
          "delegatee": "The address to delegate votes to"
        }
      },
      "delegateBySig(address,uint256,uint256,uint8,bytes32,bytes32)": {
        "params": {
          "delegatee": "The address to delegate votes to",
          "expiry": "The time at which to expire the signature",
          "nonce": "The contract state required to match the signature",
          "r": "Half of the ECDSA signature pair",
          "s": "Half of the ECDSA signature pair",
          "v": "The recovery byte of the signature"
        }
      },
      "exchangeRateCurrent()": {
        "return": "Calculated exchange rate scaled by 1e18"
      },
      "exchangeRateStored()": {
        "return": "Calculated exchange rate scaled by 1e18"
      },
      "getAccountSnapshot(address)": {
        "details": "This is used by comptroller to more efficiently perform liquidity checks.",
        "params": {
          "account": "Address of the account to snapshot"
        },
        "return": "(possible error, token balance, borrow balance, exchange rate mantissa)"
      },
      "getCash()": {
        "return": "The quantity of underlying asset owned by this contract"
      },
      "getCurrentVotes(address)": {
        "params": {
          "account": "The address to get votes balance"
        },
        "return": "The number of current votes for `account`"
      },
      "getPriorVotes(address,uint256)": {
        "details": "Block number must be a finalized block or else this function will revert to prevent misinformation.",
        "params": {
          "account": "The address of the account to check",
          "blockNumber": "The block number to get the vote balance at"
        },
        "return": "The number of votes the account had as of the given block"
      },
      "mint(uint256)": {
        "params": {
          "mintAmount": "The amount of the underlying asset to supply"
        },
        "return": "uint 0=success, otherwise a failure (see ErrorReporter.sol for details)"
      },
      "redeem(uint256)": {
        "params": {
          "redeemTokens": "The number of cTokens to redeem into underlying"
        },
        "return": "uint 0=success, otherwise a failure (see ErrorReporter.sol for details)"
      },
      "redeemUnderlying(uint256)": {
        "params": {
          "redeemAmount": "The amount of underlying to redeem"
        },
        "return": "uint 0=success, otherwise a failure (see ErrorReporter.sol for details)"
      },
      "seize(address,address,uint256)": {
        "details": "Will fail unless called by another cToken during the process of liquidation. Its absolutely critical to use msg.sender as the borrowed cToken and not a parameter.",
        "params": {
          "borrower": "The account having collateral seized",
          "liquidator": "The account receiving seized collateral",
          "seizeTokens": "The number of cTokens to seize"
        },
        "return": "uint 0=success, otherwise a failure (see ErrorReporter.sol for details)"
      }
    },
    "title": "xINV contract"
  },
  "userdoc": {
    "methods": {
      "_acceptAdmin()": {
        "notice": "Accepts transfer of admin rights. msg.sender must be pendingAdmin"
      },
      "_setComptroller(address)": {
        "notice": "Sets a new comptroller for the market"
      },
      "_setPendingAdmin(address)": {
        "notice": "Begins transfer of admin rights. The newPendingAdmin must call `_acceptAdmin` to finalize the transfer."
      },
      "balanceOf(address)": {
        "notice": "Get the token balance of the `owner`"
      },
      "balanceOfUnderlying(address)": {
        "notice": "Get the underlying balance of the `owner`"
      },
      "constructor": "Construct the xINV market",
      "delegate(address)": {
        "notice": "Delegate votes from `msg.sender` to `delegatee`"
      },
      "delegateBySig(address,uint256,uint256,uint8,bytes32,bytes32)": {
        "notice": "Delegates votes from signatory to `delegatee`"
      },
      "exchangeRateStored()": {
        "notice": "Calculates the exchange rate from the underlying to the CToken"
      },
      "getAccountSnapshot(address)": {
        "notice": "Get a snapshot of the account's balances, and the cached exchange rate"
      },
      "getCash()": {
        "notice": "Get cash balance of this cToken in the underlying asset"
      },
      "getCurrentVotes(address)": {
        "notice": "Gets the current votes balance for `account`"
      },
      "getPriorVotes(address,uint256)": {
        "notice": "Determine the prior number of votes for an account as of a block number"
      },
      "mint(uint256)": {
        "notice": "Sender supplies assets into the market and receives cTokens in exchange"
      },
      "redeem(uint256)": {
        "notice": "Sender redeems cTokens in exchange for the underlying asset"
      },
      "redeemUnderlying(uint256)": {
        "notice": "Sender redeems cTokens in exchange for a specified amount of underlying asset"
      },
      "seize(address,address,uint256)": {
        "notice": "Transfers collateral tokens (this market) to the liquidator."
      }
    },
    "notice": "wraps INV token"
  },
  "storageLayout": {
    "storage": [
      {
        "astId": 35866,
        "contract": "contracts/XINV.sol:XINV",
        "label": "_notEntered",
        "offset": 0,
        "slot": "0",
        "type": "t_bool"
      },
      {
        "astId": 35868,
        "contract": "contracts/XINV.sol:XINV",
        "label": "name",
        "offset": 0,
        "slot": "1",
        "type": "t_string_storage"
      },
      {
        "astId": 35870,
        "contract": "contracts/XINV.sol:XINV",
        "label": "symbol",
        "offset": 0,
        "slot": "2",
        "type": "t_string_storage"
      },
      {
        "astId": 35872,
        "contract": "contracts/XINV.sol:XINV",
        "label": "decimals",
        "offset": 0,
        "slot": "3",
        "type": "t_uint8"
      },
      {
        "astId": 35877,
        "contract": "contracts/XINV.sol:XINV",
        "label": "admin",
        "offset": 1,
        "slot": "3",
        "type": "t_address_payable"
      },
      {
        "astId": 35879,
        "contract": "contracts/XINV.sol:XINV",
        "label": "pendingAdmin",
        "offset": 0,
        "slot": "4",
        "type": "t_address_payable"
      },
      {
        "astId": 35881,
        "contract": "contracts/XINV.sol:XINV",
        "label": "comptroller",
        "offset": 0,
        "slot": "5",
        "type": "t_contract(ComptrollerInterface)30521"
      },
      {
        "astId": 35883,
        "contract": "contracts/XINV.sol:XINV",
        "label": "initialExchangeRateMantissa",
        "offset": 0,
        "slot": "6",
        "type": "t_uint256"
      },
      {
        "astId": 35885,
        "contract": "contracts/XINV.sol:XINV",
        "label": "accrualBlockNumber",
        "offset": 0,
        "slot": "7",
        "type": "t_uint256"
      },
      {
        "astId": 35887,
        "contract": "contracts/XINV.sol:XINV",
        "label": "totalSupply",
        "offset": 0,
        "slot": "8",
        "type": "t_uint256"
      },
      {
        "astId": 35891,
        "contract": "contracts/XINV.sol:XINV",
        "label": "accountTokens",
        "offset": 0,
        "slot": "9",
        "type": "t_mapping(t_address,t_uint256)"
      },
      {
        "astId": 37235,
        "contract": "contracts/XINV.sol:XINV",
        "label": "delegates",
        "offset": 0,
        "slot": "10",
        "type": "t_mapping(t_address,t_address)"
      },
      {
        "astId": 37246,
        "contract": "contracts/XINV.sol:XINV",
        "label": "checkpoints",
        "offset": 0,
        "slot": "11",
        "type": "t_mapping(t_address,t_mapping(t_uint32,t_struct(Checkpoint)37240_storage))"
      },
      {
        "astId": 37250,
        "contract": "contracts/XINV.sol:XINV",
        "label": "numCheckpoints",
        "offset": 0,
        "slot": "12",
        "type": "t_mapping(t_address,t_uint32)"
      },
      {
        "astId": 37264,
        "contract": "contracts/XINV.sol:XINV",
        "label": "nonces",
        "offset": 0,
        "slot": "13",
        "type": "t_mapping(t_address,t_uint256)"
      },
      {
        "astId": 38095,
        "contract": "contracts/XINV.sol:XINV",
        "label": "underlying",
        "offset": 0,
        "slot": "14",
        "type": "t_address"
      },
      {
        "astId": 38097,
        "contract": "contracts/XINV.sol:XINV",
        "label": "escrow",
        "offset": 0,
        "slot": "15",
        "type": "t_contract(TimelockEscrow)38091"
      }
    ],
    "types": {
      "t_address": {
        "encoding": "inplace",
        "label": "address",
        "numberOfBytes": "20"
      },
      "t_address_payable": {
        "encoding": "inplace",
        "label": "address payable",
        "numberOfBytes": "20"
      },
      "t_bool": {
        "encoding": "inplace",
        "label": "bool",
        "numberOfBytes": "1"
      },
      "t_contract(ComptrollerInterface)30521": {
        "encoding": "inplace",
        "label": "contract ComptrollerInterface",
        "numberOfBytes": "20"
      },
      "t_contract(TimelockEscrow)38091": {
        "encoding": "inplace",
        "label": "contract TimelockEscrow",
        "numberOfBytes": "20"
      },
      "t_mapping(t_address,t_address)": {
        "encoding": "mapping",
        "key": "t_address",
        "label": "mapping(address => address)",
        "numberOfBytes": "32",
        "value": "t_address"
      },
      "t_mapping(t_address,t_mapping(t_uint32,t_struct(Checkpoint)37240_storage))": {
        "encoding": "mapping",
        "key": "t_address",
        "label": "mapping(address => mapping(uint32 => struct xInvCore.Checkpoint))",
        "numberOfBytes": "32",
        "value": "t_mapping(t_uint32,t_struct(Checkpoint)37240_storage)"
      },
      "t_mapping(t_address,t_uint256)": {
        "encoding": "mapping",
        "key": "t_address",
        "label": "mapping(address => uint256)",
        "numberOfBytes": "32",
        "value": "t_uint256"
      },
      "t_mapping(t_address,t_uint32)": {
        "encoding": "mapping",
        "key": "t_address",
        "label": "mapping(address => uint32)",
        "numberOfBytes": "32",
        "value": "t_uint32"
      },
      "t_mapping(t_uint32,t_struct(Checkpoint)37240_storage)": {
        "encoding": "mapping",
        "key": "t_uint32",
        "label": "mapping(uint32 => struct xInvCore.Checkpoint)",
        "numberOfBytes": "32",
        "value": "t_struct(Checkpoint)37240_storage"
      },
      "t_string_storage": {
        "encoding": "bytes",
        "label": "string",
        "numberOfBytes": "32"
      },
      "t_struct(Checkpoint)37240_storage": {
        "encoding": "inplace",
        "label": "struct xInvCore.Checkpoint",
        "members": [
          {
            "astId": 37237,
            "contract": "contracts/XINV.sol:XINV",
            "label": "fromBlock",
            "offset": 0,
            "slot": "0",
            "type": "t_uint32"
          },
          {
            "astId": 37239,
            "contract": "contracts/XINV.sol:XINV",
            "label": "votes",
            "offset": 4,
            "slot": "0",
            "type": "t_uint96"
          }
        ],
        "numberOfBytes": "32"
      },
      "t_uint256": {
        "encoding": "inplace",
        "label": "uint256",
        "numberOfBytes": "32"
      },
      "t_uint32": {
        "encoding": "inplace",
        "label": "uint32",
        "numberOfBytes": "4"
      },
      "t_uint8": {
        "encoding": "inplace",
        "label": "uint8",
        "numberOfBytes": "1"
      },
      "t_uint96": {
        "encoding": "inplace",
        "label": "uint96",
        "numberOfBytes": "12"
      }
    }
  }
}