{
  "address": "0xde2af899040536884e062D3a334F2dD36F34b4a4",
  "abi": [
    {
      "inputs": [
        {
          "internalType": "address",
          "name": "underlying_",
          "type": "address"
        },
        {
          "internalType": "contract ComptrollerInterface",
          "name": "comptroller_",
          "type": "address"
        },
        {
          "internalType": "contract InterestRateModel",
          "name": "interestRateModel_",
          "type": "address"
        },
        {
          "internalType": "uint256",
          "name": "initialExchangeRateMantissa_",
          "type": "uint256"
        },
        {
          "internalType": "string",
          "name": "name_",
          "type": "string"
        },
        {
          "internalType": "string",
          "name": "symbol_",
          "type": "string"
        },
        {
          "internalType": "uint8",
          "name": "decimals_",
          "type": "uint8"
        },
        {
          "internalType": "address payable",
          "name": "admin_",
          "type": "address"
        },
        {
          "internalType": "contract IDelegateRegistry",
          "name": "delegateRegistry_",
          "type": "address"
        }
      ],
      "payable": false,
      "stateMutability": "nonpayable",
      "type": "constructor"
    },
    {
      "anonymous": false,
      "inputs": [
        {
          "indexed": false,
          "internalType": "uint256",
          "name": "cashPrior",
          "type": "uint256"
        },
        {
          "indexed": false,
          "internalType": "uint256",
          "name": "interestAccumulated",
          "type": "uint256"
        },
        {
          "indexed": false,
          "internalType": "uint256",
          "name": "borrowIndex",
          "type": "uint256"
        },
        {
          "indexed": false,
          "internalType": "uint256",
          "name": "totalBorrows",
          "type": "uint256"
        }
      ],
      "name": "AccrueInterest",
      "type": "event"
    },
    {
      "anonymous": false,
      "inputs": [
        {
          "indexed": true,
          "internalType": "address",
          "name": "owner",
          "type": "address"
        },
        {
          "indexed": true,
          "internalType": "address",
          "name": "spender",
          "type": "address"
        },
        {
          "indexed": false,
          "internalType": "uint256",
          "name": "amount",
          "type": "uint256"
        }
      ],
      "name": "Approval",
      "type": "event"
    },
    {
      "anonymous": false,
      "inputs": [
        {
          "indexed": false,
          "internalType": "address",
          "name": "borrower",
          "type": "address"
        },
        {
          "indexed": false,
          "internalType": "uint256",
          "name": "borrowAmount",
          "type": "uint256"
        },
        {
          "indexed": false,
          "internalType": "uint256",
          "name": "accountBorrows",
          "type": "uint256"
        },
        {
          "indexed": false,
          "internalType": "uint256",
          "name": "totalBorrows",
          "type": "uint256"
        }
      ],
      "name": "Borrow",
      "type": "event"
    },
    {
      "anonymous": false,
      "inputs": [
        {
          "indexed": false,
          "internalType": "uint256",
          "name": "error",
          "type": "uint256"
        },
        {
          "indexed": false,
          "internalType": "uint256",
          "name": "info",
          "type": "uint256"
        },
        {
          "indexed": false,
          "internalType": "uint256",
          "name": "detail",
          "type": "uint256"
        }
      ],
      "name": "Failure",
      "type": "event"
    },
    {
      "anonymous": false,
      "inputs": [
        {
          "indexed": false,
          "internalType": "address",
          "name": "liquidator",
          "type": "address"
        },
        {
          "indexed": false,
          "internalType": "address",
          "name": "borrower",
          "type": "address"
        },
        {
          "indexed": false,
          "internalType": "uint256",
          "name": "repayAmount",
          "type": "uint256"
        },
        {
          "indexed": false,
          "internalType": "address",
          "name": "cTokenCollateral",
          "type": "address"
        },
        {
          "indexed": false,
          "internalType": "uint256",
          "name": "seizeTokens",
          "type": "uint256"
        }
      ],
      "name": "LiquidateBorrow",
      "type": "event"
    },
    {
      "anonymous": false,
      "inputs": [
        {
          "indexed": false,
          "internalType": "address",
          "name": "minter",
          "type": "address"
        },
        {
          "indexed": false,
          "internalType": "uint256",
          "name": "mintAmount",
          "type": "uint256"
        },
        {
          "indexed": false,
          "internalType": "uint256",
          "name": "mintTokens",
          "type": "uint256"
        }
      ],
      "name": "Mint",
      "type": "event"
    },
    {
      "anonymous": false,
      "inputs": [
        {
          "indexed": false,
          "internalType": "address",
          "name": "oldAdmin",
          "type": "address"
        },
        {
          "indexed": false,
          "internalType": "address",
          "name": "newAdmin",
          "type": "address"
        }
      ],
      "name": "NewAdmin",
      "type": "event"
    },
    {
      "anonymous": false,
      "inputs": [
        {
          "indexed": false,
          "internalType": "contract ComptrollerInterface",
          "name": "oldComptroller",
          "type": "address"
        },
        {
          "indexed": false,
          "internalType": "contract ComptrollerInterface",
          "name": "newComptroller",
          "type": "address"
        }
      ],
      "name": "NewComptroller",
      "type": "event"
    },
    {
      "anonymous": false,
      "inputs": [
        {
          "indexed": false,
          "internalType": "contract InterestRateModel",
          "name": "oldInterestRateModel",
          "type": "address"
        },
        {
          "indexed": false,
          "internalType": "contract InterestRateModel",
          "name": "newInterestRateModel",
          "type": "address"
        }
      ],
      "name": "NewMarketInterestRateModel",
      "type": "event"
    },
    {
      "anonymous": false,
      "inputs": [
        {
          "indexed": false,
          "internalType": "address",
          "name": "oldPendingAdmin",
          "type": "address"
        },
        {
          "indexed": false,
          "internalType": "address",
          "name": "newPendingAdmin",
          "type": "address"
        }
      ],
      "name": "NewPendingAdmin",
      "type": "event"
    },
    {
      "anonymous": false,
      "inputs": [
        {
          "indexed": false,
          "internalType": "uint256",
          "name": "oldReserveFactorMantissa",
          "type": "uint256"
        },
        {
          "indexed": false,
          "internalType": "uint256",
          "name": "newReserveFactorMantissa",
          "type": "uint256"
        }
      ],
      "name": "NewReserveFactor",
      "type": "event"
    },
    {
      "anonymous": false,
      "inputs": [
        {
          "indexed": false,
          "internalType": "address",
          "name": "redeemer",
          "type": "address"
        },
        {
          "indexed": false,
          "internalType": "uint256",
          "name": "redeemAmount",
          "type": "uint256"
        },
        {
          "indexed": false,
          "internalType": "uint256",
          "name": "redeemTokens",
          "type": "uint256"
        }
      ],
      "name": "Redeem",
      "type": "event"
    },
    {
      "anonymous": false,
      "inputs": [
        {
          "indexed": false,
          "internalType": "address",
          "name": "payer",
          "type": "address"
        },
        {
          "indexed": false,
          "internalType": "address",
          "name": "borrower",
          "type": "address"
        },
        {
          "indexed": false,
          "internalType": "uint256",
          "name": "repayAmount",
          "type": "uint256"
        },
        {
          "indexed": false,
          "internalType": "uint256",
          "name": "accountBorrows",
          "type": "uint256"
        },
        {
          "indexed": false,
          "internalType": "uint256",
          "name": "totalBorrows",
          "type": "uint256"
        }
      ],
      "name": "RepayBorrow",
      "type": "event"
    },
    {
      "anonymous": false,
      "inputs": [
        {
          "indexed": false,
          "internalType": "address",
          "name": "benefactor",
          "type": "address"
        },
        {
          "indexed": false,
          "internalType": "uint256",
          "name": "addAmount",
          "type": "uint256"
        },
        {
          "indexed": false,
          "internalType": "uint256",
          "name": "newTotalReserves",
          "type": "uint256"
        }
      ],
      "name": "ReservesAdded",
      "type": "event"
    },
    {
      "anonymous": false,
      "inputs": [
        {
          "indexed": false,
          "internalType": "address",
          "name": "admin",
          "type": "address"
        },
        {
          "indexed": false,
          "internalType": "uint256",
          "name": "reduceAmount",
          "type": "uint256"
        },
        {
          "indexed": false,
          "internalType": "uint256",
          "name": "newTotalReserves",
          "type": "uint256"
        }
      ],
      "name": "ReservesReduced",
      "type": "event"
    },
    {
      "anonymous": false,
      "inputs": [
        {
          "indexed": true,
          "internalType": "address",
          "name": "from",
          "type": "address"
        },
        {
          "indexed": true,
          "internalType": "address",
          "name": "to",
          "type": "address"
        },
        {
          "indexed": false,
          "internalType": "uint256",
          "name": "amount",
          "type": "uint256"
        }
      ],
      "name": "Transfer",
      "type": "event"
    },
    {
      "constant": false,
      "inputs": [],
      "name": "_acceptAdmin",
      "outputs": [
        {
          "internalType": "uint256",
          "name": "",
          "type": "uint256"
        }
      ],
      "payable": false,
      "stateMutability": "nonpayable",
      "type": "function"
    },
    {
      "constant": false,
      "inputs": [
        {
          "internalType": "uint256",
          "name": "addAmount",
          "type": "uint256"
        }
      ],
      "name": "_addReserves",
      "outputs": [
        {
          "internalType": "uint256",
          "name": "",
          "type": "uint256"
        }
      ],
      "payable": false,
      "stateMutability": "nonpayable",
      "type": "function"
    },
    {
      "constant": false,
      "inputs": [
        {
          "internalType": "uint256",
          "name": "reduceAmount",
          "type": "uint256"
        }
      ],
      "name": "_reduceReserves",
      "outputs": [
        {
          "internalType": "uint256",
          "name": "",
          "type": "uint256"
        }
      ],
      "payable": false,
      "stateMutability": "nonpayable",
      "type": "function"
    },
    {
      "constant": false,
      "inputs": [
        {
          "internalType": "contract ComptrollerInterface",
          "name": "newComptroller",
          "type": "address"
        }
      ],
      "name": "_setComptroller",
      "outputs": [
        {
          "internalType": "uint256",
          "name": "",
          "type": "uint256"
        }
      ],
      "payable": false,
      "stateMutability": "nonpayable",
      "type": "function"
    },
    {
      "constant": false,
      "inputs": [
        {
          "internalType": "contract InterestRateModel",
          "name": "newInterestRateModel",
          "type": "address"
        }
      ],
      "name": "_setInterestRateModel",
      "outputs": [
        {
          "internalType": "uint256",
          "name": "",
          "type": "uint256"
        }
      ],
      "payable": false,
      "stateMutability": "nonpayable",
      "type": "function"
    },
    {
      "constant": false,
      "inputs": [
        {
          "internalType": "address payable",
          "name": "newPendingAdmin",
          "type": "address"
        }
      ],
      "name": "_setPendingAdmin",
      "outputs": [
        {
          "internalType": "uint256",
          "name": "",
          "type": "uint256"
        }
      ],
      "payable": false,
      "stateMutability": "nonpayable",
      "type": "function"
    },
    {
      "constant": false,
      "inputs": [
        {
          "internalType": "uint256",
          "name": "newReserveFactorMantissa",
          "type": "uint256"
        }
      ],
      "name": "_setReserveFactor",
      "outputs": [
        {
          "internalType": "uint256",
          "name": "",
          "type": "uint256"
        }
      ],
      "payable": false,
      "stateMutability": "nonpayable",
      "type": "function"
    },
    {
      "constant": true,
      "inputs": [],
      "name": "accrualBlockNumber",
      "outputs": [
        {
          "internalType": "uint256",
          "name": "",
          "type": "uint256"
        }
      ],
      "payable": false,
      "stateMutability": "view",
      "type": "function"
    },
    {
      "constant": false,
      "inputs": [],
      "name": "accrueInterest",
      "outputs": [
        {
          "internalType": "uint256",
          "name": "",
          "type": "uint256"
        }
      ],
      "payable": false,
      "stateMutability": "nonpayable",
      "type": "function"
    },
    {
      "constant": true,
      "inputs": [],
      "name": "admin",
      "outputs": [
        {
          "internalType": "address payable",
          "name": "",
          "type": "address"
        }
      ],
      "payable": false,
      "stateMutability": "view",
      "type": "function"
    },
    {
      "constant": true,
      "inputs": [
        {
          "internalType": "address",
          "name": "owner",
          "type": "address"
        },
        {
          "internalType": "address",
          "name": "spender",
          "type": "address"
        }
      ],
      "name": "allowance",
      "outputs": [
        {
          "internalType": "uint256",
          "name": "",
          "type": "uint256"
        }
      ],
      "payable": false,
      "stateMutability": "view",
      "type": "function"
    },
    {
      "constant": false,
      "inputs": [
        {
          "internalType": "address",
          "name": "spender",
          "type": "address"
        },
        {
          "internalType": "uint256",
          "name": "amount",
          "type": "uint256"
        }
      ],
      "name": "approve",
      "outputs": [
        {
          "internalType": "bool",
          "name": "",
          "type": "bool"
        }
      ],
      "payable": false,
      "stateMutability": "nonpayable",
      "type": "function"
    },
    {
      "constant": true,
      "inputs": [
        {
          "internalType": "address",
          "name": "owner",
          "type": "address"
        }
      ],
      "name": "balanceOf",
      "outputs": [
        {
          "internalType": "uint256",
          "name": "",
          "type": "uint256"
        }
      ],
      "payable": false,
      "stateMutability": "view",
      "type": "function"
    },
    {
      "constant": false,
      "inputs": [
        {
          "internalType": "address",
          "name": "owner",
          "type": "address"
        }
      ],
      "name": "balanceOfUnderlying",
      "outputs": [
        {
          "internalType": "uint256",
          "name": "",
          "type": "uint256"
        }
      ],
      "payable": false,
      "stateMutability": "nonpayable",
      "type": "function"
    },
    {
      "constant": false,
      "inputs": [
        {
          "internalType": "uint256",
          "name": "borrowAmount",
          "type": "uint256"
        }
      ],
      "name": "borrow",
      "outputs": [
        {
          "internalType": "uint256",
          "name": "",
          "type": "uint256"
        }
      ],
      "payable": false,
      "stateMutability": "nonpayable",
      "type": "function"
    },
    {
      "constant": false,
      "inputs": [
        {
          "internalType": "address",
          "name": "account",
          "type": "address"
        }
      ],
      "name": "borrowBalanceCurrent",
      "outputs": [
        {
          "internalType": "uint256",
          "name": "",
          "type": "uint256"
        }
      ],
      "payable": false,
      "stateMutability": "nonpayable",
      "type": "function"
    },
    {
      "constant": true,
      "inputs": [
        {
          "internalType": "address",
          "name": "account",
          "type": "address"
        }
      ],
      "name": "borrowBalanceStored",
      "outputs": [
        {
          "internalType": "uint256",
          "name": "",
          "type": "uint256"
        }
      ],
      "payable": false,
      "stateMutability": "view",
      "type": "function"
    },
    {
      "constant": true,
      "inputs": [],
      "name": "borrowIndex",
      "outputs": [
        {
          "internalType": "uint256",
          "name": "",
          "type": "uint256"
        }
      ],
      "payable": false,
      "stateMutability": "view",
      "type": "function"
    },
    {
      "constant": true,
      "inputs": [],
      "name": "borrowRatePerBlock",
      "outputs": [
        {
          "internalType": "uint256",
          "name": "",
          "type": "uint256"
        }
      ],
      "payable": false,
      "stateMutability": "view",
      "type": "function"
    },
    {
      "constant": true,
      "inputs": [],
      "name": "comptroller",
      "outputs": [
        {
          "internalType": "contract ComptrollerInterface",
          "name": "",
          "type": "address"
        }
      ],
      "payable": false,
      "stateMutability": "view",
      "type": "function"
    },
    {
      "constant": true,
      "inputs": [],
      "name": "decimals",
      "outputs": [
        {
          "internalType": "uint8",
          "name": "",
          "type": "uint8"
        }
      ],
      "payable": false,
      "stateMutability": "view",
      "type": "function"
    },
    {
      "constant": false,
      "inputs": [
        {
          "internalType": "address",
          "name": "delegate_",
          "type": "address"
        }
      ],
      "name": "delegate",
      "outputs": [],
      "payable": false,
      "stateMutability": "nonpayable",
      "type": "function"
    },
    {
      "constant": true,
      "inputs": [],
      "name": "delegateRegistry",
      "outputs": [
        {
          "internalType": "contract IDelegateRegistry",
          "name": "",
          "type": "address"
        }
      ],
      "payable": false,
      "stateMutability": "view",
      "type": "function"
    },
    {
      "constant": false,
      "inputs": [],
      "name": "exchangeRateCurrent",
      "outputs": [
        {
          "internalType": "uint256",
          "name": "",
          "type": "uint256"
        }
      ],
      "payable": false,
      "stateMutability": "nonpayable",
      "type": "function"
    },
    {
      "constant": true,
      "inputs": [],
      "name": "exchangeRateStored",
      "outputs": [
        {
          "internalType": "uint256",
          "name": "",
          "type": "uint256"
        }
      ],
      "payable": false,
      "stateMutability": "view",
      "type": "function"
    },
    {
      "constant": true,
      "inputs": [
        {
          "internalType": "address",
          "name": "account",
          "type": "address"
        }
      ],
      "name": "getAccountSnapshot",
      "outputs": [
        {
          "internalType": "uint256",
          "name": "",
          "type": "uint256"
        },
        {
          "internalType": "uint256",
          "name": "",
          "type": "uint256"
        },
        {
          "internalType": "uint256",
          "name": "",
          "type": "uint256"
        },
        {
          "internalType": "uint256",
          "name": "",
          "type": "uint256"
        }
      ],
      "payable": false,
      "stateMutability": "view",
      "type": "function"
    },
    {
      "constant": true,
      "inputs": [],
      "name": "getCash",
      "outputs": [
        {
          "internalType": "uint256",
          "name": "",
          "type": "uint256"
        }
      ],
      "payable": false,
      "stateMutability": "view",
      "type": "function"
    },
    {
      "constant": false,
      "inputs": [
        {
          "internalType": "address",
          "name": "underlying_",
          "type": "address"
        },
        {
          "internalType": "contract ComptrollerInterface",
          "name": "comptroller_",
          "type": "address"
        },
        {
          "internalType": "contract InterestRateModel",
          "name": "interestRateModel_",
          "type": "address"
        },
        {
          "internalType": "uint256",
          "name": "initialExchangeRateMantissa_",
          "type": "uint256"
        },
        {
          "internalType": "string",
          "name": "name_",
          "type": "string"
        },
        {
          "internalType": "string",
          "name": "symbol_",
          "type": "string"
        },
        {
          "internalType": "uint8",
          "name": "decimals_",
          "type": "uint8"
        }
      ],
      "name": "initialize",
      "outputs": [],
      "payable": false,
      "stateMutability": "nonpayable",
      "type": "function"
    },
    {
      "constant": false,
      "inputs": [
        {
          "internalType": "contract ComptrollerInterface",
          "name": "comptroller_",
          "type": "address"
        },
        {
          "internalType": "contract InterestRateModel",
          "name": "interestRateModel_",
          "type": "address"
        },
        {
          "internalType": "uint256",
          "name": "initialExchangeRateMantissa_",
          "type": "uint256"
        },
        {
          "internalType": "string",
          "name": "name_",
          "type": "string"
        },
        {
          "internalType": "string",
          "name": "symbol_",
          "type": "string"
        },
        {
          "internalType": "uint8",
          "name": "decimals_",
          "type": "uint8"
        }
      ],
      "name": "initialize",
      "outputs": [],
      "payable": false,
      "stateMutability": "nonpayable",
      "type": "function"
    },
    {
      "constant": true,
      "inputs": [],
      "name": "interestRateModel",
      "outputs": [
        {
          "internalType": "contract InterestRateModel",
          "name": "",
          "type": "address"
        }
      ],
      "payable": false,
      "stateMutability": "view",
      "type": "function"
    },
    {
      "constant": true,
      "inputs": [],
      "name": "isCToken",
      "outputs": [
        {
          "internalType": "bool",
          "name": "",
          "type": "bool"
        }
      ],
      "payable": false,
      "stateMutability": "view",
      "type": "function"
    },
    {
      "constant": false,
      "inputs": [
        {
          "internalType": "address",
          "name": "borrower",
          "type": "address"
        },
        {
          "internalType": "uint256",
          "name": "repayAmount",
          "type": "uint256"
        },
        {
          "internalType": "contract CTokenInterface",
          "name": "cTokenCollateral",
          "type": "address"
        }
      ],
      "name": "liquidateBorrow",
      "outputs": [
        {
          "internalType": "uint256",
          "name": "",
          "type": "uint256"
        }
      ],
      "payable": false,
      "stateMutability": "nonpayable",
      "type": "function"
    },
    {
      "constant": false,
      "inputs": [
        {
          "internalType": "uint256",
          "name": "mintAmount",
          "type": "uint256"
        }
      ],
      "name": "mint",
      "outputs": [
        {
          "internalType": "uint256",
          "name": "",
          "type": "uint256"
        }
      ],
      "payable": false,
      "stateMutability": "nonpayable",
      "type": "function"
    },
    {
      "constant": true,
      "inputs": [],
      "name": "name",
      "outputs": [
        {
          "internalType": "string",
          "name": "",
          "type": "string"
        }
      ],
      "payable": false,
      "stateMutability": "view",
      "type": "function"
    },
    {
      "constant": true,
      "inputs": [],
      "name": "pendingAdmin",
      "outputs": [
        {
          "internalType": "address payable",
          "name": "",
          "type": "address"
        }
      ],
      "payable": false,
      "stateMutability": "view",
      "type": "function"
    },
    {
      "constant": false,
      "inputs": [
        {
          "internalType": "uint256",
          "name": "redeemTokens",
          "type": "uint256"
        }
      ],
      "name": "redeem",
      "outputs": [
        {
          "internalType": "uint256",
          "name": "",
          "type": "uint256"
        }
      ],
      "payable": false,
      "stateMutability": "nonpayable",
      "type": "function"
    },
    {
      "constant": false,
      "inputs": [
        {
          "internalType": "uint256",
          "name": "redeemAmount",
          "type": "uint256"
        }
      ],
      "name": "redeemUnderlying",
      "outputs": [
        {
          "internalType": "uint256",
          "name": "",
          "type": "uint256"
        }
      ],
      "payable": false,
      "stateMutability": "nonpayable",
      "type": "function"
    },
    {
      "constant": false,
      "inputs": [
        {
          "internalType": "uint256",
          "name": "repayAmount",
          "type": "uint256"
        }
      ],
      "name": "repayBorrow",
      "outputs": [
        {
          "internalType": "uint256",
          "name": "",
          "type": "uint256"
        }
      ],
      "payable": false,
      "stateMutability": "nonpayable",
      "type": "function"
    },
    {
      "constant": false,
      "inputs": [
        {
          "internalType": "address",
          "name": "borrower",
          "type": "address"
        },
        {
          "internalType": "uint256",
          "name": "repayAmount",
          "type": "uint256"
        }
      ],
      "name": "repayBorrowBehalf",
      "outputs": [
        {
          "internalType": "uint256",
          "name": "",
          "type": "uint256"
        }
      ],
      "payable": false,
      "stateMutability": "nonpayable",
      "type": "function"
    },
    {
      "constant": true,
      "inputs": [],
      "name": "reserveFactorMantissa",
      "outputs": [
        {
          "internalType": "uint256",
          "name": "",
          "type": "uint256"
        }
      ],
      "payable": false,
      "stateMutability": "view",
      "type": "function"
    },
    {
      "constant": false,
      "inputs": [
        {
          "internalType": "address",
          "name": "liquidator",
          "type": "address"
        },
        {
          "internalType": "address",
          "name": "borrower",
          "type": "address"
        },
        {
          "internalType": "uint256",
          "name": "seizeTokens",
          "type": "uint256"
        }
      ],
      "name": "seize",
      "outputs": [
        {
          "internalType": "uint256",
          "name": "",
          "type": "uint256"
        }
      ],
      "payable": false,
      "stateMutability": "nonpayable",
      "type": "function"
    },
    {
      "constant": true,
      "inputs": [],
      "name": "supplyRatePerBlock",
      "outputs": [
        {
          "internalType": "uint256",
          "name": "",
          "type": "uint256"
        }
      ],
      "payable": false,
      "stateMutability": "view",
      "type": "function"
    },
    {
      "constant": true,
      "inputs": [],
      "name": "symbol",
      "outputs": [
        {
          "internalType": "string",
          "name": "",
          "type": "string"
        }
      ],
      "payable": false,
      "stateMutability": "view",
      "type": "function"
    },
    {
      "constant": true,
      "inputs": [],
      "name": "totalBorrows",
      "outputs": [
        {
          "internalType": "uint256",
          "name": "",
          "type": "uint256"
        }
      ],
      "payable": false,
      "stateMutability": "view",
      "type": "function"
    },
    {
      "constant": false,
      "inputs": [],
      "name": "totalBorrowsCurrent",
      "outputs": [
        {
          "internalType": "uint256",
          "name": "",
          "type": "uint256"
        }
      ],
      "payable": false,
      "stateMutability": "nonpayable",
      "type": "function"
    },
    {
      "constant": true,
      "inputs": [],
      "name": "totalReserves",
      "outputs": [
        {
          "internalType": "uint256",
          "name": "",
          "type": "uint256"
        }
      ],
      "payable": false,
      "stateMutability": "view",
      "type": "function"
    },
    {
      "constant": true,
      "inputs": [],
      "name": "totalSupply",
      "outputs": [
        {
          "internalType": "uint256",
          "name": "",
          "type": "uint256"
        }
      ],
      "payable": false,
      "stateMutability": "view",
      "type": "function"
    },
    {
      "constant": false,
      "inputs": [
        {
          "internalType": "address",
          "name": "dst",
          "type": "address"
        },
        {
          "internalType": "uint256",
          "name": "amount",
          "type": "uint256"
        }
      ],
      "name": "transfer",
      "outputs": [
        {
          "internalType": "bool",
          "name": "",
          "type": "bool"
        }
      ],
      "payable": false,
      "stateMutability": "nonpayable",
      "type": "function"
    },
    {
      "constant": false,
      "inputs": [
        {
          "internalType": "address",
          "name": "src",
          "type": "address"
        },
        {
          "internalType": "address",
          "name": "dst",
          "type": "address"
        },
        {
          "internalType": "uint256",
          "name": "amount",
          "type": "uint256"
        }
      ],
      "name": "transferFrom",
      "outputs": [
        {
          "internalType": "bool",
          "name": "",
          "type": "bool"
        }
      ],
      "payable": false,
      "stateMutability": "nonpayable",
      "type": "function"
    },
    {
      "constant": true,
      "inputs": [],
      "name": "underlying",
      "outputs": [
        {
          "internalType": "address",
          "name": "",
          "type": "address"
        }
      ],
      "payable": false,
      "stateMutability": "view",
      "type": "function"
    }
  ],
  "transactionHash": "0xb39c2ab60cf08ca9af68b094cb93e73315eddbf3570561860559158fa760273c",
  "args": [
    "0x0bc529c00C6401aEF6D220BE8C6Ea1667F6Ad93e",
    "0x4dCf7407AE5C07f8681e1659f626E114A7667339",
    "0x8f0439382359c05ED287Acd5170757B76402D93F",
    "200000000000000000000000000",
    "Anchor YFI",
    "anYFI",
    "8",
    "0x3FcB35a1CbFB6007f9BC638D388958Bc4550cB28",
    "0x469788fE6E9E9681C6ebF3bF78e7Fd26Fc015446"
  ],
  "solcInputHash": "e6c3eb2c3fca8d023b00afba85ad39c7",
  "bytecode": "0x60806040523480156200001157600080fd5b5060405162005a5538038062005a5583398181016040526101208110156200003857600080fd5b81516020830151604080850151606086015160808701805193519597949692959194919392820192846401000000008211156200007457600080fd5b9083019060208201858111156200008a57600080fd5b8251640100000000811182820188101715620000a557600080fd5b82525081516020918201929091019080838360005b83811015620000d4578181015183820152602001620000ba565b50505050905090810190601f168015620001025780820380516001836020036101000a031916815260200191505b50604052602001805160405193929190846401000000008211156200012657600080fd5b9083019060208201858111156200013c57600080fd5b82516401000000008111828201881017156200015757600080fd5b82525081516020918201929091019080838360005b83811015620001865781810151838201526020016200016c565b50505050905090810190601f168015620001b45780820380516001836020036101000a031916815260200191505b50604090815260208201519082015160609092015160038054610100600160a81b0319163361010002179055909350909150620001f7898989898989896200023b565b60038054610100600160a81b0319166101006001600160a01b0394851602179055601280546001600160a01b03191691909216179055506200092595505050505050565b62000256868686868686620002ea60201b620013b31760201c565b601180546001600160a01b0319166001600160a01b038981169190911791829055604080516318160ddd60e01b8152905192909116916318160ddd91600480820192602092909190829003018186803b158015620002b357600080fd5b505afa158015620002c8573d6000803e3d6000fd5b505050506040513d6020811015620002df57600080fd5b505050505050505050565b60035461010090046001600160a01b031633146200033a5760405162461bcd60e51b8152600401808060200182810382526024815260200180620059bc6024913960400191505060405180910390fd5b6009541580156200034b5750600a54155b620003885760405162461bcd60e51b8152600401808060200182810382526023815260200180620059e06023913960400191505060405180910390fd5b600784905583620003cb5760405162461bcd60e51b815260040180806020018281038252603081526020018062005a036030913960400191505060405180910390fd5b6000620003e1876001600160e01b036200050016565b9050801562000437576040805162461bcd60e51b815260206004820152601a60248201527f73657474696e6720636f6d7074726f6c6c6572206661696c6564000000000000604482015290519081900360640190fd5b6200044a6001600160e01b036200066816565b600955670de0b6b3a7640000600a556200046d866001600160e01b036200066d16565b90508015620004ae5760405162461bcd60e51b815260040180806020018281038252602281526020018062005a336022913960400191505060405180910390fd5b8351620004c390600190602087019062000883565b508251620004d990600290602086019062000883565b50506003805460ff90921660ff199283161790556000805490911660011790555050505050565b60035460009061010090046001600160a01b031633146200053a57620005326001603f6001600160e01b036200081316565b905062000663565b60055460408051623f1ee960e11b815290516001600160a01b0392831692851691627e3dd2916004808301926020929190829003018186803b1580156200058057600080fd5b505afa15801562000595573d6000803e3d6000fd5b505050506040513d6020811015620005ac57600080fd5b505162000600576040805162461bcd60e51b815260206004820152601c60248201527f6d61726b6572206d6574686f642072657475726e65642066616c736500000000604482015290519081900360640190fd5b600580546001600160a01b0319166001600160a01b03858116918217909255604080519284168352602083019190915280517f7ac369dbd14fa5ea3f473ed67cc9d598964a77501540ba6751eb0b3decf5870d9281900390910190a160005b9150505b919050565b435b90565b600354600090819061010090046001600160a01b03163314620006aa57620006a1600160426001600160e01b036200081316565b91505062000663565b620006bd6001600160e01b036200066816565b60095414620006dd57620006a1600a60416001600160e01b036200081316565b600660009054906101000a90046001600160a01b03169050826001600160a01b0316632191f92a6040518163ffffffff1660e01b815260040160206040518083038186803b1580156200072f57600080fd5b505afa15801562000744573d6000803e3d6000fd5b505050506040513d60208110156200075b57600080fd5b5051620007af576040805162461bcd60e51b815260206004820152601c60248201527f6d61726b6572206d6574686f642072657475726e65642066616c736500000000604482015290519081900360640190fd5b600680546001600160a01b0319166001600160a01b03858116918217909255604080519284168352602083019190915280517fedffc32e068c7c95dfd4bdfd5c4d939a084d6b11c4199eac8436ed234d72f9269281900390910190a160006200065f565b60007f45b96fe442630264581b197e84bbada861235052c5a1aadfff9ea4e40a969aa08360108111156200084357fe5b8360508111156200085057fe5b604080519283526020830191909152600082820152519081900360600190a18260108111156200087c57fe5b9392505050565b828054600181600116156101000203166002900490600052602060002090601f016020900481019282601f10620008c657805160ff1916838001178555620008f6565b82800160010185558215620008f6579182015b82811115620008f6578251825591602001919060010190620008d9565b506200090492915062000908565b5090565b6200066a91905b808211156200090457600081556001016200090f565b61508780620009356000396000f3fe608060405234801561001057600080fd5b50600436106102d65760003560e01c8063852a12e311610182578063bd6d894d116100e9578063f2b3abbd116100a2578063f851a4401161007c578063f851a44014610a91578063f8f9da2814610a99578063fca7820b14610aa1578063fe9c44ae14610abe576102d6565b8063f2b3abbd14610a2d578063f3fdb15a14610a53578063f5e3c46214610a5b576102d6565b8063bd6d894d14610969578063c37f68e214610971578063c5ebeaec146109bd578063db006a75146109da578063dd62ed3e146109f7578063e9c714f214610a25576102d6565b8063a6afed951161013b578063a6afed95146108c9578063a9059cbb146108d1578063aa5af0fd146108fd578063ae9d70b014610905578063b2a02ff11461090d578063b71d1a0c14610943576102d6565b8063852a12e31461070b5780638f840ddd1461072857806395d89b411461073057806395dd91931461073857806399d8c1b41461075e578063a0712d68146108ac576102d6565b8063313ce567116102415780635c19a95c116101fa5780636c540baf116101d45780636c540baf146106cd5780636f307dc3146106d557806370a08231146106dd57806373acee9814610703576102d6565b80635c19a95c146106825780635fe3b567146106a8578063601a0bf1146106b0576102d6565b8063313ce567146105eb5780633af9e669146106095780633b1d21a21461062f5780633e941010146106375780634576b5db1461065457806347bd37181461067a576102d6565b806318160ddd1161029357806318160ddd14610419578063182df0f5146104215780631a31d4651461042957806323b872dd146105815780632608f818146105b757806326782247146105e3576102d6565b806306fdde03146102db578063095ea7b3146103585780630e7527021461039857806313bfffac146103c7578063173b9904146103eb57806317bfdfbc146103f3575b600080fd5b6102e3610ac6565b6040805160208082528351818301528351919283929083019185019080838360005b8381101561031d578181015183820152602001610305565b50505050905090810190601f16801561034a5780820380516001836020036101000a031916815260200191505b509250505060405180910390f35b6103846004803603604081101561036e57600080fd5b506001600160a01b038135169060200135610b53565b604080519115158252519081900360200190f35b6103b5600480360360208110156103ae57600080fd5b5035610bc0565b60408051918252519081900360200190f35b6103cf610bd6565b604080516001600160a01b039092168252519081900360200190f35b6103b5610be5565b6103b56004803603602081101561040957600080fd5b50356001600160a01b0316610beb565b6103b5610cab565b6103b5610cb1565b61057f600480360360e081101561043f57600080fd5b6001600160a01b03823581169260208101358216926040820135909216916060820135919081019060a081016080820135600160201b81111561048157600080fd5b82018360208201111561049357600080fd5b803590602001918460018302840111600160201b831117156104b457600080fd5b91908080601f0160208091040260200160405190810160405280939291908181526020018383808284376000920191909152509295949360208101935035915050600160201b81111561050657600080fd5b82018360208201111561051857600080fd5b803590602001918460018302840111600160201b8311171561053957600080fd5b91908080601f0160208091040260200160405190810160405280939291908181526020018383808284376000920191909152509295505050903560ff169150610d149050565b005b6103846004803603606081101561059757600080fd5b506001600160a01b03813581169160208101359091169060400135610db3565b6103b5600480360360408110156105cd57600080fd5b506001600160a01b038135169060200135610e25565b6103cf610e3b565b6105f3610e4a565b6040805160ff9092168252519081900360200190f35b6103b56004803603602081101561061f57600080fd5b50356001600160a01b0316610e53565b6103b5610f09565b6103b56004803603602081101561064d57600080fd5b5035610f18565b6103b56004803603602081101561066a57600080fd5b50356001600160a01b0316610f23565b6103b5611078565b61057f6004803603602081101561069857600080fd5b50356001600160a01b031661107e565b6103cf61115d565b6103b5600480360360208110156106c657600080fd5b503561116c565b6103b5611207565b6103cf61120d565b6103b5600480360360208110156106f357600080fd5b50356001600160a01b031661121c565b6103b5611237565b6103b56004803603602081101561072157600080fd5b50356112ed565b6103b56112f8565b6102e36112fe565b6103b56004803603602081101561074e57600080fd5b50356001600160a01b0316611356565b61057f600480360360c081101561077457600080fd5b6001600160a01b03823581169260208101359091169160408201359190810190608081016060820135600160201b8111156107ae57600080fd5b8201836020820111156107c057600080fd5b803590602001918460018302840111600160201b831117156107e157600080fd5b91908080601f0160208091040260200160405190810160405280939291908181526020018383808284376000920191909152509295949360208101935035915050600160201b81111561083357600080fd5b82018360208201111561084557600080fd5b803590602001918460018302840111600160201b8311171561086657600080fd5b91908080601f0160208091040260200160405190810160405280939291908181526020018383808284376000920191909152509295505050903560ff1691506113b39050565b6103b5600480360360208110156108c257600080fd5b503561159a565b6103b56115a6565b610384600480360360408110156108e757600080fd5b506001600160a01b0381351690602001356118fe565b6103b561196f565b6103b5611975565b6103b56004803603606081101561092357600080fd5b506001600160a01b03813581169160208101359091169060400135611a14565b6103b56004803603602081101561095957600080fd5b50356001600160a01b0316611a85565b6103b5611b11565b6109976004803603602081101561098757600080fd5b50356001600160a01b0316611bcd565b604080519485526020850193909352838301919091526060830152519081900360800190f35b6103b5600480360360208110156109d357600080fd5b5035611c62565b6103b5600480360360208110156109f057600080fd5b5035611c6d565b6103b560048036036040811015610a0d57600080fd5b506001600160a01b0381358116916020013516611c78565b6103b5611ca3565b6103b560048036036020811015610a4357600080fd5b50356001600160a01b0316611da6565b6103cf611de0565b6103b560048036036060811015610a7157600080fd5b506001600160a01b03813581169160208101359160409091013516611def565b6103cf611e07565b6103b5611e1b565b6103b560048036036020811015610ab757600080fd5b5035611e7f565b610384611efd565b60018054604080516020600284861615610100026000190190941693909304601f81018490048402820184019092528181529291830182828015610b4b5780601f10610b2057610100808354040283529160200191610b4b565b820191906000526020600020905b815481529060010190602001808311610b2e57829003601f168201915b505050505081565b336000818152600f602090815260408083206001600160a01b03871680855290835281842086905581518681529151939493909284927f8c5be1e5ebec7d5bd14f71427d1e84f3dd0314c0f7b2291e5b200ac8c7c3b925929081900390910190a360019150505b92915050565b600080610bcc83611f02565b509150505b919050565b6012546001600160a01b031681565b60085481565b6000805460ff16610c30576040805162461bcd60e51b815260206004820152600a6024820152691c994b595b9d195c995960b21b604482015290519081900360640190fd5b6000805460ff19168155610c426115a6565b14610c8d576040805162461bcd60e51b81526020600482015260166024820152751858d8dc9d59481a5b9d195c995cdd0819985a5b195960521b604482015290519081900360640190fd5b610c9682611356565b90505b6000805460ff19166001179055919050565b600d5481565b6000806000610cbe611fab565b90925090506000826003811115610cd157fe5b14610d0d5760405162461bcd60e51b8152600401808060200182810382526035815260200180614f9e6035913960400191505060405180910390fd5b9150505b90565b610d228686868686866113b3565b601180546001600160a01b0319166001600160a01b038981169190911791829055604080516318160ddd60e01b8152905192909116916318160ddd91600480820192602092909190829003018186803b158015610d7e57600080fd5b505afa158015610d92573d6000803e3d6000fd5b505050506040513d6020811015610da857600080fd5b505050505050505050565b6000805460ff16610df8576040805162461bcd60e51b815260206004820152600a6024820152691c994b595b9d195c995960b21b604482015290519081900360640190fd5b6000805460ff19168155610e0e3386868661205a565b1490506000805460ff191660011790559392505050565b600080610e328484612368565b50949350505050565b6004546001600160a01b031681565b60035460ff1681565b6000610e5d614c8c565b6040518060200160405280610e70611b11565b90526001600160a01b0384166000908152600e6020526040812054919250908190610e9c908490612413565b90925090506000826003811115610eaf57fe5b14610f01576040805162461bcd60e51b815260206004820152601f60248201527f62616c616e636520636f756c64206e6f742062652063616c63756c6174656400604482015290519081900360640190fd5b949350505050565b6000610f13612467565b905090565b6000610bba826124e7565b60035460009061010090046001600160a01b03163314610f5057610f496001603f61257b565b9050610bd1565b60055460408051623f1ee960e11b815290516001600160a01b0392831692851691627e3dd2916004808301926020929190829003018186803b158015610f9557600080fd5b505afa158015610fa9573d6000803e3d6000fd5b505050506040513d6020811015610fbf57600080fd5b5051611012576040805162461bcd60e51b815260206004820152601c60248201527f6d61726b6572206d6574686f642072657475726e65642066616c736500000000604482015290519081900360640190fd5b600580546001600160a01b0319166001600160a01b03858116918217909255604080519284168352602083019190915280517f7ac369dbd14fa5ea3f473ed67cc9d598964a77501540ba6751eb0b3decf5870d9281900390910190a160005b9392505050565b600b5481565b60035461010090046001600160a01b031633146110e2576040805162461bcd60e51b815260206004820152601760248201527f6f6e6c792061646d696e206d61792064656c6567617465000000000000000000604482015290519081900360640190fd5b601254604080516317b0dca160e31b8152680f2c4c2c4f25ccae8d60bb1b60048201526001600160a01b0384811660248301529151919092169163bd86e50891604480830192600092919082900301818387803b15801561114257600080fd5b505af1158015611156573d6000803e3d6000fd5b5050505050565b6005546001600160a01b031681565b6000805460ff166111b1576040805162461bcd60e51b815260206004820152600a6024820152691c994b595b9d195c995960b21b604482015290519081900360640190fd5b6000805460ff191681556111c36115a6565b905080156111e9576111e18160108111156111da57fe5b603061257b565b915050610c99565b6111f2836125e1565b9150506000805460ff19166001179055919050565b60095481565b6011546001600160a01b031681565b6001600160a01b03166000908152600e602052604090205490565b6000805460ff1661127c576040805162461bcd60e51b815260206004820152600a6024820152691c994b595b9d195c995960b21b604482015290519081900360640190fd5b6000805460ff1916815561128e6115a6565b146112d9576040805162461bcd60e51b81526020600482015260166024820152751858d8dc9d59481a5b9d195c995cdd0819985a5b195960521b604482015290519081900360640190fd5b50600b546000805460ff1916600117905590565b6000610bba82612714565b600c5481565b6002805460408051602060018416156101000260001901909316849004601f81018490048402820184019092528181529291830182828015610b4b5780601f10610b2057610100808354040283529160200191610b4b565b600080600061136484612795565b9092509050600082600381111561137757fe5b146110715760405162461bcd60e51b8152600401808060200182810382526037815260200180614ea96037913960400191505060405180910390fd5b60035461010090046001600160a01b031633146114015760405162461bcd60e51b8152600401808060200182810382526024815260200180614de56024913960400191505060405180910390fd5b6009541580156114115750600a54155b61144c5760405162461bcd60e51b8152600401808060200182810382526023815260200180614e096023913960400191505060405180910390fd5b60078490558361148d5760405162461bcd60e51b8152600401808060200182810382526030815260200180614e2c6030913960400191505060405180910390fd5b600061149887610f23565b905080156114ed576040805162461bcd60e51b815260206004820152601a60248201527f73657474696e6720636f6d7074726f6c6c6572206661696c6564000000000000604482015290519081900360640190fd5b6114f5612849565b600955670de0b6b3a7640000600a5561150d8661284d565b9050801561154c5760405162461bcd60e51b8152600401808060200182810382526022815260200180614e5c6022913960400191505060405180910390fd5b835161155f906001906020870190614c9f565b508251611573906002906020860190614c9f565b50506003805460ff90921660ff199283161790556000805490911660011790555050505050565b600080610bcc836129c2565b6000806115b1612849565b600954909150808214156115ca57600092505050610d11565b60006115d4612467565b600b54600c54600a54600654604080516315f2405360e01b815260048101879052602481018690526044810185905290519596509394929391926000926001600160a01b03909216916315f24053916064808301926020929190829003018186803b15801561164257600080fd5b505afa158015611656573d6000803e3d6000fd5b505050506040513d602081101561166c57600080fd5b5051905065048c273950008111156116cb576040805162461bcd60e51b815260206004820152601c60248201527f626f72726f772072617465206973206162737572646c79206869676800000000604482015290519081900360640190fd5b6000806116d88989612a43565b909250905060008260038111156116eb57fe5b1461173d576040805162461bcd60e51b815260206004820152601f60248201527f636f756c64206e6f742063616c63756c61746520626c6f636b2064656c746100604482015290519081900360640190fd5b611745614c8c565b60008060008061176360405180602001604052808a81525087612a66565b9097509450600087600381111561177657fe5b146117a8576117936009600689600381111561178e57fe5b612ace565b9e505050505050505050505050505050610d11565b6117b2858c612413565b909750935060008760038111156117c557fe5b146117dd576117936009600189600381111561178e57fe5b6117e7848c612b34565b909750925060008760038111156117fa57fe5b14611812576117936009600489600381111561178e57fe5b61182d6040518060200160405280600854815250858c612b5a565b9097509150600087600381111561184057fe5b14611858576117936009600589600381111561178e57fe5b611863858a8b612b5a565b9097509050600087600381111561187657fe5b1461188e576117936009600389600381111561178e57fe5b60098e9055600a819055600b839055600c829055604080518d8152602081018690528082018390526060810185905290517f4dec04e750ca11537cabcd8a9eab06494de08da3735bc8871cd41250e190bc049181900360800190a160009e50505050505050505050505050505090565b6000805460ff16611943576040805162461bcd60e51b815260206004820152600a6024820152691c994b595b9d195c995960b21b604482015290519081900360640190fd5b6000805460ff191681556119593333868661205a565b1490506000805460ff1916600117905592915050565b600a5481565b6006546000906001600160a01b031663b8168816611991612467565b600b54600c546008546040518563ffffffff1660e01b81526004018085815260200184815260200183815260200182815260200194505050505060206040518083038186803b1580156119e357600080fd5b505afa1580156119f7573d6000803e3d6000fd5b505050506040513d6020811015611a0d57600080fd5b5051905090565b6000805460ff16611a59576040805162461bcd60e51b815260206004820152600a6024820152691c994b595b9d195c995960b21b604482015290519081900360640190fd5b6000805460ff19169055611a6f33858585612bb6565b90506000805460ff191660011790559392505050565b60035460009061010090046001600160a01b03163314611aab57610f496001604561257b565b600480546001600160a01b038481166001600160a01b0319831681179093556040805191909216808252602082019390935281517fca4f2f25d0898edd99413412fb94012f9e54ec8142f9b093e7720646a95b16a9929181900390910190a16000611071565b6000805460ff16611b56576040805162461bcd60e51b815260206004820152600a6024820152691c994b595b9d195c995960b21b604482015290519081900360640190fd5b6000805460ff19168155611b686115a6565b14611bb3576040805162461bcd60e51b81526020600482015260166024820152751858d8dc9d59481a5b9d195c995cdd0819985a5b195960521b604482015290519081900360640190fd5b611bbb610cb1565b90506000805460ff1916600117905590565b6001600160a01b0381166000908152600e6020526040812054819081908190818080611bf889612795565b935090506000816003811115611c0a57fe5b14611c285760095b975060009650869550859450611c5b9350505050565b611c30611fab565b925090506000816003811115611c4257fe5b14611c4e576009611c12565b5060009650919450925090505b9193509193565b6000610bba82612e1c565b6000610bba82612e9b565b6001600160a01b039182166000908152600f6020908152604080832093909416825291909152205490565b6004546000906001600160a01b031633141580611cbe575033155b15611cd657611ccf6001600061257b565b9050610d11565b60038054600480546001600160a01b03818116610100818102610100600160a81b0319871617968790556001600160a01b031990931690935560408051948390048216808652929095041660208401528351909391927ff9ffabca9c8276e99321725bcb43fb076a6c66a54b7f21c4e8146d8519b417dc92908290030190a1600454604080516001600160a01b038085168252909216602083015280517fca4f2f25d0898edd99413412fb94012f9e54ec8142f9b093e7720646a95b16a99281900390910190a160009250505090565b600080611db16115a6565b90508015611dd757611dcf816010811115611dc857fe5b604061257b565b915050610bd1565b6110718361284d565b6006546001600160a01b031681565b600080611dfd858585612f15565b5095945050505050565b60035461010090046001600160a01b031681565b6006546000906001600160a01b03166315f24053611e37612467565b600b54600c546040518463ffffffff1660e01b815260040180848152602001838152602001828152602001935050505060206040518083038186803b1580156119e357600080fd5b6000805460ff16611ec4576040805162461bcd60e51b815260206004820152600a6024820152691c994b595b9d195c995960b21b604482015290519081900360640190fd5b6000805460ff19168155611ed66115a6565b90508015611ef4576111e1816010811115611eed57fe5b604661257b565b6111f283613047565b600181565b60008054819060ff16611f49576040805162461bcd60e51b815260206004820152600a6024820152691c994b595b9d195c995960b21b604482015290519081900360640190fd5b6000805460ff19168155611f5b6115a6565b90508015611f8657611f79816010811115611f7257fe5b603661257b565b925060009150611f979050565b611f913333866130ef565b92509250505b6000805460ff191660011790559092909150565b600d54600090819080611fc657505060075460009150612056565b6000611fd0612467565b90506000611fdc614c8c565b6000611fed84600b54600c546134d4565b935090506000816003811115611fff57fe5b14612014579550600094506120569350505050565b61201e8386613512565b92509050600081600381111561203057fe5b14612045579550600094506120569350505050565b505160009550935061205692505050565b9091565b600554604080516317b9b84b60e31b81523060048201526001600160a01b03868116602483015285811660448301526064820185905291516000938493169163bdcdc25891608480830192602092919082900301818787803b1580156120bf57600080fd5b505af11580156120d3573d6000803e3d6000fd5b505050506040513d60208110156120e957600080fd5b505190508015612108576121006003604a83612ace565b915050610f01565b836001600160a01b0316856001600160a01b0316141561212e576121006002604b61257b565b60006001600160a01b03878116908716141561214d5750600019612175565b506001600160a01b038086166000908152600f60209081526040808320938a16835292905220545b6000806000806121858589612a43565b9094509250600084600381111561219857fe5b146121b6576121a96009604b61257b565b9650505050505050610f01565b6001600160a01b038a166000908152600e60205260409020546121d99089612a43565b909450915060008460038111156121ec57fe5b146121fd576121a96009604c61257b565b6001600160a01b0389166000908152600e60205260409020546122209089612b34565b9094509050600084600381111561223357fe5b14612244576121a96009604d61257b565b6001600160a01b03808b166000908152600e6020526040808220859055918b16815220819055600019851461229c576001600160a01b03808b166000908152600f60209081526040808320938f168352929052208390555b886001600160a01b03168a6001600160a01b0316600080516020614f1a8339815191528a6040518082815260200191505060405180910390a36005546040805163352b4a3f60e11b81523060048201526001600160a01b038d811660248301528c81166044830152606482018c905291519190921691636a56947e91608480830192600092919082900301818387803b15801561233857600080fd5b505af115801561234c573d6000803e3d6000fd5b5060009250612359915050565b9b9a5050505050505050505050565b60008054819060ff166123af576040805162461bcd60e51b815260206004820152600a6024820152691c994b595b9d195c995960b21b604482015290519081900360640190fd5b6000805460ff191681556123c16115a6565b905080156123ec576123df8160108111156123d857fe5b603561257b565b9250600091506123fd9050565b6123f73386866130ef565b92509250505b6000805460ff1916600117905590939092509050565b6000806000612420614c8c565b61242a8686612a66565b9092509050600082600381111561243d57fe5b1461244e5750915060009050612460565b6000612459826135c2565b9350935050505b9250929050565b601154604080516370a0823160e01b815230600482015290516000926001600160a01b03169182916370a0823191602480820192602092909190829003018186803b1580156124b557600080fd5b505afa1580156124c9573d6000803e3d6000fd5b505050506040513d60208110156124df57600080fd5b505191505090565b6000805460ff1661252c576040805162461bcd60e51b815260206004820152600a6024820152691c994b595b9d195c995960b21b604482015290519081900360640190fd5b6000805460ff1916815561253e6115a6565b9050801561255c576111e181601081111561255557fe5b604e61257b565b612565836135d1565b509150506000805460ff19166001179055919050565b60007f45b96fe442630264581b197e84bbada861235052c5a1aadfff9ea4e40a969aa08360108111156125aa57fe5b8360508111156125b657fe5b604080519283526020830191909152600082820152519081900360600190a182601081111561107157fe5b600354600090819061010090046001600160a01b0316331461260957611dcf6001603161257b565b612611612849565b6009541461262557611dcf600a603361257b565b8261262e612467565b101561264057611dcf600e603261257b565b600c5483111561265657611dcf6002603461257b565b50600c548281039081111561269c5760405162461bcd60e51b815260040180806020018281038252602481526020018061502f6024913960400191505060405180910390fd5b600c8190556003546126bc9061010090046001600160a01b0316846136b9565b600354604080516101009092046001600160a01b0316825260208201859052818101839052517f3bad0c59cf2f06e7314077049f48a93578cd16f5ef92329f1dab1420a99c177e916060908290030190a16000611071565b6000805460ff16612759576040805162461bcd60e51b815260206004820152600a6024820152691c994b595b9d195c995960b21b604482015290519081900360640190fd5b6000805460ff1916815561276b6115a6565b90508015612789576111e181601081111561278257fe5b602761257b565b6111f2336000856137b0565b6001600160a01b0381166000908152601060205260408120805482918291829182916127cc57506000945084935061284492505050565b6127dc8160000154600a54613c77565b909450925060008460038111156127ef57fe5b14612804575091935060009250612844915050565b612812838260010154613cb6565b9094509150600084600381111561282557fe5b1461283a575091935060009250612844915050565b5060009450925050505b915091565b4390565b600354600090819061010090046001600160a01b0316331461287557611dcf6001604261257b565b61287d612849565b6009541461289157611dcf600a604161257b565b600660009054906101000a90046001600160a01b03169050826001600160a01b0316632191f92a6040518163ffffffff1660e01b815260040160206040518083038186803b1580156128e257600080fd5b505afa1580156128f6573d6000803e3d6000fd5b505050506040513d602081101561290c57600080fd5b505161295f576040805162461bcd60e51b815260206004820152601c60248201527f6d61726b6572206d6574686f642072657475726e65642066616c736500000000604482015290519081900360640190fd5b600680546001600160a01b0319166001600160a01b03858116918217909255604080519284168352602083019190915280517fedffc32e068c7c95dfd4bdfd5c4d939a084d6b11c4199eac8436ed234d72f9269281900390910190a16000611071565b60008054819060ff16612a09576040805162461bcd60e51b815260206004820152600a6024820152691c994b595b9d195c995960b21b604482015290519081900360640190fd5b6000805460ff19168155612a1b6115a6565b90508015612a3957611f79816010811115612a3257fe5b601e61257b565b611f913385613ce1565b600080838311612a5a575060009050818303612460565b50600390506000612460565b6000612a70614c8c565b600080612a81866000015186613c77565b90925090506000826003811115612a9457fe5b14612ab357506040805160208101909152600081529092509050612460565b60408051602081019091529081526000969095509350505050565b60007f45b96fe442630264581b197e84bbada861235052c5a1aadfff9ea4e40a969aa0846010811115612afd57fe5b846050811115612b0957fe5b604080519283526020830191909152818101859052519081900360600190a1836010811115610f0157fe5b600080838301848110612b4c57600092509050612460565b506002915060009050612460565b6000806000612b67614c8c565b612b718787612a66565b90925090506000826003811115612b8457fe5b14612b955750915060009050612bae565b612ba7612ba1826135c2565b86612b34565b9350935050505b935093915050565b6005546040805163d02f735160e01b81523060048201526001600160a01b038781166024830152868116604483015285811660648301526084820185905291516000938493169163d02f73519160a480830192602092919082900301818787803b158015612c2357600080fd5b505af1158015612c37573d6000803e3d6000fd5b505050506040513d6020811015612c4d57600080fd5b505190508015612c64576121006003601b83612ace565b846001600160a01b0316846001600160a01b03161415612c8a576121006006601c61257b565b6001600160a01b0384166000908152600e602052604081205481908190612cb19087612a43565b90935091506000836003811115612cc457fe5b14612ce757612cdc6009601a85600381111561178e57fe5b945050505050610f01565b6001600160a01b0388166000908152600e6020526040902054612d0a9087612b34565b90935090506000836003811115612d1d57fe5b14612d3557612cdc6009601985600381111561178e57fe5b6001600160a01b038088166000818152600e60209081526040808320879055938c168083529184902085905583518a815293519193600080516020614f1a833981519152929081900390910190a360055460408051636d35bf9160e01b81523060048201526001600160a01b038c811660248301528b811660448301528a81166064830152608482018a905291519190921691636d35bf919160a480830192600092919082900301818387803b158015612dee57600080fd5b505af1158015612e02573d6000803e3d6000fd5b5060009250612e0f915050565b9998505050505050505050565b6000805460ff16612e61576040805162461bcd60e51b815260206004820152600a6024820152691c994b595b9d195c995960b21b604482015290519081900360640190fd5b6000805460ff19168155612e736115a6565b90508015612e91576111e1816010811115612e8a57fe5b600861257b565b6111f23384614140565b6000805460ff16612ee0576040805162461bcd60e51b815260206004820152600a6024820152691c994b595b9d195c995960b21b604482015290519081900360640190fd5b6000805460ff19168155612ef26115a6565b90508015612f09576111e181601081111561278257fe5b6111f2338460006137b0565b60008054819060ff16612f5c576040805162461bcd60e51b815260206004820152600a6024820152691c994b595b9d195c995960b21b604482015290519081900360640190fd5b6000805460ff19168155612f6e6115a6565b90508015612f9957612f8c816010811115612f8557fe5b600f61257b565b9250600091506130309050565b836001600160a01b031663a6afed956040518163ffffffff1660e01b8152600401602060405180830381600087803b158015612fd457600080fd5b505af1158015612fe8573d6000803e3d6000fd5b505050506040513d6020811015612ffe57600080fd5b50519050801561301e57612f8c81601081111561301757fe5b601061257b565b61302a3387878761444e565b92509250505b6000805460ff191660011790559094909350915050565b60035460009061010090046001600160a01b0316331461306d57610f496001604761257b565b613075612849565b6009541461308957610f49600a604861257b565b670de0b6b3a76400008211156130a557610f496002604961257b565b6008805490839055604080518281526020810185905281517faaa68312e2ea9d50e16af5068410ab56e1a1fd06037b1a35664812c30f821460929181900390910190a16000611071565b60055460408051631200453160e11b81523060048201526001600160a01b0386811660248301528581166044830152606482018590529151600093849384939116916324008a629160848082019260209290919082900301818787803b15801561315857600080fd5b505af115801561316c573d6000803e3d6000fd5b505050506040513d602081101561318257600080fd5b5051905080156131a6576131996003603883612ace565b925060009150612bae9050565b6131ae612849565b600954146131c257613199600a603961257b565b6131ca614d1d565b6001600160a01b03861660009081526010602052604090206001015460608201526131f486612795565b608083018190526020830182600381111561320b57fe5b600381111561321657fe5b905250600090508160200151600381111561322d57fe5b1461325757613249600960378360200151600381111561178e57fe5b935060009250612bae915050565b6000198514156132705760808101516040820152613278565b604081018590525b6132868782604001516149d1565b60e08201819052608082015161329b91612a43565b60a08301819052602083018260038111156132b257fe5b60038111156132bd57fe5b90525060009050816020015160038111156132d457fe5b146133105760405162461bcd60e51b815260040180806020018281038252603a815260200180614ee0603a913960400191505060405180910390fd5b613320600b548260e00151612a43565b60c083018190526020830182600381111561333757fe5b600381111561334257fe5b905250600090508160200151600381111561335957fe5b146133955760405162461bcd60e51b8152600401808060200182810382526031815260200180614f3a6031913960400191505060405180910390fd5b60a080820180516001600160a01b03808a16600081815260106020908152604091829020948555600a5460019095019490945560c0870151600b81905560e088015195518251948f16855294840192909252828101949094526060820192909252608081019190915290517f1a2a22cb034d26d1854bdc6666a5b91fe25efbbb5dcad3b0355478d6f5c362a1929181900390910190a160055460e0820151606083015160408051631ededc9160e01b81523060048201526001600160a01b038c811660248301528b8116604483015260648201949094526084810192909252519190921691631ededc919160a480830192600092919082900301818387803b1580156134a057600080fd5b505af11580156134b4573d6000803e3d6000fd5b50600092506134c1915050565b8160e00151935093505050935093915050565b6000806000806134e48787612b34565b909250905060008260038111156134f757fe5b146135085750915060009050612bae565b612ba78186612a43565b600061351c614c8c565b60008061353186670de0b6b3a7640000613c77565b9092509050600082600381111561354457fe5b1461356357506040805160208101909152600081529092509050612460565b6000806135708388613cb6565b9092509050600082600381111561358357fe5b146135a557506040805160208101909152600081529094509250612460915050565b604080516020810190915290815260009890975095505050505050565b51670de0b6b3a7640000900490565b6000806000806135df612849565b600954146135fe576135f3600a604f61257b565b935091506128449050565b61360833866149d1565b905080600c54019150600c54821015613668576040805162461bcd60e51b815260206004820181905260248201527f61646420726573657276657320756e6578706563746564206f766572666c6f77604482015290519081900360640190fd5b600c829055604080513381526020810183905280820184905290517fa91e67c5ea634cd43a12c5a482724b03de01e85ca68702a53d0c2f45cb7c1dc59181900360600190a160009350915050915091565b6011546040805163a9059cbb60e01b81526001600160a01b0385811660048301526024820185905291519190921691829163a9059cbb9160448082019260009290919082900301818387803b15801561371157600080fd5b505af1158015613725573d6000803e3d6000fd5b5050505060003d60008114613741576020811461374b57600080fd5b6000199150613757565b60206000803e60005191505b50806137aa576040805162461bcd60e51b815260206004820152601960248201527f544f4b454e5f5452414e534645525f4f55545f4641494c454400000000000000604482015290519081900360640190fd5b50505050565b60008215806137bd575081155b6137f85760405162461bcd60e51b8152600401808060200182810382526034815260200180614ffb6034913960400191505060405180910390fd5b613800614d63565b613808611fab565b604083018190526020830182600381111561381f57fe5b600381111561382a57fe5b905250600090508160200151600381111561384157fe5b146138655761385d6009602b8360200151600381111561178e57fe5b915050611071565b83156138e657606081018490526040805160208101825290820151815261388c9085612413565b60808301819052602083018260038111156138a357fe5b60038111156138ae57fe5b90525060009050816020015160038111156138c557fe5b146138e15761385d600960298360200151600381111561178e57fe5b61395f565b6139028360405180602001604052808460400151815250614c1b565b606083018190526020830182600381111561391957fe5b600381111561392457fe5b905250600090508160200151600381111561393b57fe5b146139575761385d6009602a8360200151600381111561178e57fe5b608081018390525b60055460608201516040805163eabe7d9160e01b81523060048201526001600160a01b03898116602483015260448201939093529051600093929092169163eabe7d919160648082019260209290919082900301818787803b1580156139c457600080fd5b505af11580156139d8573d6000803e3d6000fd5b505050506040513d60208110156139ee57600080fd5b505190508015613a0e57613a056003602883612ace565b92505050611071565b613a16612849565b60095414613a2a57613a05600a602c61257b565b613a3a600d548360600151612a43565b60a0840181905260208401826003811115613a5157fe5b6003811115613a5c57fe5b9052506000905082602001516003811115613a7357fe5b14613a8f57613a056009602e8460200151600381111561178e57fe5b6001600160a01b0386166000908152600e60205260409020546060830151613ab79190612a43565b60c0840181905260208401826003811115613ace57fe5b6003811115613ad957fe5b9052506000905082602001516003811115613af057fe5b14613b0c57613a056009602d8460200151600381111561178e57fe5b8160800151613b19612467565b1015613b2b57613a05600e602f61257b565b613b398683608001516136b9565b60a0820151600d5560c08201516001600160a01b0387166000818152600e6020908152604091829020939093556060850151815190815290513093600080516020614f1a833981519152928290030190a36080820151606080840151604080516001600160a01b038b168152602081019490945283810191909152517fe5b754fb1abb7f01b499791d0b820ae3b6af3424ac1c59768edb53f4ec31a9299281900390910190a160055460808301516060840151604080516351dff98960e01b81523060048201526001600160a01b038b81166024830152604482019490945260648101929092525191909216916351dff98991608480830192600092919082900301818387803b158015613c4c57600080fd5b505af1158015613c60573d6000803e3d6000fd5b5060009250613c6d915050565b9695505050505050565b60008083613c8a57506000905080612460565b83830283858281613c9757fe5b0414613cab57506002915060009050612460565b600092509050612460565b60008082613cca5750600190506000612460565b6000838581613cd557fe5b04915091509250929050565b60055460408051634ef4c3e160e01b81523060048201526001600160a01b03858116602483015260448201859052915160009384938493911691634ef4c3e19160648082019260209290919082900301818787803b158015613d4257600080fd5b505af1158015613d56573d6000803e3d6000fd5b505050506040513d6020811015613d6c57600080fd5b505190508015613d9057613d836003601f83612ace565b9250600091506124609050565b613d98612849565b60095414613dac57613d83600a602261257b565b613db4614d63565b613dbc611fab565b6040830181905260208301826003811115613dd357fe5b6003811115613dde57fe5b9052506000905081602001516003811115613df557fe5b14613e1f57613e11600960218360200151600381111561178e57fe5b935060009250612460915050565b613e2986866149d1565b60c0820181905260408051602081018252908301518152613e4a9190614c1b565b6060830181905260208301826003811115613e6157fe5b6003811115613e6c57fe5b9052506000905081602001516003811115613e8357fe5b14613ed5576040805162461bcd60e51b815260206004820181905260248201527f4d494e545f45584348414e47455f43414c43554c4154494f4e5f4641494c4544604482015290519081900360640190fd5b613ee5600d548260600151612b34565b6080830181905260208301826003811115613efc57fe5b6003811115613f0757fe5b9052506000905081602001516003811115613f1e57fe5b14613f5a5760405162461bcd60e51b8152600401808060200182810382526028815260200180614fd36028913960400191505060405180910390fd5b6001600160a01b0386166000908152600e60205260409020546060820151613f829190612b34565b60a0830181905260208301826003811115613f9957fe5b6003811115613fa457fe5b9052506000905081602001516003811115613fbb57fe5b14613ff75760405162461bcd60e51b815260040180806020018281038252602b815260200180614e7e602b913960400191505060405180910390fd5b6080810151600d5560a08101516001600160a01b0387166000818152600e60209081526040918290209390935560c084015160608086015183519485529484019190915282820193909352517f4c209b5fc8ad50758f13e2e1088ba56a560dff690a1c6fef26394f4c03821c4f929181900390910190a1606081015160408051918252516001600160a01b038816913091600080516020614f1a8339815191529181900360200190a360055460c08201516060830151604080516341c728b960e01b81523060048201526001600160a01b038b81166024830152604482019490945260648101929092525191909216916341c728b991608480830192600092919082900301818387803b15801561410d57600080fd5b505af1158015614121573d6000803e3d6000fd5b506000925061412e915050565b8160c001519350935050509250929050565b6005546040805163368f515360e21b81523060048201526001600160a01b0385811660248301526044820185905291516000938493169163da3d454c91606480830192602092919082900301818787803b15801561419d57600080fd5b505af11580156141b1573d6000803e3d6000fd5b505050506040513d60208110156141c757600080fd5b5051905080156141e6576141de6003600e83612ace565b915050610bba565b6141ee612849565b60095414614201576141de600a8061257b565b8261420a612467565b101561421c576141de600e600961257b565b614224614da1565b61422d85612795565b602083018190528282600381111561424157fe5b600381111561424c57fe5b905250600090508151600381111561426057fe5b146142855761427c600960078360000151600381111561178e57fe5b92505050610bba565b614293816020015185612b34565b60408301819052828260038111156142a757fe5b60038111156142b257fe5b90525060009050815160038111156142c657fe5b146142e25761427c6009600c8360000151600381111561178e57fe5b6142ee600b5485612b34565b606083018190528282600381111561430257fe5b600381111561430d57fe5b905250600090508151600381111561432157fe5b1461433d5761427c6009600b8360000151600381111561178e57fe5b61434785856136b9565b604080820180516001600160a01b03881660008181526010602090815290859020928355600a54600190930192909255606080860151600b81905593518551928352928201899052818501929092529081019190915290517f13ed6866d4e1ee6da46f845c46d7e54120883d75c5ea9a2dacc1c4ca8984ab809181900360800190a160055460408051635c77860560e01b81523060048201526001600160a01b0388811660248301526044820188905291519190921691635c77860591606480830192600092919082900301818387803b15801561442457600080fd5b505af1158015614438573d6000803e3d6000fd5b5060009250614445915050565b95945050505050565b60055460408051632fe3f38f60e11b81523060048201526001600160a01b0384811660248301528781166044830152868116606483015260848201869052915160009384938493911691635fc7e71e9160a48082019260209290919082900301818787803b1580156144bf57600080fd5b505af11580156144d3573d6000803e3d6000fd5b505050506040513d60208110156144e957600080fd5b50519050801561450d576145006003601283612ace565b9250600091506149c89050565b614515612849565b6009541461452957614500600a601661257b565b614531612849565b846001600160a01b0316636c540baf6040518163ffffffff1660e01b815260040160206040518083038186803b15801561456a57600080fd5b505afa15801561457e573d6000803e3d6000fd5b505050506040513d602081101561459457600080fd5b5051146145a757614500600a601161257b565b866001600160a01b0316866001600160a01b031614156145cd576145006006601761257b565b846145de576145006007601561257b565b6000198514156145f4576145006007601461257b565b6000806146028989896130ef565b909250905081156146325761462382601081111561461c57fe5b601861257b565b9450600093506149c892505050565b6005546040805163c488847b60e01b81523060048201526001600160a01b038981166024830152604482018590528251600094859492169263c488847b926064808301939192829003018186803b15801561468c57600080fd5b505afa1580156146a0573d6000803e3d6000fd5b505050506040513d60408110156146b657600080fd5b508051602090910151909250905081156147015760405162461bcd60e51b8152600401808060200182810382526033815260200180614f6b6033913960400191505060405180910390fd5b80886001600160a01b03166370a082318c6040518263ffffffff1660e01b815260040180826001600160a01b03166001600160a01b0316815260200191505060206040518083038186803b15801561475857600080fd5b505afa15801561476c573d6000803e3d6000fd5b505050506040513d602081101561478257600080fd5b505110156147d7576040805162461bcd60e51b815260206004820152601860248201527f4c49515549444154455f5345495a455f544f4f5f4d5543480000000000000000604482015290519081900360640190fd5b60006001600160a01b0389163014156147fd576147f6308d8d85612bb6565b9050614887565b6040805163b2a02ff160e01b81526001600160a01b038e811660048301528d81166024830152604482018590529151918b169163b2a02ff1916064808201926020929091908290030181600087803b15801561485857600080fd5b505af115801561486c573d6000803e3d6000fd5b505050506040513d602081101561488257600080fd5b505190505b80156148d1576040805162461bcd60e51b81526020600482015260146024820152731d1bdad95b881cd95a5e9d5c994819985a5b195960621b604482015290519081900360640190fd5b604080516001600160a01b03808f168252808e1660208301528183018790528b1660608201526080810184905290517f298637f684da70674f26509b10f07ec2fbc77a335ab1e7d6215a4b2484d8bb529181900360a00190a1600554604080516347ef3b3b60e01b81523060048201526001600160a01b038c811660248301528f811660448301528e811660648301526084820188905260a48201869052915191909216916347ef3b3b9160c480830192600092919082900301818387803b15801561499c57600080fd5b505af11580156149b0573d6000803e3d6000fd5b50600092506149bd915050565b975092955050505050505b94509492505050565b601154604080516370a0823160e01b815230600482015290516000926001600160a01b031691839183916370a08231916024808301926020929190829003018186803b158015614a2057600080fd5b505afa158015614a34573d6000803e3d6000fd5b505050506040513d6020811015614a4a57600080fd5b5051604080516323b872dd60e01b81526001600160a01b038881166004830152306024830152604482018890529151929350908416916323b872dd9160648082019260009290919082900301818387803b158015614aa757600080fd5b505af1158015614abb573d6000803e3d6000fd5b5050505060003d60008114614ad75760208114614ae157600080fd5b6000199150614aed565b60206000803e60005191505b5080614b40576040805162461bcd60e51b815260206004820152601860248201527f544f4b454e5f5452414e534645525f494e5f4641494c45440000000000000000604482015290519081900360640190fd5b601154604080516370a0823160e01b815230600482015290516000926001600160a01b0316916370a08231916024808301926020929190829003018186803b158015614b8b57600080fd5b505afa158015614b9f573d6000803e3d6000fd5b505050506040513d6020811015614bb557600080fd5b5051905082811015614c0e576040805162461bcd60e51b815260206004820152601a60248201527f544f4b454e5f5452414e534645525f494e5f4f564552464c4f57000000000000604482015290519081900360640190fd5b9190910395945050505050565b6000806000614c28614c8c565b61242a86866000614c37614c8c565b600080614c4c670de0b6b3a764000087613c77565b90925090506000826003811115614c5f57fe5b14614c7e57506040805160208101909152600081529092509050612460565b612459818660000151613512565b6040518060200160405280600081525090565b828054600181600116156101000203166002900490600052602060002090601f016020900481019282601f10614ce057805160ff1916838001178555614d0d565b82800160010185558215614d0d579182015b82811115614d0d578251825591602001919060010190614cf2565b50614d19929150614dca565b5090565b6040805161010081019091528060008152602001600081526020016000815260200160008152602001600081526020016000815260200160008152602001600081525090565b6040805160e0810190915280600081526020016000815260200160008152602001600081526020016000815260200160008152602001600081525090565b604080516080810190915280600081526020016000815260200160008152602001600081525090565b610d1191905b80821115614d195760008155600101614dd056fe6f6e6c792061646d696e206d617920696e697469616c697a6520746865206d61726b65746d61726b6574206d6179206f6e6c7920626520696e697469616c697a6564206f6e6365696e697469616c2065786368616e67652072617465206d7573742062652067726561746572207468616e207a65726f2e73657474696e6720696e7465726573742072617465206d6f64656c206661696c65644d494e545f4e45575f4143434f554e545f42414c414e43455f43414c43554c4154494f4e5f4641494c4544626f72726f7742616c616e636553746f7265643a20626f72726f7742616c616e636553746f726564496e7465726e616c206661696c656452455041595f424f52524f575f4e45575f4143434f554e545f424f52524f575f42414c414e43455f43414c43554c4154494f4e5f4641494c4544ddf252ad1be2c89b69c2b068fc378daa952ba7f163c4a11628f55a4df523b3ef52455041595f424f52524f575f4e45575f544f54414c5f42414c414e43455f43414c43554c4154494f4e5f4641494c45444c49515549444154455f434f4d5054524f4c4c45525f43414c43554c4154455f414d4f554e545f5345495a455f4641494c454465786368616e67655261746553746f7265643a2065786368616e67655261746553746f726564496e7465726e616c206661696c65644d494e545f4e45575f544f54414c5f535550504c595f43414c43554c4154494f4e5f4641494c45446f6e65206f662072656465656d546f6b656e73496e206f722072656465656d416d6f756e74496e206d757374206265207a65726f72656475636520726573657276657320756e657870656374656420756e646572666c6f77a265627a7a7231582018c1ee8bdbe136e54fb8f7116bc2042c14dad31db8c7a708662e68802793285764736f6c634300051000326f6e6c792061646d696e206d617920696e697469616c697a6520746865206d61726b65746d61726b6574206d6179206f6e6c7920626520696e697469616c697a6564206f6e6365696e697469616c2065786368616e67652072617465206d7573742062652067726561746572207468616e207a65726f2e73657474696e6720696e7465726573742072617465206d6f64656c206661696c6564",
  "devdoc": {
    "methods": {
      "_acceptAdmin()": {
        "details": "Admin function for pending admin to accept role and update admin",
        "return": "uint 0=success, otherwise a failure (see ErrorReporter.sol for details)"
      },
      "_addReserves(uint256)": {
        "params": {
          "addAmount": "The amount fo underlying token to add as reserves"
        },
        "return": "uint 0=success, otherwise a failure (see ErrorReporter.sol for details)"
      },
      "_reduceReserves(uint256)": {
        "params": {
          "reduceAmount": "Amount of reduction to reserves"
        },
        "return": "uint 0=success, otherwise a failure (see ErrorReporter.sol for details)"
      },
      "_setComptroller(address)": {
        "details": "Admin function to set a new comptroller",
        "return": "uint 0=success, otherwise a failure (see ErrorReporter.sol for details)"
      },
      "_setInterestRateModel(address)": {
        "details": "Admin function to accrue interest and update the interest rate model",
        "params": {
          "newInterestRateModel": "the new interest rate model to use"
        },
        "return": "uint 0=success, otherwise a failure (see ErrorReporter.sol for details)"
      },
      "_setPendingAdmin(address)": {
        "details": "Admin function to begin change of admin. The newPendingAdmin must call `_acceptAdmin` to finalize the transfer.",
        "params": {
          "newPendingAdmin": "New pending admin."
        },
        "return": "uint 0=success, otherwise a failure (see ErrorReporter.sol for details)"
      },
      "_setReserveFactor(uint256)": {
        "details": "Admin function to accrue interest and set a new reserve factor",
        "return": "uint 0=success, otherwise a failure (see ErrorReporter.sol for details)"
      },
      "accrueInterest()": {
        "details": "This calculates interest accrued from the last checkpointed block  up to the current block and writes new checkpoint to storage."
      },
      "allowance(address,address)": {
        "params": {
          "owner": "The address of the account which owns the tokens to be spent",
          "spender": "The address of the account which may transfer tokens"
        },
        "return": "The number of tokens allowed to be spent (-1 means infinite)"
      },
      "approve(address,uint256)": {
        "details": "This will overwrite the approval amount for `spender` and is subject to issues noted [here](https://eips.ethereum.org/EIPS/eip-20#approve)",
        "params": {
          "amount": "The number of tokens that are approved (-1 means infinite)",
          "spender": "The address of the account which may transfer tokens"
        },
        "return": "Whether or not the approval succeeded"
      },
      "balanceOf(address)": {
        "params": {
          "owner": "The address of the account to query"
        },
        "return": "The number of tokens owned by `owner`"
      },
      "balanceOfUnderlying(address)": {
        "details": "This also accrues interest in a transaction",
        "params": {
          "owner": "The address of the account to query"
        },
        "return": "The amount of underlying owned by `owner`"
      },
      "borrow(uint256)": {
        "params": {
          "borrowAmount": "The amount of the underlying asset to borrow"
        },
        "return": "uint 0=success, otherwise a failure (see ErrorReporter.sol for details)"
      },
      "borrowBalanceCurrent(address)": {
        "params": {
          "account": "The address whose balance should be calculated after updating borrowIndex"
        },
        "return": "The calculated balance"
      },
      "borrowBalanceStored(address)": {
        "params": {
          "account": "The address whose balance should be calculated"
        },
        "return": "The calculated balance"
      },
      "borrowRatePerBlock()": {
        "return": "The borrow interest rate per block, scaled by 1e18"
      },
      "constructor": {
        "params": {
          "admin_": "Address of the administrator of this token",
          "comptroller_": "The address of the Comptroller",
          "decimals_": "ERC-20 decimal precision of this token",
          "initialExchangeRateMantissa_": "The initial exchange rate, scaled by 1e18",
          "interestRateModel_": "The address of the interest rate model",
          "name_": "ERC-20 name of this token",
          "symbol_": "ERC-20 symbol of this token",
          "underlying_": "The address of the underlying asset"
        }
      },
      "exchangeRateCurrent()": {
        "return": "Calculated exchange rate scaled by 1e18"
      },
      "exchangeRateStored()": {
        "details": "This function does not accrue interest before calculating the exchange rate",
        "return": "Calculated exchange rate scaled by 1e18"
      },
      "getAccountSnapshot(address)": {
        "details": "This is used by comptroller to more efficiently perform liquidity checks.",
        "params": {
          "account": "Address of the account to snapshot"
        },
        "return": "(possible error, token balance, borrow balance, exchange rate mantissa)"
      },
      "getCash()": {
        "return": "The quantity of underlying asset owned by this contract"
      },
      "initialize(address,address,address,uint256,string,string,uint8)": {
        "params": {
          "comptroller_": "The address of the Comptroller",
          "decimals_": "ERC-20 decimal precision of this token",
          "initialExchangeRateMantissa_": "The initial exchange rate, scaled by 1e18",
          "interestRateModel_": "The address of the interest rate model",
          "name_": "ERC-20 name of this token",
          "symbol_": "ERC-20 symbol of this token",
          "underlying_": "The address of the underlying asset"
        }
      },
      "initialize(address,address,uint256,string,string,uint8)": {
        "params": {
          "comptroller_": "The address of the Comptroller",
          "decimals_": "EIP-20 decimal precision of this token",
          "initialExchangeRateMantissa_": "The initial exchange rate, scaled by 1e18",
          "interestRateModel_": "The address of the interest rate model",
          "name_": "EIP-20 name of this token",
          "symbol_": "EIP-20 symbol of this token"
        }
      },
      "liquidateBorrow(address,uint256,address)": {
        "params": {
          "borrower": "The borrower of this cToken to be liquidated",
          "cTokenCollateral": "The market in which to seize collateral from the borrower",
          "repayAmount": "The amount of the underlying borrowed asset to repay"
        },
        "return": "uint 0=success, otherwise a failure (see ErrorReporter.sol for details)"
      },
      "mint(uint256)": {
        "details": "Accrues interest whether or not the operation succeeds, unless reverted",
        "params": {
          "mintAmount": "The amount of the underlying asset to supply"
        },
        "return": "uint 0=success, otherwise a failure (see ErrorReporter.sol for details)"
      },
      "redeem(uint256)": {
        "details": "Accrues interest whether or not the operation succeeds, unless reverted",
        "params": {
          "redeemTokens": "The number of cTokens to redeem into underlying"
        },
        "return": "uint 0=success, otherwise a failure (see ErrorReporter.sol for details)"
      },
      "redeemUnderlying(uint256)": {
        "details": "Accrues interest whether or not the operation succeeds, unless reverted",
        "params": {
          "redeemAmount": "The amount of underlying to redeem"
        },
        "return": "uint 0=success, otherwise a failure (see ErrorReporter.sol for details)"
      },
      "repayBorrow(uint256)": {
        "params": {
          "repayAmount": "The amount to repay"
        },
        "return": "uint 0=success, otherwise a failure (see ErrorReporter.sol for details)"
      },
      "repayBorrowBehalf(address,uint256)": {
        "params": {
          "borrower": "the account with the debt being payed off",
          "repayAmount": "The amount to repay"
        },
        "return": "uint 0=success, otherwise a failure (see ErrorReporter.sol for details)"
      },
      "seize(address,address,uint256)": {
        "details": "Will fail unless called by another cToken during the process of liquidation. Its absolutely critical to use msg.sender as the borrowed cToken and not a parameter.",
        "params": {
          "borrower": "The account having collateral seized",
          "liquidator": "The account receiving seized collateral",
          "seizeTokens": "The number of cTokens to seize"
        },
        "return": "uint 0=success, otherwise a failure (see ErrorReporter.sol for details)"
      },
      "supplyRatePerBlock()": {
        "return": "The supply interest rate per block, scaled by 1e18"
      },
      "totalBorrowsCurrent()": {
        "return": "The total borrows with interest"
      },
      "transfer(address,uint256)": {
        "params": {
          "amount": "The number of tokens to transfer",
          "dst": "The address of the destination account"
        },
        "return": "Whether or not the transfer succeeded"
      },
      "transferFrom(address,address,uint256)": {
        "params": {
          "amount": "The number of tokens to transfer",
          "dst": "The address of the destination account",
          "src": "The address of the source account"
        },
        "return": "Whether or not the transfer succeeded"
      }
    }
  },
  "userdoc": {
    "methods": {
      "_acceptAdmin()": {
        "notice": "Accepts transfer of admin rights. msg.sender must be pendingAdmin"
      },
      "_addReserves(uint256)": {
        "notice": "The sender adds to reserves."
      },
      "_reduceReserves(uint256)": {
        "notice": "Accrues interest and reduces reserves by transferring to admin"
      },
      "_setComptroller(address)": {
        "notice": "Sets a new comptroller for the market"
      },
      "_setInterestRateModel(address)": {
        "notice": "accrues interest and updates the interest rate model using _setInterestRateModelFresh"
      },
      "_setPendingAdmin(address)": {
        "notice": "Begins transfer of admin rights. The newPendingAdmin must call `_acceptAdmin` to finalize the transfer."
      },
      "_setReserveFactor(uint256)": {
        "notice": "accrues interest and sets a new reserve factor for the protocol using _setReserveFactorFresh"
      },
      "accrueInterest()": {
        "notice": "Applies accrued interest to total borrows and reserves"
      },
      "allowance(address,address)": {
        "notice": "Get the current allowance from `owner` for `spender`"
      },
      "approve(address,uint256)": {
        "notice": "Approve `spender` to transfer up to `amount` from `src`"
      },
      "balanceOf(address)": {
        "notice": "Get the token balance of the `owner`"
      },
      "balanceOfUnderlying(address)": {
        "notice": "Get the underlying balance of the `owner`"
      },
      "borrow(uint256)": {
        "notice": "Sender borrows assets from the protocol to their own address"
      },
      "borrowBalanceCurrent(address)": {
        "notice": "Accrue interest to updated borrowIndex and then calculate account's borrow balance using the updated borrowIndex"
      },
      "borrowBalanceStored(address)": {
        "notice": "Return the borrow balance of account based on stored data"
      },
      "borrowRatePerBlock()": {
        "notice": "Returns the current per-block borrow interest rate for this cToken"
      },
      "constructor": "Construct a new money market",
      "exchangeRateCurrent()": {
        "notice": "Accrue interest then return the up-to-date exchange rate"
      },
      "exchangeRateStored()": {
        "notice": "Calculates the exchange rate from the underlying to the CToken"
      },
      "getAccountSnapshot(address)": {
        "notice": "Get a snapshot of the account's balances, and the cached exchange rate"
      },
      "getCash()": {
        "notice": "Get cash balance of this cToken in the underlying asset"
      },
      "initialize(address,address,address,uint256,string,string,uint8)": {
        "notice": "Initialize the new money market"
      },
      "initialize(address,address,uint256,string,string,uint8)": {
        "notice": "Initialize the money market"
      },
      "liquidateBorrow(address,uint256,address)": {
        "notice": "The sender liquidates the borrowers collateral. The collateral seized is transferred to the liquidator."
      },
      "mint(uint256)": {
        "notice": "Sender supplies assets into the market and receives cTokens in exchange"
      },
      "redeem(uint256)": {
        "notice": "Sender redeems cTokens in exchange for the underlying asset"
      },
      "redeemUnderlying(uint256)": {
        "notice": "Sender redeems cTokens in exchange for a specified amount of underlying asset"
      },
      "repayBorrow(uint256)": {
        "notice": "Sender repays their own borrow"
      },
      "repayBorrowBehalf(address,uint256)": {
        "notice": "Sender repays a borrow belonging to borrower"
      },
      "seize(address,address,uint256)": {
        "notice": "Transfers collateral tokens (this market) to the liquidator."
      },
      "supplyRatePerBlock()": {
        "notice": "Returns the current per-block supply interest rate for this cToken"
      },
      "totalBorrowsCurrent()": {
        "notice": "Returns the current total borrows plus accrued interest"
      },
      "transfer(address,uint256)": {
        "notice": "Transfer `amount` tokens from `msg.sender` to `dst`"
      },
      "transferFrom(address,address,uint256)": {
        "notice": "Transfer `amount` tokens from `src` to `dst`"
      }
    }
  },
  "storageLayout": {
    "storage": [
      {
        "astId": 6123,
        "contract": "contracts/CYFI.sol:CYFI",
        "label": "_notEntered",
        "offset": 0,
        "slot": "0",
        "type": "t_bool"
      },
      {
        "astId": 6125,
        "contract": "contracts/CYFI.sol:CYFI",
        "label": "name",
        "offset": 0,
        "slot": "1",
        "type": "t_string_storage"
      },
      {
        "astId": 6127,
        "contract": "contracts/CYFI.sol:CYFI",
        "label": "symbol",
        "offset": 0,
        "slot": "2",
        "type": "t_string_storage"
      },
      {
        "astId": 6129,
        "contract": "contracts/CYFI.sol:CYFI",
        "label": "decimals",
        "offset": 0,
        "slot": "3",
        "type": "t_uint8"
      },
      {
        "astId": 6137,
        "contract": "contracts/CYFI.sol:CYFI",
        "label": "admin",
        "offset": 1,
        "slot": "3",
        "type": "t_address_payable"
      },
      {
        "astId": 6139,
        "contract": "contracts/CYFI.sol:CYFI",
        "label": "pendingAdmin",
        "offset": 0,
        "slot": "4",
        "type": "t_address_payable"
      },
      {
        "astId": 6141,
        "contract": "contracts/CYFI.sol:CYFI",
        "label": "comptroller",
        "offset": 0,
        "slot": "5",
        "type": "t_contract(ComptrollerInterface)30521"
      },
      {
        "astId": 6143,
        "contract": "contracts/CYFI.sol:CYFI",
        "label": "interestRateModel",
        "offset": 0,
        "slot": "6",
        "type": "t_contract(InterestRateModel)33433"
      },
      {
        "astId": 6145,
        "contract": "contracts/CYFI.sol:CYFI",
        "label": "initialExchangeRateMantissa",
        "offset": 0,
        "slot": "7",
        "type": "t_uint256"
      },
      {
        "astId": 6147,
        "contract": "contracts/CYFI.sol:CYFI",
        "label": "reserveFactorMantissa",
        "offset": 0,
        "slot": "8",
        "type": "t_uint256"
      },
      {
        "astId": 6149,
        "contract": "contracts/CYFI.sol:CYFI",
        "label": "accrualBlockNumber",
        "offset": 0,
        "slot": "9",
        "type": "t_uint256"
      },
      {
        "astId": 6151,
        "contract": "contracts/CYFI.sol:CYFI",
        "label": "borrowIndex",
        "offset": 0,
        "slot": "10",
        "type": "t_uint256"
      },
      {
        "astId": 6153,
        "contract": "contracts/CYFI.sol:CYFI",
        "label": "totalBorrows",
        "offset": 0,
        "slot": "11",
        "type": "t_uint256"
      },
      {
        "astId": 6155,
        "contract": "contracts/CYFI.sol:CYFI",
        "label": "totalReserves",
        "offset": 0,
        "slot": "12",
        "type": "t_uint256"
      },
      {
        "astId": 6157,
        "contract": "contracts/CYFI.sol:CYFI",
        "label": "totalSupply",
        "offset": 0,
        "slot": "13",
        "type": "t_uint256"
      },
      {
        "astId": 6161,
        "contract": "contracts/CYFI.sol:CYFI",
        "label": "accountTokens",
        "offset": 0,
        "slot": "14",
        "type": "t_mapping(t_address,t_uint256)"
      },
      {
        "astId": 6167,
        "contract": "contracts/CYFI.sol:CYFI",
        "label": "transferAllowances",
        "offset": 0,
        "slot": "15",
        "type": "t_mapping(t_address,t_mapping(t_address,t_uint256))"
      },
      {
        "astId": 6176,
        "contract": "contracts/CYFI.sol:CYFI",
        "label": "accountBorrows",
        "offset": 0,
        "slot": "16",
        "type": "t_mapping(t_address,t_struct(BorrowSnapshot)6172_storage)"
      },
      {
        "astId": 6480,
        "contract": "contracts/CYFI.sol:CYFI",
        "label": "underlying",
        "offset": 0,
        "slot": "17",
        "type": "t_address"
      },
      {
        "astId": 6593,
        "contract": "contracts/CYFI.sol:CYFI",
        "label": "delegateRegistry",
        "offset": 0,
        "slot": "18",
        "type": "t_contract(IDelegateRegistry)6589"
      }
    ],
    "types": {
      "t_address": {
        "encoding": "inplace",
        "label": "address",
        "numberOfBytes": "20"
      },
      "t_address_payable": {
        "encoding": "inplace",
        "label": "address payable",
        "numberOfBytes": "20"
      },
      "t_bool": {
        "encoding": "inplace",
        "label": "bool",
        "numberOfBytes": "1"
      },
      "t_contract(ComptrollerInterface)30521": {
        "encoding": "inplace",
        "label": "contract ComptrollerInterface",
        "numberOfBytes": "20"
      },
      "t_contract(IDelegateRegistry)6589": {
        "encoding": "inplace",
        "label": "contract IDelegateRegistry",
        "numberOfBytes": "20"
      },
      "t_contract(InterestRateModel)33433": {
        "encoding": "inplace",
        "label": "contract InterestRateModel",
        "numberOfBytes": "20"
      },
      "t_mapping(t_address,t_mapping(t_address,t_uint256))": {
        "encoding": "mapping",
        "key": "t_address",
        "label": "mapping(address => mapping(address => uint256))",
        "numberOfBytes": "32",
        "value": "t_mapping(t_address,t_uint256)"
      },
      "t_mapping(t_address,t_struct(BorrowSnapshot)6172_storage)": {
        "encoding": "mapping",
        "key": "t_address",
        "label": "mapping(address => struct CTokenStorage.BorrowSnapshot)",
        "numberOfBytes": "32",
        "value": "t_struct(BorrowSnapshot)6172_storage"
      },
      "t_mapping(t_address,t_uint256)": {
        "encoding": "mapping",
        "key": "t_address",
        "label": "mapping(address => uint256)",
        "numberOfBytes": "32",
        "value": "t_uint256"
      },
      "t_string_storage": {
        "encoding": "bytes",
        "label": "string",
        "numberOfBytes": "32"
      },
      "t_struct(BorrowSnapshot)6172_storage": {
        "encoding": "inplace",
        "label": "struct CTokenStorage.BorrowSnapshot",
        "members": [
          {
            "astId": 6169,
            "contract": "contracts/CYFI.sol:CYFI",
            "label": "principal",
            "offset": 0,
            "slot": "0",
            "type": "t_uint256"
          },
          {
            "astId": 6171,
            "contract": "contracts/CYFI.sol:CYFI",
            "label": "interestIndex",
            "offset": 0,
            "slot": "1",
            "type": "t_uint256"
          }
        ],
        "numberOfBytes": "64"
      },
      "t_uint256": {
        "encoding": "inplace",
        "label": "uint256",
        "numberOfBytes": "32"
      },
      "t_uint8": {
        "encoding": "inplace",
        "label": "uint8",
        "numberOfBytes": "1"
      }
    }
  }
}