{
  "address": "0xF45C5Ef54e1401569325E047f2FEa7190e055A18",
  "abi": [
    {
      "constant": true,
      "inputs": [],
      "name": "decimals",
      "outputs": [
        {
          "internalType": "uint8",
          "name": "",
          "type": "uint8"
        }
      ],
      "payable": false,
      "stateMutability": "view",
      "type": "function"
    },
    {
      "constant": true,
      "inputs": [],
      "name": "latestAnswer",
      "outputs": [
        {
          "internalType": "uint256",
          "name": "",
          "type": "uint256"
        }
      ],
      "payable": false,
      "stateMutability": "view",
      "type": "function"
    }
  ],
  "transactionHash": "0x514ab152a7dc64b20c5b6965326156c8faec857b0d4ff46193a288643ded9c23",
  "args": [],
  "solcInputHash": "5b141f94a7d99083338b4d098bf0ef23",
  "bytecode": "0x6080604052348015600f57600080fd5b5060b18061001e6000396000f3fe6080604052348015600f57600080fd5b506004361060325760003560e01c8063313ce56714603757806350d25bcd146053575b600080fd5b603d606b565b6040805160ff9092168252519081900360200190f35b60596070565b60408051918252519081900360200190f35b601290565b670de0b6b3a76400009056fea265627a7a72315820b8909dd45b9db4bfbedb95f8cefb3fa8bcbb173e760288cf53c03a58e688f20164736f6c63430005100032",
  "devdoc": {
    "methods": {}
  },
  "userdoc": {
    "methods": {}
  },
  "storageLayout": {
    "storage": [],
    "types": null
  }
}