{
  "address": "0xf563f139C97b945e1306d3f5EA8bba2AC617ADF7",
  "abi": [
    {
      "inputs": [
        {
          "internalType": "contract ICurvePool",
          "name": "_pool",
          "type": "address"
        }
      ],
      "payable": false,
      "stateMutability": "nonpayable",
      "type": "constructor"
    },
    {
      "constant": true,
      "inputs": [],
      "name": "decimals",
      "outputs": [
        {
          "internalType": "uint8",
          "name": "",
          "type": "uint8"
        }
      ],
      "payable": false,
      "stateMutability": "view",
      "type": "function"
    },
    {
      "constant": true,
      "inputs": [],
      "name": "latestAnswer",
      "outputs": [
        {
          "internalType": "uint256",
          "name": "",
          "type": "uint256"
        }
      ],
      "payable": false,
      "stateMutability": "view",
      "type": "function"
    },
    {
      "constant": true,
      "inputs": [],
      "name": "pool",
      "outputs": [
        {
          "internalType": "contract ICurvePool",
          "name": "",
          "type": "address"
        }
      ],
      "payable": false,
      "stateMutability": "view",
      "type": "function"
    }
  ],
  "transactionHash": "0xd4d9e24b05214218474d45be5bfa1b49273647a96d3ce75d93bbcb3d73cfcae8",
  "args": [
    "0xAA5A67c256e27A5d80712c51971408db3370927D"
  ],
  "solcInputHash": "4d6edd3ec030cc1395482dd556b1721a",
  "bytecode": "0x608060405234801561001057600080fd5b506040516101d03803806101d08339818101604052602081101561003357600080fd5b5051600080546001600160a01b039092166001600160a01b031990921691909117905561016b806100656000396000f3fe608060405234801561001057600080fd5b50600436106100415760003560e01c806316f0115b14610046578063313ce5671461006a57806350d25bcd14610088575b600080fd5b61004e6100a2565b604080516001600160a01b039092168252519081900360200190f35b6100726100b1565b6040805160ff9092168252519081900360200190f35b6100906100b6565b60408051918252519081900360200190f35b6000546001600160a01b031681565b601281565b60008060009054906101000a90046001600160a01b03166001600160a01b031663bb7b8b806040518163ffffffff1660e01b815260040160206040518083038186803b15801561010557600080fd5b505afa158015610119573d6000803e3d6000fd5b505050506040513d602081101561012f57600080fd5b505190509056fea265627a7a72315820192a3118b9d9758bc0aeae930463d2c71aeb848c0349a06da29d7c7c3d343cc864736f6c63430005100032",
  "devdoc": {
    "methods": {}
  },
  "userdoc": {
    "methods": {}
  },
  "storageLayout": {
    "storage": [
      {
        "astId": 22,
        "contract": "contracts/CurveFeed.sol:CurveFeed",
        "label": "pool",
        "offset": 0,
        "slot": "0",
        "type": "t_contract(ICurvePool)7"
      }
    ],
    "types": {
      "t_contract(ICurvePool)7": {
        "encoding": "inplace",
        "label": "contract ICurvePool",
        "numberOfBytes": "20"
      }
    }
  }
}