{
  "address": "0x56775f083Ac3015b8c869D9E089da251dcAa41fF",
  "abi": [
    {
      "inputs": [
        {
          "internalType": "contract IUniswapV2Pair",
          "name": "_pair",
          "type": "address"
        },
        {
          "internalType": "contract Feed",
          "name": "_feed0",
          "type": "address"
        },
        {
          "internalType": "contract Feed",
          "name": "_feed1",
          "type": "address"
        }
      ],
      "payable": false,
      "stateMutability": "nonpayable",
      "type": "constructor"
    },
    {
      "constant": true,
      "inputs": [],
      "name": "decimals",
      "outputs": [
        {
          "internalType": "uint8",
          "name": "",
          "type": "uint8"
        }
      ],
      "payable": false,
      "stateMutability": "view",
      "type": "function"
    },
    {
      "constant": true,
      "inputs": [],
      "name": "feed0",
      "outputs": [
        {
          "internalType": "contract Feed",
          "name": "",
          "type": "address"
        }
      ],
      "payable": false,
      "stateMutability": "view",
      "type": "function"
    },
    {
      "constant": true,
      "inputs": [],
      "name": "feed1",
      "outputs": [
        {
          "internalType": "contract Feed",
          "name": "",
          "type": "address"
        }
      ],
      "payable": false,
      "stateMutability": "view",
      "type": "function"
    },
    {
      "constant": true,
      "inputs": [],
      "name": "latestAnswer",
      "outputs": [
        {
          "internalType": "uint256",
          "name": "",
          "type": "uint256"
        }
      ],
      "payable": false,
      "stateMutability": "view",
      "type": "function"
    },
    {
      "constant": true,
      "inputs": [],
      "name": "pair",
      "outputs": [
        {
          "internalType": "contract IUniswapV2Pair",
          "name": "",
          "type": "address"
        }
      ],
      "payable": false,
      "stateMutability": "view",
      "type": "function"
    }
  ],
  "transactionHash": "0x9bd0979c9e98d0c32c23e3614bac53da023951ba7af70d116319f05f0596c55e",
  "args": [
    "0x328dFd0139e26cB0FEF7B0742B49b0fe4325F821",
    "0x210aC53b27f16e20A9aa7d16260F84693390258F",
    "0x5f4eC3Df9cbd43714FE2740f5E3616155c5b8419"
  ],
  "solcInputHash": "72ba598cbbcf071a4ef1629b0ba7b8e6",
  "bytecode": "0x608060405234801561001057600080fd5b50604051610b7a380380610b7a8339818101604052606081101561003357600080fd5b508051602080830151604093840151845163313ce56760e01b815294519394919390926012926001600160a01b0386169263313ce56792600480840193919291829003018186803b15801561008757600080fd5b505afa15801561009b573d6000803e3d6000fd5b505050506040513d60208110156100b157600080fd5b505160ff161115610109576040805162461bcd60e51b815260206004820152601760248201527f494e56414c49442046454544203020444543494d414c53000000000000000000604482015290519081900360640190fd5b6012816001600160a01b031663313ce5676040518163ffffffff1660e01b815260040160206040518083038186803b15801561014457600080fd5b505afa158015610158573d6000803e3d6000fd5b505050506040513d602081101561016e57600080fd5b505160ff1611156101c6576040805162461bcd60e51b815260206004820152601760248201527f494e56414c49442046454544203120444543494d414c53000000000000000000604482015290519081900360640190fd5b600080546001600160a01b039485166001600160a01b031991821617909155600180549385169382169390931790925560028054919093169116179055610968806102126000396000f3fe608060405234801561001057600080fd5b50600436106100575760003560e01c8063313ce5671461005c57806350d25bcd1461007a578063a8aa1b3114610094578063b072233a146100b8578063b5deb965146100c0575b600080fd5b6100646100c8565b6040805160ff9092168252519081900360200190f35b6100826100cd565b60408051918252519081900360200190f35b61009c610624565b604080516001600160a01b039092168252519081900360200190f35b61009c610633565b61009c610642565b601281565b60008054604080516318160ddd60e01b8152905183926001600160a01b0316916318160ddd916004808301926020929190829003018186803b15801561011257600080fd5b505afa158015610126573d6000803e3d6000fd5b505050506040513d602081101561013c57600080fd5b50516000805460408051630240bc6b60e21b81529051939450919283926001600160a01b0390921691630902f1ac916004808301926060929190829003018186803b15801561018a57600080fd5b505afa15801561019e573d6000803e3d6000fd5b505050506040513d60608110156101b457600080fd5b5080516020909101516dffffffffffffffffffffffffffff918216935016905060006101e86101e38484610651565b61069a565b90506000600160009054906101000a90046001600160a01b03166001600160a01b031663313ce5676040518163ffffffff1660e01b815260040160206040518083038186803b15801561023a57600080fd5b505afa15801561024e573d6000803e3d6000fd5b505050506040513d602081101561026457600080fd5b505160ff1660121461036d57600160009054906101000a90046001600160a01b03166001600160a01b031663313ce5676040518163ffffffff1660e01b815260040160206040518083038186803b1580156102be57600080fd5b505afa1580156102d2573d6000803e3d6000fd5b505050506040513d60208110156102e857600080fd5b5051600154604080516350d25bcd60e01b8152905160ff909316601203600a0a926001600160a01b03909216916350d25bcd91600480820192602092909190829003018186803b15801561033b57600080fd5b505afa15801561034f573d6000803e3d6000fd5b505050506040513d602081101561036557600080fd5b5051026103e8565b600160009054906101000a90046001600160a01b03166001600160a01b03166350d25bcd6040518163ffffffff1660e01b815260040160206040518083038186803b1580156103bb57600080fd5b505afa1580156103cf573d6000803e3d6000fd5b505050506040513d60208110156103e557600080fd5b50515b90506000600260009054906101000a90046001600160a01b03166001600160a01b031663313ce5676040518163ffffffff1660e01b815260040160206040518083038186803b15801561043a57600080fd5b505afa15801561044e573d6000803e3d6000fd5b505050506040513d602081101561046457600080fd5b505160ff1660121461056d57600260009054906101000a90046001600160a01b03166001600160a01b031663313ce5676040518163ffffffff1660e01b815260040160206040518083038186803b1580156104be57600080fd5b505afa1580156104d2573d6000803e3d6000fd5b505050506040513d60208110156104e857600080fd5b5051600254604080516350d25bcd60e01b8152905160ff909316601203600a0a926001600160a01b03909216916350d25bcd91600480820192602092909190829003018186803b15801561053b57600080fd5b505afa15801561054f573d6000803e3d6000fd5b505050506040513d602081101561056557600080fd5b5051026105e8565b600260009054906101000a90046001600160a01b03166001600160a01b03166350d25bcd6040518163ffffffff1660e01b815260040160206040518083038186803b1580156105bb57600080fd5b505afa1580156105cf573d6000803e3d6000fd5b505050506040513d60208110156105e557600080fd5b50515b905060006105f96101e38484610651565b9050610618610612600261060d8785610651565b610651565b886107e2565b97505050505050505090565b6000546001600160a01b031681565b6001546001600160a01b031681565b6002546001600160a01b031681565b600061069383836040518060400160405280601781526020017f6d756c7469706c69636174696f6e206f766572666c6f77000000000000000000815250610815565b9392505050565b6000816106a9575060006107dd565b816001600160801b82106106c25760809190911c9060401b5b6801000000000000000082106106dd5760409190911c9060201b5b64010000000082106106f45760209190911c9060101b5b6201000082106107095760109190911c9060081b5b610100821061071d5760089190911c9060041b5b601082106107305760049190911c9060021b5b6008821061073c5760011b5b600181858161074757fe5b048201901c9050600181858161075957fe5b048201901c9050600181858161076b57fe5b048201901c9050600181858161077d57fe5b048201901c9050600181858161078f57fe5b048201901c905060018185816107a157fe5b048201901c905060018185816107b357fe5b048201901c905060008185816107c557fe5b0490508082106107d557806107d7565b815b93505050505b919050565b600061069383836040518060400160405280600e81526020016d646976696465206279207a65726f60901b8152506108d1565b6000831580610822575082155b1561082f57506000610693565b8383028385828161083c57fe5b041483906108c85760405162461bcd60e51b81526004018080602001828103825283818151815260200191508051906020019080838360005b8381101561088d578181015183820152602001610875565b50505050905090810190601f1680156108ba5780820380516001836020036101000a031916815260200191505b509250505060405180910390fd5b50949350505050565b600081836109205760405162461bcd60e51b815260206004820181815283516024840152835190928392604490910191908501908083836000831561088d578181015183820152602001610875565b5082848161092a57fe5b0494935050505056fea265627a7a7231582054d9811142849ef7ffd47e15d5e037519a0d826cc0dbba3acc781f40058cb33864736f6c63430005100032",
  "devdoc": {
    "methods": {}
  },
  "userdoc": {
    "methods": {}
  },
  "storageLayout": {
    "storage": [
      {
        "astId": 35204,
        "contract": "contracts/LpFeed.sol:LpFeed",
        "label": "pair",
        "offset": 0,
        "slot": "0",
        "type": "t_contract(IUniswapV2Pair)35187"
      },
      {
        "astId": 35206,
        "contract": "contracts/LpFeed.sol:LpFeed",
        "label": "feed0",
        "offset": 0,
        "slot": "1",
        "type": "t_contract(Feed)35198"
      },
      {
        "astId": 35208,
        "contract": "contracts/LpFeed.sol:LpFeed",
        "label": "feed1",
        "offset": 0,
        "slot": "2",
        "type": "t_contract(Feed)35198"
      }
    ],
    "types": {
      "t_contract(Feed)35198": {
        "encoding": "inplace",
        "label": "contract Feed",
        "numberOfBytes": "20"
      },
      "t_contract(IUniswapV2Pair)35187": {
        "encoding": "inplace",
        "label": "contract IUniswapV2Pair",
        "numberOfBytes": "20"
      }
    }
  }
}