{
  "address": "0x1b086779E47509bDc9f49f1ED31eefB1ef156deB",
  "abi": [
    {
      "inputs": [
        {
          "internalType": "contract StethEthFeed",
          "name": "_stethEthFeed",
          "type": "address"
        },
        {
          "internalType": "contract IFeed",
          "name": "_ethFeed",
          "type": "address"
        }
      ],
      "payable": false,
      "stateMutability": "nonpayable",
      "type": "constructor"
    },
    {
      "constant": true,
      "inputs": [],
      "name": "decimals",
      "outputs": [
        {
          "internalType": "uint8",
          "name": "",
          "type": "uint8"
        }
      ],
      "payable": false,
      "stateMutability": "view",
      "type": "function"
    },
    {
      "constant": true,
      "inputs": [],
      "name": "ethFeed",
      "outputs": [
        {
          "internalType": "contract IFeed",
          "name": "",
          "type": "address"
        }
      ],
      "payable": false,
      "stateMutability": "view",
      "type": "function"
    },
    {
      "constant": true,
      "inputs": [],
      "name": "latestAnswer",
      "outputs": [
        {
          "internalType": "uint256",
          "name": "",
          "type": "uint256"
        }
      ],
      "payable": false,
      "stateMutability": "view",
      "type": "function"
    },
    {
      "constant": true,
      "inputs": [],
      "name": "stethEthFeed",
      "outputs": [
        {
          "internalType": "contract StethEthFeed",
          "name": "",
          "type": "address"
        }
      ],
      "payable": false,
      "stateMutability": "view",
      "type": "function"
    }
  ],
  "transactionHash": "0xf7f1328f928eda5c736d5d3c760bac5cee595b3d4e518b255ecd7dc7ce0c0d41",
  "args": [
    "0xAb55Bf4DfBf469ebfe082b7872557D1F87692Fe6",
    "0x5f4eC3Df9cbd43714FE2740f5E3616155c5b8419"
  ],
  "solcInputHash": "c34a77575f9d08fa79618703d4b20c8b",
  "bytecode": "0x608060405234801561001057600080fd5b506040516104b93803806104b98339818101604052604081101561003357600080fd5b508051602090910151600080546001600160a01b039384166001600160a01b0319918216179091556001805493909216921691909117905561043f8061007a6000396000f3fe608060405234801561001057600080fd5b506004361061004c5760003560e01c8063313ce5671461005157806350d25bcd1461006f57806355899b77146100895780635e19d05c146100ad575b600080fd5b6100596100b5565b6040805160ff9092168252519081900360200190f35b6100776100ba565b60408051918252519081900360200190f35b61009161028a565b604080516001600160a01b039092168252519081900360200190f35b610091610299565b601290565b600080546040805163ab2b313760e01b81528151849384936001600160a01b039091169263ab2b31379260048083019392829003018186803b1580156100ff57600080fd5b505afa158015610113573d6000803e3d6000fd5b505050506040513d604081101561012957600080fd5b50805160209091015190925090508061017d576040805162461bcd60e51b81526020600482015260116024820152707072696365206973206e6f74207361666560781b604482015290519081900360640190fd5b6001546040805163313ce56760e01b81529051610283926001600160a01b03169163313ce567916004808301926020929190829003018186803b1580156101c357600080fd5b505afa1580156101d7573d6000803e3d6000fd5b505050506040513d60208110156101ed57600080fd5b5051600154604080516350d25bcd60e01b8152905160ff909316600a0a92610277926001600160a01b0316916350d25bcd916004808301926020929190829003018186803b15801561023e57600080fd5b505afa158015610252573d6000803e3d6000fd5b505050506040513d602081101561026857600080fd5b5051859063ffffffff6102a816565b9063ffffffff61030a16565b9250505090565b6000546001600160a01b031681565b6001546001600160a01b031681565b6000826102b757506000610304565b828202828482816102c457fe5b04146103015760405162461bcd60e51b81526004018080602001828103825260218152602001806103ea6021913960400191505060405180910390fd5b90505b92915050565b600061030183836040518060400160405280601a81526020017f536166654d6174683a206469766973696f6e206279207a65726f000000000000815250600081836103d35760405162461bcd60e51b81526004018080602001828103825283818151815260200191508051906020019080838360005b83811015610398578181015183820152602001610380565b50505050905090810190601f1680156103c55780820380516001836020036101000a031916815260200191505b509250505060405180910390fd5b5060008385816103df57fe5b049594505050505056fe536166654d6174683a206d756c7469706c69636174696f6e206f766572666c6f77a265627a7a723158209c06f9435f994c4111acf905b746b228fa1c3ba75ed875d38de1071c768a43ff64736f6c63430005100032",
  "devdoc": {
    "methods": {}
  },
  "userdoc": {
    "methods": {}
  },
  "storageLayout": {
    "storage": [
      {
        "astId": 36826,
        "contract": "contracts/StethFeed.sol:StethFeed",
        "label": "stethEthFeed",
        "offset": 0,
        "slot": "0",
        "type": "t_contract(StethEthFeed)36819"
      },
      {
        "astId": 36828,
        "contract": "contracts/StethFeed.sol:StethFeed",
        "label": "ethFeed",
        "offset": 0,
        "slot": "1",
        "type": "t_contract(IFeed)36811"
      }
    ],
    "types": {
      "t_contract(IFeed)36811": {
        "encoding": "inplace",
        "label": "contract IFeed",
        "numberOfBytes": "20"
      },
      "t_contract(StethEthFeed)36819": {
        "encoding": "inplace",
        "label": "contract StethEthFeed",
        "numberOfBytes": "20"
      }
    }
  }
}