{
  "address": "0xD21cba93074FBe899338C2b6ec4fF711C865428C",
  "abi": [
    {
      "inputs": [
        {
          "internalType": "contract StethEthFeed",
          "name": "_stethEthFeed",
          "type": "address"
        },
        {
          "internalType": "contract IFeed",
          "name": "_ethFeed",
          "type": "address"
        }
      ],
      "payable": false,
      "stateMutability": "nonpayable",
      "type": "constructor"
    },
    {
      "constant": true,
      "inputs": [],
      "name": "decimals",
      "outputs": [
        {
          "internalType": "uint8",
          "name": "",
          "type": "uint8"
        }
      ],
      "payable": false,
      "stateMutability": "view",
      "type": "function"
    },
    {
      "constant": true,
      "inputs": [],
      "name": "ethFeed",
      "outputs": [
        {
          "internalType": "contract IFeed",
          "name": "",
          "type": "address"
        }
      ],
      "payable": false,
      "stateMutability": "view",
      "type": "function"
    },
    {
      "constant": true,
      "inputs": [],
      "name": "latestAnswer",
      "outputs": [
        {
          "internalType": "uint256",
          "name": "",
          "type": "uint256"
        }
      ],
      "payable": false,
      "stateMutability": "view",
      "type": "function"
    },
    {
      "constant": true,
      "inputs": [],
      "name": "stethEthFeed",
      "outputs": [
        {
          "internalType": "contract StethEthFeed",
          "name": "",
          "type": "address"
        }
      ],
      "payable": false,
      "stateMutability": "view",
      "type": "function"
    }
  ],
  "transactionHash": "0x0862f930d63be88945802047b353907ad4d735bfb4a763990a0a5c936c5d63d8",
  "args": [
    "0xAb55Bf4DfBf469ebfe082b7872557D1F87692Fe6",
    "0x5f4eC3Df9cbd43714FE2740f5E3616155c5b8419"
  ],
  "solcInputHash": "ef519cb771eca87a84a3a8767add1eff",
  "bytecode": "0x608060405234801561001057600080fd5b506040516104683803806104688339818101604052604081101561003357600080fd5b508051602090910151600080546001600160a01b039384166001600160a01b031991821617909155600180549390921692169190911790556103ee8061007a6000396000f3fe608060405234801561001057600080fd5b506004361061004c5760003560e01c8063313ce5671461005157806350d25bcd1461006f57806355899b77146100895780635e19d05c146100ad575b600080fd5b6100596100b5565b6040805160ff9092168252519081900360200190f35b6100776100ba565b60408051918252519081900360200190f35b610091610239565b604080516001600160a01b039092168252519081900360200190f35b610091610248565b601290565b600080546040805163290c0a4b60e21b8152815184936001600160a01b03169263a430292c9260048082019391829003018186803b1580156100fb57600080fd5b505afa15801561010f573d6000803e3d6000fd5b505050506040513d604081101561012557600080fd5b50516001546040805163313ce56760e01b81529051929350610233926001600160a01b039092169163313ce56791600480820192602092909190829003018186803b15801561017357600080fd5b505afa158015610187573d6000803e3d6000fd5b505050506040513d602081101561019d57600080fd5b5051600154604080516350d25bcd60e01b8152905160ff909316600a0a92610227926001600160a01b0316916350d25bcd916004808301926020929190829003018186803b1580156101ee57600080fd5b505afa158015610202573d6000803e3d6000fd5b505050506040513d602081101561021857600080fd5b5051849063ffffffff61025716565b9063ffffffff6102b916565b91505090565b6000546001600160a01b031681565b6001546001600160a01b031681565b600082610266575060006102b3565b8282028284828161027357fe5b04146102b05760405162461bcd60e51b81526004018080602001828103825260218152602001806103996021913960400191505060405180910390fd5b90505b92915050565b60006102b083836040518060400160405280601a81526020017f536166654d6174683a206469766973696f6e206279207a65726f000000000000815250600081836103825760405162461bcd60e51b81526004018080602001828103825283818151815260200191508051906020019080838360005b8381101561034757818101518382015260200161032f565b50505050905090810190601f1680156103745780820380516001836020036101000a031916815260200191505b509250505060405180910390fd5b50600083858161038e57fe5b049594505050505056fe536166654d6174683a206d756c7469706c69636174696f6e206f766572666c6f77a265627a7a7231582093aab382a39209fcdec05bc0955c7b4f74deaa520b718e1b7185d4647102be4064736f6c63430005100032",
  "devdoc": {
    "methods": {}
  },
  "userdoc": {
    "methods": {}
  },
  "storageLayout": {
    "storage": [
      {
        "astId": 36826,
        "contract": "contracts/StethFeed.sol:StethFeed",
        "label": "stethEthFeed",
        "offset": 0,
        "slot": "0",
        "type": "t_contract(StethEthFeed)36819"
      },
      {
        "astId": 36828,
        "contract": "contracts/StethFeed.sol:StethFeed",
        "label": "ethFeed",
        "offset": 0,
        "slot": "1",
        "type": "t_contract(IFeed)36811"
      }
    ],
    "types": {
      "t_contract(IFeed)36811": {
        "encoding": "inplace",
        "label": "contract IFeed",
        "numberOfBytes": "20"
      },
      "t_contract(StethEthFeed)36819": {
        "encoding": "inplace",
        "label": "contract StethEthFeed",
        "numberOfBytes": "20"
      }
    }
  }
}